:020000040800F2
:10000000A0100020A1310008D9020008DB0200087E
:10001000DF020008E3020008E70200080000000019
:10002000000000000000000000000000EB020008DB
:10003000ED02000800000000EF020008F1020008D5
:10004000BB310008BB310008BB310008BB310008E0
:10005000BB310008BB310008BB310008BB310008D0
:10006000BB310008BB310008BB310008BB310008C0
:10007000BB310008BB310008BB310008BB310008B0
:10008000BB310008BB310008BB310008BB310008A0
:10009000BB310008BB310008BB310008BB31000890
:1000A000BB310008BB310008BB310008BB31000880
:1000B000A302000831190008BB310008BB31000859
:1000C000BB310008BB310008BB310008BB31000860
:1000D000BB310008EF300008BB310008BB3100081D
:1000E000BB310008BB310008BB310008BB31000840
:1000F000BB310008BB310008BB310008BB31000830
:10010000BB310008BB310008BB310008BB3100081F
:10011000BB310008BB310008BB310008BB3100080F
:10012000BB310008BB310008BB310008BB310008FF
:10013000DFF80CD006F072F80048004741020008D2
:10014000A01000200EB50121084603F0D2FB0920C3
:10015000ADF8040041F61F40ADF800000020ADF8F6
:100160000600ADF8020069464FF0804003F0ECFC59
:1001700001221146900704F05EF80121880704F07F
:100180003FF80EBD08B500214FF0006003F051F8B4
:100190004FF4C06003F016F81C208DF8000000201A
:1001A0008DF801008DF8020001208DF803006846EB
:1001B00003F00DF808BD10B503F020FA4FF48030BD
:1001C00003F03CFA03F079FA0446012C2FD11020F9
:1001D00005F0BAF8022005F0A3F8002003F0B3FA06
:1001E000002003F0C2FAA00203F0B6FA4FF4E011C7
:1001F000200403F08BFA012003F094FA00BF3920A9
:1002000003F03FFA0028FAD0022003F08EFA00BF74
:1002100003F094FA0828FBD1012003F095FB01219B
:10022000084603F066FB01213D2003F055FB10BD9D
:1002300010B5FFF7C0FFFFF7A5FFFFF783FF10BD65
:10024000FFF7F6FF01F01EFC02F0A0FD4FF4A060E6
:1002500002F0B8FF02F004FE41F61F4140F2F31035
:1002600001F03AFB154802F0C9FE02F021FB02F052
:1002700072FB02F0B9F902F019FA02F0C4F9104960
:10028000104802F0DBF8642002F0BDFD0EA006F07D
:1002900095F84FF47A7002F0B6FD01E002F02EFA04
:1002A000FCE710B50121880704F073FA012803D197
:1002B0000121800704F07EFA10BD000060E3160003
:1002C000FA000020F200002048656C6C6F20576F28
:1002D000726C640D0A000000704700BFFEE700BFAB
:1002E000FEE700BFFEE700BFFEE7704770477047BC
:1002F000704700000CB50020019000906C48006829
:1003000040F480306A49086000BF6948006800F422
:10031000003000900198401C0190009818B9019895
:10032000B0F5A06FF1D16248006800F4003010B160
:100330000120009001E0002000900098012843D1A6
:100340005C48006840F010005A49086008460068A0
:1003500020F0030008600846006840F002000860D2
:10036000534840685249486008464068486008461B
:10037000406840F4806048600846406820F47C1083
:1003800048600846406840F4E81048600846006845
:1003900040F08070086000BF4548006800F00070C1
:1003A0000028F9D04248406820F0030040494860E6
:1003B0000846406840F00200486000BF3C48406882
:1003C00000F00C000828F9D10CBD10B5FFF792FF22
:1003D00010BD10B53648006840F00100344908608F
:1003E000084640683449084031494860084600687A
:1003F000324908402E4908600846006820F48020F1
:1004000008600846406820F4FE0048604FF41F0072
:100410008860FFF7DAFF4FF000602949086010BDDF
:1004200010B5002100200022214B5B6803F00C0175
:1004300021B1042906D0082928D107E0214B224CFC
:10044000236027E01F4B204C236023E0184B5B68A0
:1004500003F47010164B5B6803F48032022303EB45
:10046000904022B9194B4343174C23600DE0104BC9
:100470005B6803F4003323B1144B4343124C2360F5
:1004800003E0104B4343104C236003E00D4B0E4C34
:10049000236000BF00BF064B5B68C3F303130C4C23
:1004A000E15C094B1B68CB40074C236010BD00008A
:1004B00000100240002002400000FFF8FFFFF6FE9F
:1004C00008ED00E000127A000000002000093D0065
:1004D0000400002070B504460D462946204602F06F
:1004E00001F970BDF0B5034600241D460E4600BF5D
:1004F00009E028783778B84201D00020F0BD6D1CA3
:10050000761C601CC4B29442F3DB0120F6E7F0B520
:10051000024600250023002417460E4606E0521C22
:10052000581CC3B2642B01DD0020F0BD10780D28EB
:1005300002D010780028F2D106E0491C601CC4B239
:10054000642C01DD0020F0E708780D2802D008783F
:100550000028F2D1A34210D100250AE0387896F89D
:1005600000C0604501D00020DFE77F1C761C681CBE
:10057000C5B29D42F2DB0120D7E70020D5E770B578
:1005800005460C46A5F164001E2870D2DFE800F095
:100590000F1E2D3C4B5A69798899AABBCCDDFCF122
:1005A000F0EFEEEDECEBEAE9E8E7E6E5E4E324B9A9
:1005B0000421F74802F083FF03E00421F44802F02D
:1005C0007CFF0B21F3A0FFF785FFDEE124B90821B2
:1005D000EF4802F074FF03E00821ED4802F06DFFE0
:1005E0000B21EFA0FFF776FFCFE124B91021E848F7
:1005F00002F065FF03E01021E54802F05EFF0B21E9
:10060000EAA0FFF767FFC0E124B92021E04802F02B
:1006100056FF03E02021DE4802F04FFF0B21E6A049
:10062000FFF758FFB1E124B91021E64802F047FF77
:1006300003E01021E34802F040FF0B21E2A0FFF7A6
:1006400049FFA2E124B92021DE4802F038FF03E08F
:100650002021DC4802F031FF0B21DEA0FFF73AFF3A
:1006600093E12CB94021D74802F029FF04E08BE147
:100670004021D44802F021FF0B21D9A0FFF72AFF27
:1006800083E124B98021CF4802F019FF03E08021E3
:10069000CC4802F012FF0B21D4A0FFF71BFF74E13E
:1006A0002CB94FF48071C74802F009FF04E04FF401
:1006B0008071C44802F001FF0B21CFA0FFF70AFFB1
:1006C00063E12CB94FF40071BE4802F0F8FE04E07B
:1006D0004FF40071BB4802F0F0FE0B21C9A0FFF7F8
:1006E000F9FE52E12CB94FF48061B64802F0E7FE02
:1006F00004E04FF48061B34802F0DFFE0B21C4A098
:10070000FFF7E8FE41E12CB94FF40061AD4802F07B
:10071000D6FE04E04FF40061AA4802F0CEFE0B21A1
:10072000BEA0FFF7D7FE30E12CB94FF48051A548A9
:1007300002F0C5FE04E04FF48051A24802F0BDFE75
:100740000B21B9A0FFF7C6FE1FE1A4B90121B948EA
:1007500002F0B5FE13E008E1F6E0E4E0D2E0C0E02C
:10076000AEE09CE08AE078E068E058E048E038E0FD
:1007700028E018E008E00121AE4802F09EFE0B21BF
:10078000ADA0FFF7A7FE00E124B90221A94802F0BD
:1007900096FE03E00221A74802F08FFE0B21A9A0DC
:1007A000FFF798FEF1E024B90421A24802F087FE89
:1007B00003E004219F4802F080FE0B21A4A0FFF774
:1007C00089FEE2E024B908219A4802F078FE03E0AD
:1007D0000821984802F071FE0B21A0A0FFF77AFED5
:1007E000D3E024B91021934802F069FE03E0102100
:1007F000904802F062FE0B219BA0FFF76BFEC4E065
:1008000024B920218B4802F05AFE03E020218948B8
:1008100002F053FE0B2197A0FFF75CFEB5E024B970
:100820004021844802F04BFE03E04021814802F061
:1008300044FE0B2192A0FFF74DFEA6E024B98021D3
:100840007C4802F03CFE03E080217A4802F035FE4D
:100850000B218EA0FFF73EFE97E02CB94FF480717C
:10086000744802F02CFE04E04FF48071714802F0ED
:1008700024FE0B2188A0FFF72DFE86E02CB94FF453
:1008800000716C4802F01BFE04E04FF400716948EF
:1008900002F013FE0B2183A0FFF71CFE75E02CB9BC
:1008A0004FF48061634802F00AFE04E04FF4806177
:1008B000604802F002FE0B217DA0FFF70BFE64E012
:1008C0002CB94FF400615B4802F0F9FD04E04FF4ED
:1008D0000061584802F0F1FD0B2178A0FFF7FAFD06
:1008E00053E02CB94FF48051524802F0E8FD04E087
:1008F0004FF480514F4802F0E0FD0B2172A0FFF74A
:10090000E9FD42E02CB94FF400514A4802F0D7FD0E
:1009100004E04FF40051474802F0CFFD0B216DA0D9
:10092000FFF7D8FD31E02CB94FF48041414802F087
:10093000C6FD04E04FF480413E4802F0BEFD0B21AD
:1009400067A0FFF7C7FD20E02CB94FF400413948FC
:1009500002F0B5FD04E04FF40041364802F0ADFD71
:100960000B2162A0FFF7B6FD0FE024B90121084872
:1009700002F0A5FD03E00121054802F09EFD0B21D8
:100980005DA0FFF7A7FD00E000BF00BF70BD000045
:10099000000C01407365745F696F5F3130303B005C
:1009A0007365745F696F5F3130313B007365745FED
:1009B000696F5F3130323B007365745F696F5F311F
:1009C00030333B00001001407365745F696F5F3125
:1009D00030343B007365745F696F5F3130353B00C5
:1009E0007365745F696F5F3130363B007365745FA8
:1009F000696F5F3130373B007365745F696F5F31DA
:100A000030383B007365745F696F5F3130393B008C
:100A10007365745F696F5F3131303B007365745F7C
:100A2000696F5F3131313B007365745F696F5F31AE
:100A300031323B00001401407365745F696F5F31B0
:100A400031333B007365745F696F5F3131343B0054
:100A50007365745F696F5F3131353B007365745F37
:100A6000696F5F3131363B007365745F696F5F3169
:100A700031373B007365745F696F5F3131383B001C
:100A80007365745F696F5F3131393B007365745F03
:100A9000696F5F3132303B007365745F696F5F313E
:100AA00032313B007365745F696F5F3132323B00F6
:100AB0007365745F696F5F3132333B007365745FD8
:100AC000696F5F3132343B007365745F696F5F310A
:100AD00032353B007365745F696F5F3132363B00BE
:100AE0007365745F696F5F3132373B007365745FA4
:100AF000696F5F3132383B007365745F696F5F31D6
:100B000032393B0010B50446052C65D2DFE804F00D
:100B100003081F364D001921F9A0FFF7DBFC60E048
:100B20001021FE4802F0C9FC4FF40071FC4802F0AD
:100B3000C4FC8021FB4802F0C0FC4FF40051F9488E
:100B400002F0BBFC1521F8A0FFF7C4FC49E0082126
:100B5000F24802F0B2FC4FF40061F14802F0ADFC43
:100B60001021F04802F0A9FC4FF40041ED4802F0DA
:100B7000A4FC1321F1A0FFF7ADFC32E02021E748EF
:100B800002F09BFC4FF48061E54802F096FC4021A6
:100B9000E44802F092FC4FF48051E24802F08DFCF0
:100BA0001521EBA0FFF796FC1BE00421DB4802F0C7
:100BB00084FC4FF48051DA4802F07FFC2021D948B0
:100BC00002F07BFC4FF48041D64802F076FC142101
:100BD000E5A0FFF77FFC04E00721E9A0FFF77AFC1E
:100BE00000BF00BF10BD2DE9F04385B01421684659
:100BF00004F0B7FFE448008805F082F881464FF022
:100C00008B4104F0CDFF044605F07FF807464FF016
:100C10006632DE4B05F002F8054605F0A1F8DC4926
:100C200008600846006805F070F8044622460B4646
:100C3000D8A1684605F0D2FB642002F0E4F805B0C4
:100C4000BDE8F08370B588B0142103A804F089FFD3
:100C5000D2A207CA8DE8070000241021B04802F094
:100C60002CFC4FF48071AE4802F027FC642002F0A7
:100C7000CAF8FFF7B8FFC648006805F046F8054611
:100C8000C94ACA4B05F054F800D201241021A448E7
:100C900002F015FC4FF48071A14802F010FC012114
:100CA000A04802F00AFC4FF480719D4802F005FC58
:100CB000642002F0A8F8FFF796FFB548006805F039
:100CC00024F80546B84AB94B05F032F800D20224A0
:100CD0000121944802F0F3FB4FF48071904802F038
:100CE000EEFB4FF480718F4802F0E7FB4FF4807108
:100CF0008B4802F0E2FB642002F085F8FFF773FFF7
:100D0000A348006805F001F80546A74AA74B05F07F
:100D10000FF800D203244FF48071824802F0CFFB19
:100D20004FF480717E4802F0CAFB01217B4802F03B
:100D3000C4FB4FF480717A4802F0BFFB642002F0DC
:100D400062F8FFF750FF9248006804F0DEFF0546A6
:100D5000954A964B04F0ECFF00D2042401216F4821
:100D600002F0ADFB4FF480716D4802F0A8FB204605
:100D7000FFF7C8FE08B070BD2DE9F04389B014211B
:100D800004A804F0EEFE85A207CA01AB07C3102138
:100D9000634802F092FB4FF48071614802F08DFBD2
:100DA000642002F030F87848008804F0A9FF8146FA
:100DB0004FF08B4104F0F4FE044604F0A6FF074612
:100DC0004FF06632714B04F029FF054604F0C8FF6E
:100DD0006F490860642002F016F86D48006804F05E
:100DE00094FF0446704A714B04F0A2FF2DD268486C
:100DF000006804F08AFF044622460B4665A104A859
:100E000005F0ECFA0A2101A8FFF764FB642001F069
:100E1000FAFF1021414802F050FB4FF400714048A6
:100E200002F04BFB80213F4802F047FB4FF400519A
:100E30003C4802F042FB1021394802F040FB4FF4DD
:100E40008071374802F03BFB2CE05148006804F009
:100E50005CFF044622460B464EA104A805F0BEFAEC
:100E60000A2101A8FFF736FB642001F0CCFF102116
:100E70002B4802F024FB4FF48071294802F01FFB3D
:100E80001021264802F01BFB4FF40071244802F0A9
:100E900016FB8021234802F012FB4FF40051214839
:100EA00002F00DFB09B0BDE8F0832DE9F04389B0F5
:100EB000142104A804F055FE38A207CA01AB07C3E9
:100EC0000121184802F0F9FA4FF48071144802F039
:100ED000F4FA642001F097FF2B48008804F010FF1B
:100EE00081464FF08B4104F05BFE044604F00DFF99
:100EF00007464FF06632254B04F090FE054657E05A
:100F000050494E204552524F522C504C454153456A
:100F100020434845434B2E0D0A000000000C0140C1
:100F2000001001400014014050494E204F6E6520D2
:100F30004953204D432050494E0D0A0050494E2040
:100F400054776F204953204D432050494E0D0A00DD
:100F500050494E205468726565204953204D432006
:100F600050494E0D0A00000050494E20466F7572E0
:100F7000204953204D432050494E0D0A00000000E7
:100F80004552524F520D0A00F000002066660A409A
:100F9000E800002025660D0A00000000444F4E4581
:100FA0003B405F400D0A0000CDCCCCCCCCCCEC3F1C
:100FB00004F0D6FEFE490860642001F024FFFC48DE
:100FC000006804F0A2FE0446FA4AFB4B04F0B0FEAF
:100FD0002BD2F748006804F098FE044622460B46E0
:100FE000AFF2500104A805F0F9F90A2101A8FFF7B2
:100FF00071FA1021F14802F060FA4FF40071F048E4
:1010000002F05BFA8021EF4802F057FA4FF40051EA
:10101000EC4802F052FA0121EA4802F050FA4FF48B
:101020008071E74802F04BFA2DE0E148006804F0D7
:101030006CFE044622460B46AFF2A80104A805F058
:10104000CDF90A2101A8FFF745FA642001F0DBFE83
:101050000121DC4802F033FA4FF48071D84802F0E5
:101060002EFA1021D54802F02AFA4FF40071D44824
:1010700002F025FA8021D34802F021FA4FF4005102
:10108000D04802F01CFA09B0BDE8F0832DE9F04326
:1010900089B0142104A804F064FDAFF2001207CA5D
:1010A00001AB07C34FF48071C64802F006FA4FF453
:1010B0008071C34802F001FA642001F0A4FEC24826
:1010C000008804F01DFE81464FF08B4104F068FD5E
:1010D000044604F01AFE07464FF06632BB4B04F09C
:1010E0009DFD054604F03CFEB1490860642001F016
:1010F0008AFEAF48006804F008FE0446AD4AAE4BD5
:1011000004F016FE2CD2AA48006804F0FEFD044646
:1011100022460B46AFF2841104A805F05FF90A21BC
:1011200001A8FFF7D7F92021A44802F0C6F94FF42F
:101130008061A34802F0C1F94021A24802F0BDF944
:101140004FF480519F4802F0B8F94FF480719D48E8
:1011500002F0B5F94FF48071994802F0B0F92BE034
:101160009348006804F0D1FD044622460B46AFF2D6
:10117000DC1104A805F032F90A2101A8FFF7AAF949
:101180004FF480718F4802F09AF94FF480718C48C7
:1011900002F095F92021894802F091F94FF480611D
:1011A000874802F08CF94021864802F088F94FF414
:1011B0008051844802F083F909B0BDE8F0832DE93D
:1011C000F04389B0142104A804F0CBFCAFF2342220
:1011D00007CA01AB07C30121784802F06EF94FF44A
:1011E0008071774802F069F9642001F00CFE7648BE
:1011F000008804F085FD81464FF08B4104F0D0FC5F
:10120000044604F082FD07464FF066326F4B04F04F
:1012100005FD054604F0A4FD65490860642001F061
:10122000F2FD6348006804F070FD0446614A624BB9
:1012300004F07EFD2BD25E48006804F066FD044693
:1012400022460B46AFF2B42104A805F0C7F80A21E4
:1012500001A8FFF73FF90421584802F02EF94FF496
:101260008051574802F029F92021564802F025F90B
:101270004FF48041534802F020F901214F4802F019
:101280001EF94FF480714E4802F019F92AE04848DF
:10129000006804F03AFD044622460B46AFF20C31DA
:1012A00004A805F09BF80A2101A8FFF713F9012112
:1012B000424802F004F94FF48071414802F0FFF80F
:1012C00004213E4802F0FBF84FF480513C4802F004
:1012D000F6F820213B4802F0F2F84FF480413948FB
:1012E00002F0EDF809B0BDE8F08310B504213348F1
:1012F00002F0E5F80821314802F0E1F810212F480A
:1013000002F0DDF820212D4802F0D9F810212C48F8
:1013100002F0D5F820212A4802F0D1F840212848CF
:1013200002F0CDF88021264802F0C9F84FF4807110
:10133000234802F0C4F84FF40071214802F0BFF8CE
:101340004FF480611E4802F0BAF84FF400611C4867
:1013500002F0B5F84FF48051194802F0B0F80121BD
:10136000184802F0ACF80221164802F0A8F804214F
:10137000144802F0A4F80821124802F0A0F8102145
:10138000104802F09CF820210E4802F098F8402105
:101390000C4802F094F880210A4802F090F84FF4CB
:1013A0008071084802F08BF84FF4007105480FE097
:1013B000E8000020CDCCCCCCCCCCEC3F000C0140E4
:1013C0000010014000140140F000002066660A4051
:1013D00002F075F84FF48061F74802F070F84FF4AE
:1013E0000061F54802F06BF84FF48051F24802F0CA
:1013F00066F84FF40051F04802F061F84FF4804174
:10140000ED4802F05CF84FF40041EB4802F057F869
:101410000121EA4802F053F80A21E9A0FFF75AF83F
:1014200010BD2DE9F041054600270024002628467E
:1014300004F0A2FB87B200BF11E0285D30280ADB70
:10144000285D392807DC285D06EB860100EB4100AA
:10145000303886B201E0FF2603E0601C84B2BC4253
:10146000EBDB00BF3046BDE8F081F0B58BB007463E
:1014700000200A900790089009900490059006902B
:101480000190029003900090FD1D28780A906D1C39
:1014900028782C2855D10AA804F075FBC6B2002480
:1014A0003FE0092000FB045001680191416802916E
:1014B0000089ADF80C009DF804002C282DD19DF872
:1014C0000D002C2803D09DF80D00292825D19DF86A
:1014D00008008DF800009DF809008DF801009DF8C6
:1014E0000A008DF80200684604F04DFB07A9085574
:1014F00030208DF800008DF801009DF80C008DF86B
:101500000200684604F03FFB04A9085504A8005DEA
:10151000012804DD00200BB0F0BD0020FBE7601CBB
:10152000C4B2B442BDDB002407E004AA115D07AADF
:10153000105DFFF724F8601CC4B2B442F5DB012053
:10154000E9E70020E7E72DE9FE4F0546002000907F
:1015500001900290002471E0285D28281BD1601CB6
:10156000C4B2002606E0285D0DF80600601CC4B277
:10157000701CC6B2285D2C28F5D16846FFF751FFD4
:1015800000F0FF08002604E000200DF80600701CA3
:10159000C6B20A2EF8DB00274CE0285D2C2847D184
:1015A000601CC4B200260CE0285D302807DB285DF3
:1015B000392804DC285D0DF80600701CC6B2601CDA
:1015C000C4B2285D3D28EFD16846FFF72AFF824666
:1015D000002604E000200DF80600701CC6B20A2E9A
:1015E000F8DB00260CE0285D302807DB285D392871
:1015F00004DC285D0DF80600701CC6B2601CC4B285
:10160000285D2C2802D0285D2928ECD16846FFF7F8
:1016100008FF00F0FF09002604E000200DF8060096
:10162000701CC6B20A2EF8DB49465046FEF7A7FFEB
:10163000781CC7B24745B0DB601CC4B2285D0028E7
:101640008AD1BDE8FE8F00B5062260496048FEF7EA
:1016500049FF08B1012000BD5C495E48FEF757FF15
:1016600008B1F720F7E759495B48FEF750FF08B18A
:10167000F820F0E755495948FEF749FF08B1F9202D
:10168000E9E752495648FEF742FF08B1FA20E2E77F
:101690004E495448FEF73BFF08B1FB20DBE74B49BE
:1016A0005148FEF734FF08B1FC20D4E747494F48C2
:1016B000FEF72DFF08B1FD20CDE744494C48FEF769
:1016C00026FF08B1FE20C6E740494A48FEF71FFF43
:1016D00008B1FF20BFE70020BDE770B5002400255A
:1016E00000260A2001F08FFBFFF7ADFF0446FB2C1C
:1016F00058D00CDCF82C40D004DC012C10D0F72C96
:1017000057D11DE0F92C3FD0FA2CF9D143E0FC2C45
:1017100050D0FD2C4FD0FE2C7ED0FF2CF0D1A7E076
:101720002A48FFF7A2FE0546012D04D10A213248BE
:10173000FEF7D0FE03E02F213048FEF7CBFEA5E0F8
:10174000FFF7D3FD08211D4801F0B7FE4FF480518B
:101750002B4801F0B2FE1021174801F0AEFE4FF405
:101760008041154801F0A9FE102126A0FEF7B2FE27
:101770000A212148FEF7AEFE88E0FFF7B6FD0A21F8
:101780001D48FEF7A7FE81E0FFF75CFA0A211A4820
:10179000FEF7A0FE7AE0FFF7EFFA0A211648FEF7FF
:1017A00099FE73E0FFF781FB0A211348FEF792FED2
:1017B0006CE066E031E037E000140140000C0140CD
:1017C0005245534554204F4B0D0A00005001002054
:1017D00014000020990000209100002086000020C5
:1017E0004700002056000020650000207600002001
:1017F000360000203D000020DA000020AA00002072
:1018000000100140466C6578207377697463682026
:101810006F6B0D0A000000000DE0FFF737FC0A2196
:101820001B48FEF757FE31E0FFF7C9FC0A211848B4
:10183000FEF750FE2AE006211648FEF74BFE09216E
:101840001548FEF747FE21211448FEF743FE072105
:101850001348FEF73FFE10211248FEF73BFE0A2117
:101860001148FEF737FE0A210948FEF733FE0DE066
:1018700024210EA0FEF72EFE0A210548FEF72AFEBF
:1018800004E02F211348FEF725FE00BF00BF70BD06
:10189000DA000020360000203D0000201400002067
:1018A000910000209900002086000020435947380D
:1018B0003435345F5377697463685F626F61726453
:1018C0005F56322E305F32303139303832330D0AC4
:1018D00000000000AA0000207FB505460C4601214B
:1018E000022002F006F8ADF80850ADF804400020E0
:1018F000ADF80A00ADF8060001A9204802F024F96D
:10190000012211461D4802F096FC1D208DF80000B2
:1019100002208DF801008DF8020001208DF80300EF
:10192000684601F054FC0121144802F069FC7FBDB7
:1019300010B50121114802F02CFFF0B101210F4830
:1019400002F038FF0E480068401C0D490860084648
:1019500000680A2805D100224FF48041094801F0AF
:10196000B0FD07480068142807D1012291030548FB
:1019700001F0A7FD00200249086010BD00040040EE
:10198000EC000020000C014008B50121084601F0E0
:1019900096FF01214FF4047001F09EFF0120ADF885
:1019A000000028208DF803006946394801F0D8FC72
:1019B00008BD00B591B0374803F090FF3648069057
:1019C00036480790002008900120099000200A90D6
:1019D0000B904FF480700C9080000D9020200E90A2
:1019E00000020F900020109006A92A4804F018F871
:1019F0000121284804F03FF8002001908DF80800EC
:101A000001208DF809004FF460200390002004901D
:101A100001208DF8140001A91F484C3803F0F9F893
:101A20004FF4404001F0BCFE052301220A211A4870
:101A30004C3803F086F9012117484C3803F020F99F
:101A4000012115484C3803F010F913484C3803F0C5
:101A50002EF900BF10484C3803F02EF90028F9D1B8
:101A60000D484C3803F032F900BF0B484C3803F0F6
:101A700032F90028F9D1012107484C3803F035F933
:101A800011B000BD10B5FFF77FFFFFF792FF10BD4B
:101A900000100140080002404C240140F0000020EA
:101AA00010B504464FF4847101EB4410102100F08E
:101AB00007FE00BF4FF4847101EB441000F008FEF4
:101AC0000028F7D14FF4027101EB4410FF2100F020
:101AD000F7FD10BD2DE9F04104460D461646984627
:101AE00005F00F0001280FD005F00F0002280BD0E1
:101AF00005F00F00032807D005F00F00042803D0DD
:101B000005F00F00052841D12046FFF7C9FF45EA3F
:101B10000801082202EB441000F0D2FD76B1310A30
:101B20004FF4816202EB441000F0CAFDF1B24FF4B1
:101B3000A16202EB441000F0C3FD15E0FE480088EE
:101B4000401CFD4908800A461288110A4FF4816240
:101B500002EB441000F0B4FDF74A11784FF4A16293
:101B600002EB441000F0ACFD4FF4847101EB441023
:101B7000012100F0A5FD00BF4FF4847101EB44107A
:101B800000F0A6FD0028F7D1012700E00027384625
:101B9000BDE8F08170B504464FF4427101EB44108A
:101BA00000F096FD132811D14FF4847101EB44101D
:101BB000022100F085FD00BF4FF4847101EB441059
:101BC00000F086FD0028F7D1012500E00025284619
:101BD00070BD2DE9F04105460C4616462078FF28D9
:101BE00008D16078FF2805D1A078FF2802D1E078DD
:101BF000FF2808D0207828B9607818B9A07808B9EB
:101C0000E07800B10EB900275CE00127217840F6AA
:101C1000084202EB451000F053FD617840F608528F
:101C200002EB451000F04CFDA17840F6086202EB93
:101C3000451000F045FDE17840F6087202EB4510D2
:101C400000F03EFD310A41F2080202EB451000F0BF
:101C500037FDF1B241F2081202EB451000F030FD01
:101C60004FF4847101EB4510042100F029FD00BF01
:101C70004FF4847101EB451000F02AFD0028F7D1E4
:101C800017E04FF4427101EB451000F021FD1728D9
:101C900000D116E0284600F0ECFA00F0080040B150
:101CA0004FF4027101EB4510082100F009FD0027F7
:101CB00007E04FF4427101EB451000F009FD1528D3
:101CC000DFD100BF3846BDE8F08110B504464FF4BF
:101CD000847101EB4410082100F0F2FC00BF4FF4C6
:101CE000847101EB441000F0F3FC0028F7D110BD23
:101CF0002DE9F04704468846164600250027A946E8
:101D0000204600F026FAB04204DA204600F021FA1C
:101D1000074600E0374600BF204600F0C7FA81467C
:101D20004FF4427101EB441000F0D2FC0546172D30
:101D300003D01C2D01D0002701E0B945ECDB00BF2A
:101D40003A464146204600F005FB4FF4847101EB12
:101D50004410202100F0B4FC00BF4FF4847101EB6B
:101D6000441000F0B5FC0028F7D113E04FF44271A5
:101D700001EB441000F0ACFC0546172D0AD01C2DD9
:101D800008D06EA004F01AFB2046FFF789FE002061
:101D9000BDE8F0874FF4027101EB441000F098FCAD
:101DA00000F010001028E1D14FF4027101EB441053
:101DB000102100F085FC4FF4027101EB441010215A
:101DC00000F07EFC3846E3E72DE9F04104460E467C
:101DD00015460027002D15DD2A463146204600F025
:101DE000F3FA4FF4847101EB4410402100F068FCD9
:101DF00000BF4FF4847101EB441000F069FC00282F
:101E0000F7D12F463846BDE8F0812DE9F04704466A
:101E1000894616461D46089F4FF00008204600F0F0
:101E200098F9B04204DA204600F093F9804600E0C9
:101E3000B046287828B9687818B9A87808B9E87839
:101E400000B117B94FF0000863E0297840F6084266
:101E500002EB441000F034FC697840F6085202EBC3
:101E6000441000F02DFCA97840F6086202EB441003
:101E700000F026FCE97840F6087202EB441000F00E
:101E80001FFC390A41F2080202EB441000F018FC72
:101E9000F9B241F2081202EB441000F011FC424684
:101EA0004946204600F056FA4FF4847101EB441085
:101EB000202100F005FC00BF4FF4847101EB4410B9
:101EC00000F006FC0028F7D112E04FF4027101EB9C
:101ED000441000F0FDFB00F0080048B14FF402711F
:101EE00001EB4410182100F0EBFB0020BDE8F08767
:101EF0004FF4027101EB441000F0EAFB00F0100017
:101F00001028E2D14FF4027101EB4410102100F0CF
:101F1000D7FB4046EAE72DE9FC5F05468A46914635
:101F20001E46DDF8308000270024A346B9F1000FDB
:101F300073DD42F608010DE01A0100202053454EE2
:101F4000445F4F4B2050726F626C656D21210D0A0A
:101F50000000000001EB451000F0BAFB044642F619
:101F6000081101EB451000F0B3FB00EB042084B234
:101F7000200200EB451000F1180B082101EB451081
:101F800000F0A6FB00F00700022804D0032845D08B
:101F9000042878D178E008226946584600F003FB0F
:101FA00004F1080084B29DF8000030709DF8010033
:101FB00070709DF80200B0709DF80300F0709DF8FD
:101FC0000400A8F800009DF8050098F8001000EB48
:101FD0000120A8F800009DF806709DF8070000EBAE
:101FE000072087B2200200EB451000F1180B3A469B
:101FF0005146584600F0D7FAE01984B2210A42F659
:10200000080202EB451000F05BFBE1B242F6081259
:1020100002EB451000F054FB6AE07AE006226946C4
:10202000584600F0C0FAA01D84B29DF80000307040
:102030009DF8010070709DF80200B0709DF80300DB
:10204000F0709DF804709DF8050000EB072087B242
:10205000200200EB451000F1180B3A465146584655
:1020600000F0A1FAE01984B2210A42F6080202EB5C
:10207000451000F025FBE1B242F6081202EB4510D4
:1020800000F01EFB34E032E002226946584600F0C0
:102090008AFAA01C84B29DF800709DF8010000EB44
:1020A0000720801E87B240F2EA50874204DD1AA062
:1020B00004F084F900BFFEE7200200EB451000F1B8
:1020C000180B3A465146584600F06DFAE01984B2B2
:1020D000210A42F6080202EB451000F0F1FAE1B2E3
:1020E00042F6081202EB451000F0EAFA00E000BFE9
:1020F00000BF4FF4847101EB4510402100F0E0FA7D
:1021000000BF4FF4847101EB451000F0E1FA0028A4
:10211000F7D13846BDE8FC9F20646174615F6C654F
:102120006E206F76657220313531340D0A00000063
:1021300010B504462146002000F0C2FA10BD10B5CB
:102140008020FFF7F5FF10BD0146ED4830F8110083
:1021500070470146EB4830F81100704710B504464F
:1021600004222146900100F001FA10BD10B504468A
:1021700004222146900100F016FA10BD10B5044665
:10218000042221464FF4A06000F0F0F910BD10B514
:102190000446062221464FF4106000F0E7F910BD16
:1021A00010B50446042221464FF4706000F0DEF9B9
:1021B00010BD10B50446042221464FF4A06000F083
:1021C000F2F910BD10B50446062221464FF4106006
:1021D00000F0E9F910BD10B50446042221464FF481
:1021E000706000F0E0F910BD10B54FF4A85000F099
:1021F0006FFA10BD10B50446210A4FF4C85000F024
:102200005FFAE1B24FF4D05000F05AFA10BD10B5A9
:10221000044621464FF4D85000F052FA10BD70B574
:102220000446FFF7E1FF60EA0400C5B229464FF417
:10223000A85000F045FA70BD70B504460D46290A55
:1022400041F2082202EB441000F03AFAE9B241F2FE
:10225000083202EB441000F033FA70BD70B504464A
:102260000D4641F2086101EB4410294600F028FABE
:1022700070BD10B504464FF4027101EB441000F03C
:1022800027FA10BD70B504460D464FF4027101EBFC
:102290004410294600F014FA70BD10B504464FF4FE
:1022A000427101EB441000F013FA10BD70B5044602
:1022B0000025002600BF42F2080101EB441000F0A7
:1022C00007FA064642F2081101EB441000F000FA4A
:1022D00000EB062086B27EB142F2080101EB441009
:1022E00000F0F6F9054642F2081101EB441000F047
:1022F000EFF900EB052085B2B542DCD1284670BD70
:1023000070B504460025002600BF42F2086101EBCB
:10231000441000F0DDF9064642F2087101EB44106A
:1023200000F0D6F900EB062086B27EB142F20861D9
:1023300001EB441000F0CCF9054642F2087101EBC4
:10234000441000F0C5F900EB052085B2B542DCD1A0
:10235000284670BD2DE9F04104460F46164600257B
:10236000A8462EB9214668A004F028F8BDE8F081FF
:1023700042F2084101EB441000F0AAF9054642F28E
:10238000085101EB441000F0A3F900EB052085B2E1
:10239000280200EB441000F110083246394640464E
:1023A00000F0E4F8A81985B2290A42F2084202EBCB
:1023B000441000F085F9E9B242F2085202EB4410F1
:1023C00000F07EF900BFD1E72DE9F04104460F4649
:1023D00016460025A8462EB9214653A003F0EEFF6D
:1023E000BDE8F08142F6080101EB441000F070F9FD
:1023F000054642F6081101EB441000F069F900EBC4
:10240000052085B2280200EB441000F1180832467E
:102410003946404600F0C7F8A81985B2290A42F6A5
:10242000080202EB441000F04BF9E9B242F6081240
:1024300002EB441000F044F900BFD1E72DE9F04170
:1024400005460E460027B846002433E0295D41F6D4
:10245000087202EB441000F033F9315D41F6086276
:1024600002EB441000F02CF90020264921F814005A
:10247000234921F81400B7F5804F07DC285D4FF69B
:10248000FF7101EA80201F4921F81400B8F5804F40
:1024900007DC305D4FF6FF7101EA8020184921F812
:1024A0001400184830F814000744154830F8140098
:1024B0008044641C082CC9DBBDE8F08110B54FF4E2
:1024C000385000F005F910BD10B50024FFF7F6FFF5
:1024D00000F001049CB91CA003F070FF0AE0FFF7B4
:1024E000EDFF00F001041FA003F068FF4FF4FA7045
:1024F00000F074F8002CF2D01BA003F05FFF10BDB9
:1025000060020020500200202043483A2025642029
:10251000556E657870656374656431206C656E67AF
:10252000746820300D0A00002043483A20256420BA
:10253000556E657870656374656432206C656E678E
:10254000746820300D0A0000200D0A20C7EBBCEC97
:10255000B2E9CDF8CFDFCAC7B7F1C1ACBDD33F0DEB
:102560000A000000202E0000200D0A002DE9FC4189
:1025700004460D461646200C8DF80400200A8DF8FE
:10258000050004F0F800001DC0B28DF80600F0B29E
:1025900003232A4601A90090012000F016FB0746FC
:1025A0003846BDE8FC812DE9FC4104460D4616463F
:1025B000200C8DF80400200A8DF8050004F0F800C6
:1025C0008DF80600F0B203232A4601A900900120ED
:1025D00000F05CFB07463846BDE8FC8110B50446B8
:1025E000204600F010FC10BD10B5002000F053F99B
:1025F0000220FFF7F3FF012000F04DF94FF4C8600F
:10260000FFF7ECFF10BD08B5704871490A68026019
:10261000898881806F490968C0F806106E49096889
:10262000C0F80A106D490968C0F80E106C490968B5
:10263000C0F812106BA003F0C1FE01206349887638
:1026400000216248C1760A30FFF798FD5F480E30DE
:10265000FFF784FD5D48801DFFF7A2FD5D48FFF791
:10266000BAFD5C48C07800905A4883784278017877
:1026700064A003F0A3FE5848FFF79BFD5648C078BE
:102680000090554883784278017866A003F096FE62
:102690005248FFF76BFD5148C07800904F4883784F
:1026A0004278017867A003F089FE08BD10B547485D
:1026B00047490A68026089888180FFF768FD10BD7C
:1026C00013B50446012201A92046FFF74FFF1CBDA8
:1026D00038B50446012269462046FFF764FF9DF89D
:1026E000000038BD70B504460D462A4621465D48B7
:1026F0000078FFF7FDFAC6B2304670BD70B5002411
:1027000058480078FFF7C9FD30B113280DD01728BD
:1027100010D01C284DD147E02023534802880121C6
:1027200050480078FFF7D6F943E04E480078FFF7AD
:1027300031FA3EE04B480078FFF79BFD00F00100C6
:1027400070B14848007818B90120FFF7A9F902E0F4
:102750000020FFF7A5F9012142480078FFF792FD1C
:1027600040480078FFF7CCFD0446002C1BDD2246D4
:102770003E493C480078FFF727FB00203B490855BD
:102780003BA003F01BFE621C38493B4803F0D0F924
:10279000FEF7A3FF002504E0002037494855681CD8
:1027A00085B2A542F8DB04E02E480078FFF778F9FF
:1027B00000BF00BF2B48007818B9012029490870D4
:1027C00002E000202749087070BD00007002002060
:1027D000040100200A0100200E0100201201002047
:1027E0001601002020CAB9D3C3B6A8D2E5B5C449A2
:1027F00050D0C5CFA2C5E4D6C357353530303A0DD9
:102800000A000000205735353030204950B5D8D661
:10281000B72020203A2025642E25642E25642E25FD
:10282000640D0A0020573535303020D7D3CDF8D18C
:10283000DAC2EB203A2025642E25642E25642E254D
:10284000640D0A0020573535303020CDF8B9D82036
:10285000202020203A2025642E25642E25642E2554
:10286000640D0A002D0100201A0100209E020020A4
:1028700025730D0A000000005001002010B5044629
:1028800024B90821274800F01AFE03E00821254852
:1028900000F013FE10BD10B5044624B904212148F0
:1028A00000F00DFE03E004211E4800F006FE10BDFE
:1028B00008B501210C2001F00FF801211A4800F0A1
:1028C00020FE0C20ADF8000010208DF80300012040
:1028D0008DF802006946134800F042FD0020FFF722
:1028E000DAFF0020FFF7CAFF4FF40050ADF80000F8
:1028F00010208DF8030001208DF8020069460B4876
:1029000000F02EFD08BD10B504462CB94FF400515F
:10291000064800F0D4FD04E04FF40051034800F0F5
:10292000CCFD10BD0008014000023000000C014049
:1029300008B510208DF8030003208DF80200102048
:10294000ADF800006946FA4800F00AFD1021F84889
:1029500000F0B3FD08BD00B587B00121042000F0F0
:10296000BBFF0121080300F0B7FF18208DF81B0002
:1029700003208DF81A002020ADF8180006A9EC48B5
:1029800000F0EEFC8020ADF8180006A9E84800F041
:10299000E7FC4020ADF8180004208DF81B0006A9C4
:1029A000E34800F0DDFC0020ADF804004FF4827035
:1029B000ADF806000020ADF808000220ADF80A00CE
:1029C0000120ADF80C004002ADF80E001020ADF86B
:1029D00010000020ADF812000720ADF8140001A986
:1029E000D44802F03DFB0121D24802F0DEFBFFF7A4
:1029F0009FFF07B000BD70B504460D460026012CB0
:102A000009D125B91021CA4800F059FD03E0102171
:102A1000C74800F052FD70BD2DE9F04781460D46D4
:102A2000164600214846FFF7E6FF2F464FF0000804
:102A30001BE04FF4FA643978BE4802F0E7FB09E086
:102A4000601E84B234B901214846FFF7D4FF01204B
:102A5000BDE8F0870221B74802F02BFC0028EFD038
:102A60007F1C08F101001FFA80F8B045E1DB4FF44C
:102A7000FA6408E0601E84B22CB901214846FFF7D1
:102A8000BAFF0120E4E78021AA4802F012FC0028E6
:102A9000F0D101214846FFF7AEFF0020D8E72DE92D
:102AA000F04704460E461746E0B20021FFF7A3FFA9
:102AB000B0464FF0000932E0C825FF219D4802F0E2
:102AC000A5FB09E0681E85B235B9E0B20121FFF728
:102AD00092FF0120BDE8F0870221964802F0E9FB51
:102AE0000028EFD04FF4FA6508E0681E85B22DB9D2
:102AF000E0B20121FFF77FFF0120EBE701218D48C4
:102B000002F0D7FB0028F0D08A4802F081FB88F859
:102B1000000008F1010809F101001FFA80F9B94528
:102B2000CADBE0B20121FFF766FF0020D2E72DE902
:102B3000F05F04460E4617469846E0B20021FFF7C4
:102B40005AFFB146BA464FF0000B36E04FF4FA6533
:102B500099F80010774802F059FB09E0681E85B229
:102B600035B9E0B20121FFF746FF0120BDE8F09F33
:102B70000221704802F09DFB0028EFD009F1010905
:102B80004FF4FA6508E0681E85B22DB9E0B2012164
:102B9000FFF731FF0120E9E70121664802F089FBD8
:102BA0000028F0D0634802F033FB8AF800000AF1F5
:102BB000010A0BF101001FFA80FBC345C6DBE0B23E
:102BC0000121FFF718FF0020D0E72DE9F05F8246D2
:102BD0000F4690469946DDF828B000215046FFF791
:102BE0000AFF3D46002619E04FF4FA64297851485F
:102BF00002F00CFB09E0601E84B234B9012150469A
:102C0000FFF7F9FE0120BDE8F09F0221494802F0DC
:102C100050FB0028EFD06D1C701C86B24E45E3DBE4
:102C20004546002618E04FF4FA642978414802F03E
:102C3000EDFA08E0601E84B22CB901215046FFF77E
:102C4000DAFE0120DFE702213A4802F032FB0028D9
:102C5000F0D06D1C701C86B25E45E4DB4FF4FA6464
:102C600008E0601E84B22CB901215046FFF7C3FE74
:102C70000120C8E780212F4802F01BFB0028F0D17B
:102C800001215046FFF7B7FE0020BCE72DE9F05FB9
:102C90000546884691469A46E8B20021FFF7ABFE0A
:102CA000C3464F4600262FE04FF4FA649BF800100D
:102CB000204802F0ABFA09E0601E84B234B9E8B2F1
:102CC0000121FFF798FE0120BDE8F09F022119487D
:102CD00002F0EFFA0028EFD00BF1010B08E0601EC4
:102CE00084B22CB9E8B20121FFF785FE0120EBE7A1
:102CF0000121104802F0DDFA0028F0D00D4802F062
:102D000087FA3870701C86B25645CDDB002632E05B
:102D10004FF4FA640021074802F078FA0CE0601ED4
:102D200084B24CB9E8B20121FFF765FE0120CBE780
:102D300000080140003001400221134802F0B9FAB6
:102D40000028ECD04FF4FA6408E0601E84B22CB97D
:102D5000E8B20121FFF74FFE0120B5E701210A4843
:102D600002F0A7FA0028F0D0074802F051FA3870B4
:102D70007F1C701C86B20A988642C9DBE8B201212A
:102D8000FFF739FE00209FE70030014010B56FF0DB
:102D9000040000F066FA2E4800682E49B0FBF1F0FE
:102DA0002D4908700846007800EB4001C1EBC010C7
:102DB0004FF6FF7101EAC0002849088010BD0146A6
:102DC000254A12784A434FF0E0235A6100229A6163
:102DD0001A46126942F001021A6100BF4FF0E02268
:102DE000106900F001021AB100F48032002AF5D017
:102DF0004FF0E022126922F001024FF0E0231A6145
:102E000000229A6170470146144A12884A434FF0E3
:102E1000E0235A6100229A611A46126942F00102C7
:102E20001A6100BF4FF0E022106900F001021AB1F0
:102E300000F48032002AF5D04FF0E022126922F02F
:102E400001024FF0E0231A6100229A6170470000EE
:102E50000000002000127A002E0100203001002026
:102E600008B50121782000F037FD0121092000F08C
:102E700033FD0121264800F044FB4FF46040ADF8DB
:102E8000000010208DF8030003208DF80200694631
:102E9000204800F065FA4FF460411E4800F00DFB39
:102EA0003D20ADF8000010208DF8030003208DF8C0
:102EB00002006946174800F053FA3D21154800F01A
:102EC000FEFA41F6F070ADF8000010208DF8030016
:102ED00003208DF8020069460F4800F041FA41F6E0
:102EE000F0710D4800F0EBFA4FF6FF70ADF80000FE
:102EF00010208DF8030003208DF802006946074872
:102F000000F02EFA4FF6FF71044800F0D8FA08BD21
:102F100000023000000C014000100140001401408C
:102F200070B504460D4693480088E1B2914801F01F
:102F300081FD00BF40218F4801F0EAFD0028F9D053
:102F4000204670BD08B50121042000F0C5FC4FF4F7
:102F50000070ADF8000003208DF8020018208DF8F5
:102F600003006946844800F0FBF94FF48060ADF837
:102F7000000004208DF8030069467F4800F0F0F956
:102F800008BD10B58CB004460121084600F097FC3E
:102F90000E208DF82C0003208DF82D0002208DF8D6
:102FA0002E0001208DF82F000BA800F010F97348B7
:102FB00002F094FC6F48001D0090019400200290E4
:102FC000FF200390002004908020059000200690B0
:102FD000079008904FF44050099000200A906946ED
:102FE000664802F01DFD0121644802F044FD012203
:102FF0004021604801F0E2FC0CB010BD10B586B075
:1030000004460121880300F067FC5A4801F0D6FB12
:10301000FFF798FF25208DF8040002208DF80500A9
:103020008DF8060001208DF8070001A800F0CFF808
:1030300002940020ADF80C00ADF80E00ADF81000C1
:10304000ADF814000C20ADF8120002A9494801F0B7
:10305000F8FB012240F22441464801F08AFC01219C
:10306000444801F07AFC4648FFF78BFF4021414875
:1030700001F04EFD06B010BD70B505462C460BE0C4
:1030800014F8011B3B4801F0D5FC00BF4021394832
:1030900001F03EFD0028F9D020780028F0D170BD65
:1030A00010B504462146334801F0C4FC00BF40215E
:1030B000304801F02DFD0028F9D010BD2DE9F04178
:1030C00004460D460026274600BF0CE017F8011BFA
:1030D000284801F0AFFC00BF4021264801F018FD50
:1030E0000028F9D0761CAE42F0D3BDE8F08170B56F
:1030F0000025002440F224411E4801F01FFD002855
:1031000036D01C480588001D058800211B4802F0A8
:10311000B2FC1A4802F0C6FCC0F1FF05194800785D
:1031200090B919490D7000BF08E01548005D1749B6
:103130000855002012490855601C84B2AC42F4D3F3
:103140000120104908700BE0002404E000200C4925
:103150000855601C84B2AC42F8D30DA0FFF78CFF79
:10316000FF21064802F09CFC0121044802F083FC88
:1031700070BD0000003801400008014058000240C6
:103180009D0B002032010020330100209E0A002008
:103190004D43552069732042757379210D0A000053
:1031A0000648804706480047FEE7FEE7FEE7FEE7E1
:1031B000FEE7FEE7FEE7FEE7FEE7FEE7D3030008D3
:1031C0003101000831490143314A1160704770B53F
:1031D000002100230F22C47804B32D4C246804F48A
:1031E000E064C4F5E064210AC1F10403CA404478F4
:1031F00004FA03F18478144021430901254C067830
:10320000A155047804F01F050124AC4005786D1128
:10321000AD0005F1E025C5F8004109E0047804F0AF
:103220001F050124AC401C4D0678761145F8264058
:1032300070BD1A4A0A400243154B1B1F1A607047A3
:1032400039B1134A121D12680243114B1B1D1A603B
:1032500006E00F4A121D126882430D4B1B1D1A60B7
:103260007047042808D14FF0E021096941F00401BA
:103270004FF0E022116107E04FF0E021096921F0F1
:1032800004014FF0E0221161704700000000FA05D0
:103290000CED00E000E400E080E100E080FFFF1FB3
:1032A00010B50446CC48844208D10121042000F026
:1032B0002DFB0021042000F029FB46E0C748844292
:1032C00008D10121082000F021FB0021082000F096
:1032D0001DFB3AE0C248844208D10121102000F0D1
:1032E00015FB0021102000F011FB2EE0BD488442A8
:1032F00008D10121202000F009FB0021202000F04E
:1033000005FB22E0B848844208D10121402000F0AA
:10331000FDFA0021402000F0F9FA16E0B34884429B
:1033200008D10121802000F0F1FA0021802000F076
:10333000EDFA0AE0AE48844207D10121801500F081
:10334000E5FA0021A01500F0E1FA10BD10B5012149
:10335000084600F0DBFA0021012000F0D7FA10BD8A
:103360002DE9F0410246002500260020002300241C
:10337000002791F803C00CF00F0591F803C00CF082
:10338000100CBCF1000F03D091F802C04CEA050507
:1033900091F800C0BCF1000F31D0146800202BE080
:1033A0004FF0010C0CFA00F3B1F800C00CEA030670
:1033B0009E4220D183004FF00F0C0CFA03F7BC4360
:1033C00005FA03FC4CEA040491F803C0BCF1280F91
:1033D00006D14FF0010C0CFA00FCC2F814C00AE050
:1033E00091F803C0BCF1480F05D14FF0010C0CFA65
:1033F00000FCC2F810C0401C0828D1D31460B1F8FA
:1034000000C0BCF1FF0F34DD546800202EE000F155
:10341000080C4FF0010808FA0CF3B1F800C00CEAF0
:1034200003069E4221D183004FF00F0C0CFA03F7E4
:10343000BC4305FA03FC4CEA040491F803C0BCF158
:10344000280F05D100F1080C08FA0CF8C2F8148016
:1034500091F803C0BCF1480F07D100F1080C4FF000
:10346000010808FA0CF8C2F81080401C0828CED3D6
:103470005460BDE8F0814FF6FF7101800221817038
:103480000421C17070470246002093680B400BB1C5
:10349000012000E0002070470146886880B2704734
:1034A00002460020D3680B400BB1012000E0002051
:1034B00070470146C86880B270470161704741613A
:1034C00070470AB1016100E041617047C160704717
:1034D0004FF480320A43826181618261826982692C
:1034E000704702460020434B18684FF6807318401F
:1034F00040EA021008433F4B186070473E49C861DC
:103500007047F0B50A46002300240021002500F092
:103510000046B6F1004F02D1364EF16901E0354E5A
:103520007168C0F3034583B200F44016B6F5401F3E
:1035300008D121F070612F4E766826F070662D4F0D
:103540007E6012E000F48016B6F5801F06D10326D7
:1035500006FA05F4A14341F0706106E0460D36011C
:1035600003FA06F6B14341F0706122B1460D36010F
:1035700003FA06F6314300F00046B6F1004F02D1DF
:103580001C4EF16101E01B4E7160F0BD30B50022B0
:103590008B071C0F0F2303FA04F2164B08338C1011
:1035A00053F824309343134C08348D1044F82530DD
:1035B00023468C1053F824308C07240F00FA04F4AF
:1035C00023430C4C08348D1044F8253030BD0A4993
:1035D000DC3108607047000000080140000C014029
:1035E000001001400014014000180140001C01407F
:1035F000002001400000014000002042DF48006838
:1036000040F00100DD49086008464068DC49084098
:10361000DA49486008460068DA490840D749086036
:103620000846006820F4802008600846406820F4BE
:10363000FE0048604FF41F0088607047CF4909685A
:1036400021F48031CD4A11601146096821F48021AE
:103650001160B0F5803F03D0B0F5802F0ED106E0A9
:10366000C649096841F48031C44A116007E0C34982
:10367000096841F4A021C14A116000E000BF00BF09
:10368000704710B501460022002300204A11012A8C
:1036900002D1BA4C236806E0022A02D1B74C236A51
:1036A00001E0B64C636A01F01F02012494401C4003
:1036B0000CB1012000E0002010BD38B500200090C2
:1036C0000024002500BF3120FFF7DBFF05460098EE
:1036D000401C00900098B0F5A06F01D0002DF2D0F2
:1036E0003120FFF7CEFF08B1012400E0002420467E
:1036F00038BD01460020A14A106820F0F80040EAD9
:10370000C10010607047A049086070470246002061
:103710009A4B586820F47C1042EA01031843974BF7
:103720005860704798490866704701460020934AE0
:10373000506820F003000843506070478F4840688D
:1037400000F00C007047014600208C4A506820F0C1
:10375000F00008435060704701460020874A5068D7
:1037600020F4E06008435060704701460020834A1F
:10377000506820F4605040EAC1005060704729B1A1
:103780007E4A527A02437D4B5A7204E07B4A527A57
:1037900082437A4B5A7270477B49D8310860704730
:1037A00001460020754A506820F4404008435060AC
:1037B00070470021714A20321170704A82F820103F
:1037C000012802D004280AD104E001216B4A2032EA
:1037D000117005E00521694A2032117000E000BF38
:1037E00000BF70476949086070476449096A01432E
:1037F000624A11627047654944390860704730B5C4
:1038000000210022002400235C4D6D6805F00C01AE
:1038100021B1042905D0082923D105E05C4D0560BC
:1038200022E05B4D05601FE0544D6D6805F4701299
:10383000524D6D6805F48034022505EB92421CB9A7
:10384000544D554305600BE04C4D6D6805F4003553
:103850001DB1504D5543056002E04D4D5543056087
:1038600002E04B4D056000BF00BF444D6D6805F0A0
:10387000F0010909484D6B5C0568DD4045603F4D2E
:103880006D6805F4E061090A434D6B5C4568DD40F5
:1038900085603A4D6D6805F46051C90A3E4D6B5C18
:1038A0004568DD40C560354D6D6805F44041890BC4
:1038B0003A4D6B5CC568B5FBF3F5056130BD29B1C8
:1038C0002E4A526902432D4B5A6104E02B4A526939
:1038D00082432A4B5A61704729B1284A92690243B0
:1038E000264B9A6104E0254A92698243234B9A61F0
:1038F000704729B1214AD2690243204BDA6104E0C2
:103900001E4AD26982431D4BDA61704729B11B4AB6
:10391000D2680243194BDA6004E0184AD268824345
:10392000164BDA60704729B1144A12690243134BEF
:103930001A6104E0114A12698243104B1A61704700
:1039400012494039086070470F49C86470470B49F5
:10395000C87170470948406A40F080700749486262
:10396000704701460020054A92680A400AB10120CA
:1039700000E0002070470149887270470010024043
:103980000000FFF8FFFFF6FE0000424280044242C2
:1039900000127A0000093D0034010020440100209B
:1039A00010B50446FE48844208D10121C014FFF737
:1039B000ADFF0021E014FFF7A9FFC4E0B4F1804F90
:1039C00008D101210846FFF7AEFF00210120FFF7D3
:1039D000AAFFB8E0F348844208D101210220FFF792
:1039E000A2FF00210220FFF79EFFACE0EE488442D8
:1039F00008D101210420FFF796FF00210420FFF7E2
:103A000092FFA0E0E948844208D101210820FFF795
:103A10008AFF00210820FFF786FF94E0E4488442F3
:103A200008D101211020FFF77EFF00211020FFF7B1
:103A30007AFF88E0DF48844208D101212020FFF787
:103A400072FF00212020FFF76EFF7CE0DA488442FD
:103A500008D101214014FFF759FF00216014FFF73E
:103A600055FF70E0D548844209D10121C804FFF711
:103A70004DFF00214FF40020FFF748FF63E0D048DE
:103A8000844209D101210805FFF740FF00214FF4CE
:103A90008010FFF73BFF56E0CA48844209D101215C
:103AA0004805FFF733FF00214FF40010FFF72EFF0A
:103AB00049E0C548844208D101214020FFF733FF87
:103AC00000214020FFF72FFF3DE0C048844208D18D
:103AD00001218020FFF727FF00218020FFF723FF2F
:103AE00031E0BB48844208D101218015FFF71BFF5C
:103AF0000021A015FFF717FF25E0B648844209D141
:103B000001210804FFF702FF00214FF48030FFF786
:103B1000FDFE18E0B048844209D101214804FFF7B6
:103B2000F5FE00214FF40030FFF7F0FE0BE0AB484C
:103B3000844208D101218804FFF7E8FE00214FF4F8
:103B40008020FFF7E3FE10BD00220288944B9842CC
:103B50000ED0994B98420BD0B0F1804F08D0914BCA
:103B6000984205D0904B984202D0904B984204D195
:103B70004FF68F731A404B881A438D4B984207D0EB
:103B80008C4B984204D04FF6FF431A40CB881A431F
:103B900002808B8883850B880385814B98420BD0EC
:103BA000854B984208D08B4B984205D08A4B98425F
:103BB00002D08A4B984201D10B7A0386012383827B
:103BC000704770B5002400220023058C4FF6FE7666
:103BD00035400584028C8388048B4FF68F752C400A
:103BE000B51E2C400D882C43751E2A400D892A4392
:103BF0004D882A436A4DA8420BD06F4DA84208D089
:103C0000744DA84205D0744DA84202D0734DA8420D
:103C100013D14FF6F7752A404D892A434FF6FB75AD
:103C20002A408D882A434FF6FF652B404FF6FF55FB
:103C30002B408D892B43CD892B4383800483CD88F2
:103C40008586028470BD70B5002400220023058C97
:103C50004FF6EF7635400584028C8388048B48F656
:103C6000FF752C404FF6FF452C400D884FF6FF7630
:103C700006EA05252C434FF6DF752A400D8906EA32
:103C800005152A434D8806EA05152A43444DA842E6
:103C900002D0494DA8421DD14FF67F752A404D896B
:103CA0004FF6FF7606EA05152A434FF6BF752A4000
:103CB0008D8806EA05152A434FF6FF352B404FF253
:103CC000FF752B408D8906EA85052B43CD8906EAD1
:103CD00085052B4383800483CD880587028470BDCE
:103CE00070B5002400220023058C4FF6FF66354096
:103CF0000584028C8388848B4FF68F752C404FF699
:103D0000FC752C400D882C434FF6FF552A400D8939
:103D10004FF6FF7606EA05252A434D8806EA052573
:103D20002A431F4DA84202D0234DA8421DD14FF275
:103D3000FF752A404D894FF6FF7606EA05252A438E
:103D40004FF6FF352A408D8806EA05252A434EF6B0
:103D5000FF752B404DF6FF752B408D8906EA051542
:103D60002B43CD8906EA05152B4383808483CD88B8
:103D70008587028470BD70B5002200230024058C65
:103D80004EF6FF7635400584038C8488828B48F696
:103D9000FF752A404FF6FF452A400D8820E00000BD
:103DA000002C01400004004000080040000C0040CE
:103DB000001000400014004000340140004C01405D
:103DC000005001400054014000180040001C004019
:103DD00000200040004001400044014000480140F4
:103DE0004FF6FF7606EA05252A434DF6FF752B4070
:103DF0000D8906EA05352B434D8806EA05352B4328
:103E0000FA4DA84202D0FA4DA84208D14BF6FF75F0
:103E10002C408D894FF6FF7606EA85152C43848069
:103E20008283CD88A0F84050038470BD828B4FF20E
:103E3000FF331A408283828B4FF6FF7303EA01231C
:103E40001A4382837047F0B50C46154600220021C4
:103E50000026078C4EF6FF7C07EA0C070784828B4E
:103E6000018C4FF6FF7707EA043640F6FF473A40E9
:103E70004FF6FF7707EA05273A434FF6FF7707EA41
:103E800003373A43D94FB8420ED0D94FB8420BD07E
:103E9000B0F1804F08D0D74FB84205D0D64FB842C6
:103EA00002D0D64FB84206D14DF6FF77394046F4DE
:103EB0008057394305E047F6FF57394044F48057AF
:103EC000394382830184F0BD828B4FF6F3731A402D
:103ED0008283828B0A4382837047F0B50C46154675
:103EE000002200210026078C4FF6FF6C07EA0C0722
:103EF0000784828B018C4FF6FF7707EA04264FF682
:103F00000C773A404FF6FF7707EA03172F433A43FF
:103F1000B64FB8420ED0B64FB8420BD0B0F1804F7A
:103F200008D0B44FB84205D0B34FB84202D0B34F17
:103F3000B84206D14FF6FF57394046F480773943EF
:103F400005E04FF2FF57394044F4807739438283CC
:103F50000184F0BD028B4FF2FF331A400283028BC3
:103F60004FF6FF7303EA01231A4302837047F0B54B
:103F70000C461546002200210026078C4FF6EF7CE8
:103F800007EA0C070784028B018C4FF6FF7707EADC
:103F9000041640F6FF473A404FF6FF7707EA03372B
:103FA0003A434FF6FF7707EA05273A438F4FB84267
:103FB0000ED08F4FB8420BD0B0F1804F08D08D4F4C
:103FC000B84205D08C4FB84202D08C4FB84206D1CF
:103FD0004FF6DF77394046F01007394305E04FF6DA
:103FE0005F77394044F01007394302830184F0BD04
:103FF000028B4FF6F3731A400283028B0A4302834B
:104000007047F0B50C46154600220021068C4FF68D
:10401000FE773E400684028B018C4FF60C763240D0
:104020007E1C06EA03162E433243704EB0420ED079
:104030006F4EB0420BD0B0F1804F08D06D4EB04201
:1040400005D06D4EB04202D06C4EB04206D14FF654
:10405000FD76314044F00106314305E04FF6F57638
:10406000314044F00106314302830184F0BD70B554
:1040700005460C465D4885420ED05D4885420BD012
:10408000B5F1804F08D05B48854205D05A4885423B
:1040900002D05A48854200D100E000BF208850B9C4
:1040A0002389A28861882846FFF7ABFFE18828466C
:1040B000FFF79EFF25E0208804280AD12389A288E3
:1040C00061882846FFF753FFE1882846FFF742FF43
:1040D00017E0208808280AD12389A2886188284609
:1040E000FFF7FBFEE1882846FFF7EEFE09E0238993
:1040F000A28861882846FFF7A6FEE1882846FFF7D8
:1041000095FE70BD2DE9F04105460C4600260127BD
:10411000608808B9022600E00026A088012801D1A5
:10412000022700E001272088A0B92389A28861889E
:104130002846FFF766FFE1882846FFF759FF2389E5
:104140003A4631462846FFF712FFE1882846FFF736
:1041500001FF13E02389A28861882846FFF707FF43
:10416000E1882846FFF7F6FE23893A46314628467D
:10417000FFF747FFE1882846FFF73AFFBDE8F081E7
:104180000A884B881A438B881A43CB881A430B89B9
:104190001A434B891A438B891A43A0F8442070476D
:1041A0004FF6FF71818000210180C1804180017242
:1041B00070470021018041808180C180018141815F
:1041C0008181C1817047002101804180012181806E
:1041D0000021C180018170470021018041808180E0
:1041E000C18001814181818170470000002C014024
:1041F000003401400004004000080040000C004072
:1042000021B1028842F00102028004E002884FF6E8
:10421000FE731A400280704731B1B0F8442042F476
:104220000042A0F8442005E0B0F84420C2F30E029A
:10423000A0F8442070471AB183890B43838102E0C0
:1042400083898B43838170478182704741EA0203EF
:10425000A0F8483070471AB183890B43838102E08C
:1042600083898B438381704701894FF6F87211402F
:10427000018170470A46002101894FF68F7319406A
:1042800011430181704730B504460D46294620464A
:10429000FFF7F0FF208940F00700208130BD2DE9B5
:1042A000F04104460D4616461F46602D06D13B469A
:1042B000012231462046FFF75AFE05E03B46012227
:1042C00031462046FFF79DFE29462046FFF7D2FFE4
:1042D000208940F007002081BDE8F08130B50C4610
:1042E00000210189C9B24FF6FF7505EA0325154380
:1042F00025432943018130BD2DE9F04105460E4695
:1043000017469846002443463A4631462846FFF76A
:10431000E5FF2C894FF6F870044044F007044FF68F
:104320008F70044044F070042C81BDE8F081F0B53A
:1043300004460D4616461F463B4632462946204651
:10434000FFF7CCFF208940F480402081F0BD01853B
:10435000828270470A46002101884FF68F73194008
:10436000114301807047F0B50C4615461E460021EA
:10437000002200230189028B038C4FF6F877394025
:1043800021434FF6FC473A4040F201173A434FF6BB
:10439000DD773B404FF6FF7707EA06172F433B4395
:1043A000018102830384F0BD0A460021018B4FF690
:1043B0008F7319401143018370470A460021018B16
:1043C00048F6FF7319404FF6FF7303EA02231943BF
:1043D000018370470A460021818B4FF68F73194085
:1043E0001143818370470A460021818B48F6FF7391
:1043F00019404FF6FF7303EA022319438183704784
:1044000021B1028842F08002028004E002884FF667
:104410007F731A400280704721B1828842F0040203
:10442000828004E082884FF6FB731A4082807047D6
:1044300021B1828842F00802828004E082884FF62F
:10444000F7731A408280704721B1828842F00102DE
:10445000828004E082884FF6FE731A4082807047A3
:104460000A460021018B4FF6F7731940114301836F
:1044700070470A460021018B4FF2FF7319404FF637
:10448000FF7303EA02231943018370470A460021A0
:10449000818B4FF6F77319401143818370470A46A9
:1044A0000021818B4FF2FF7319404FF6FF7303EA2F
:1044B00002231943818370470A460021018B4FF67E
:1044C000FB7319401143018370470A460021018B99
:1044D0004FF6FF3319404FF6FF7303EA02231943E7
:1044E000018370470A460021818B4FF6FB73194008
:1044F0001143818370470A460021818B4FF6FF33B9
:1045000019404FF6FF7303EA022319438183704772
:104510000A460021018B4FF67F7319401143018336
:1045200070470A460021018BC1F30E014FF6FF735D
:1045300003EA02231943018370470A460021818B55
:104540004FF67F7319401143818370470A4600215B
:10455000818BC1F30E014FF6FF7303EA0223194367
:10456000818370470A460021018C4FF6FD73194084
:104570001143018470470A460021018C4FF6F773FE
:1045800019401143018470470A460021018C4FF6FF
:10459000DF7319404FF6FF7303EA021319430184D6
:1045A00070470A460021018C4FF67F7319404FF681
:1045B000FF7303EA02131943018470470A4600217E
:1045C000018C4FF6FF5319404FF6FF7303EA0223A5
:1045D0001943018470470A460021018C4FF2FF7392
:1045E00019404FF6FF7303EA022319430184704711
:1045F0000A460021018C4DF6FF7319404FF6FF73F8
:1046000003EA023319430184704730B500230124C3
:104610008C40A3B2048C9C430484048C02FA01F500
:10462000ADB22C43048430BD30B5002304248C404B
:10463000A3B2048C9C430484048C02FA01F5ADB24D
:104640002C43048430BD70B5034600200024184676
:10465000183001258D40ACB21D8CA5431D8409B1D5
:10466000082909D100EB6100056825F07005056097
:104670000568154305600EE00D1FC5F34E0528447F
:10468000056825F4E045056005684FF6FF7606EA03
:1046900002263543056070BD21B1028842F0020256
:1046A000028004E002884FF6FD731A4002807047D2
:1046B00021B1028842F00402028004E002884FF631
:1046C000FB731A400280704721B1828842F0800259
:1046D000828004E082884FF67F731A4082807047A0
:1046E00002884FF6F7731A40028002880A4302805C
:1046F000704782884FF68F731A40828082880A43FF
:104700008280704702894FF6F8731A40028102894D
:104710000A430281704702894FF67F731A40028173
:1047200002890A43028170478184704781857047FE
:10473000818670470187704781877047A0F84010D5
:10474000704702884FF6FF431A40028002880A43EE
:10475000028070470146888E70470146088F704777
:104760000146888F70470146B1F840007047014606
:10477000888C70470146088D704702460020138AD6
:104780000B400BB1012000E000207047CA430282B9
:10479000704730B50246002000230024158A05EA40
:1047A0000103958905EA010413B10CB1012000E071
:1047B000002030BDCA4302827047000010B5044695
:1047C000FB48844209D101218803FFF79FF80021AB
:1047D0004FF48040FFF79AF832E0F648844209D15E
:1047E00001214804FFF79FF800214FF40030FFF744
:1047F0009AF825E0F048844209D101218804FFF7A6
:1048000092F800214FF48020FFF78DF818E0EB4874
:10481000844209D10121C804FFF785F800214FF433
:104820000020FFF780F80BE0E548844208D1012121
:104830000805FFF778F800214FF48010FFF773F8B0
:1048400010BD2DE9F04786B005460E460024A2466D
:1048500000BFA1460027B08900B100BF2F462C8AB7
:104860004CF6FF700440F08804432C82AC894EF66D
:10487000F3100440B0883189084371890843044328
:10488000AC81AC8A4FF6FF400440B0890443AC824F
:1048900001A8FEF7B4FFC648874202D1DDF810A098
:1048A00001E0DDF80CA0A88900F4004040B10AEB5B
:1048B000CA0000EB0A1031684900B0FBF1F807E0CC
:1048C0000AEBCA0000EB0A1031688900B0FBF1F86E
:1048D0006420B8FBF0F004012009642101FB108979
:1048E000A88900F4004040B1322000EBC900B0FBC1
:1048F000F1F000F00700044308E0322000EB09105B
:104900006421B0FBF1F000F00F0004432C8106B0ED
:10491000BDE8F0874FF41651016000218180C1800D
:1049200001810C21418100218181704710B502462F
:104930000020108A4FF2FF0318400B884C88234355
:104940008C882343CC8823431843108210BD002158
:10495000018041808180C180704721B1828942F409
:104960000052828104E082894DF6FF731A408281F1
:104970007047F0B50346002400260025002040F6CD
:104980006A17B94200D100BF1846C1F3421401F0C2
:104990001F06012707FA06F5012C01D10C3004E0AF
:1049A000022C01D1103000E014301AB107682F43F7
:1049B000076002E00768AF430760F0BD1AB1838A61
:1049C0000B43838202E0838A8B4383827047028A8F
:1049D0004FF6F0731A400282028A0A43028270473D
:1049E00082894FF2FF731A40828182890A43828151
:1049F000704721B1828942F00202828104E08289FB
:104A00004FF6FD731A4082817047028A4FF6DF73BA
:104A10001A400282028A0A430282704721B1028A46
:104A200042F48042028204E0028A4BF6FF731A408D
:104A300002827047C1F3080282807047014688886D
:104A4000C0F308007047818941F0010181817047FE
:104A5000028BD2B20283028B42EA012202837047A8
:104A6000028B02F47F420283028B0A430283704767
:104A700021B1828A42F02002828204E0828A4FF6CB
:104A8000DF731A408282704721B1828A42F010029D
:104A9000828204E0828A4FF6EF731A408282704766
:104AA00021B1828A42F00802828204E0828A4FF6B3
:104AB000F7731A408282704721B1828942F4004222
:104AC000828103E08289C2F30E028281704721B1A4
:104AD000828A42F40062828204E0828A4FF2FF738B
:104AE0001A4082827047828A4FF6FB731A40828294
:104AF000828A0A438282704721B1828A42F002028E
:104B0000828204E0828A4FF6FD731A4082827047E7
:104B100002460020B1F5007F00D100BF13880B4092
:104B20000BB1012000E00020704701F40072B2F5E3
:104B3000007F00D100BFCA430280704770B50246B3
:104B4000002400230025002040F66A16B14200D15F
:104B500000BFC1F3421501F01F03012606FA03F35B
:104B6000012D02D19689334006E0022D02D1168A2A
:104B7000334001E0968A33400C12012606FA04F411
:104B80001688344013B10CB1012000E0002070BD44
:104B900010B50022002340F66A14A14200D100BFE4
:104BA0000A1201249440A3B2DC43048010BD00002B
:104BB000003801400044004000480040004C0040E4
:104BC0000050004010B50446FA48844208D1012143
:104BD0004015FEF79BFE00216015FEF797FE17E0DB
:104BE000F548844208D101210015FEF78FFE00210F
:104BF0002015FEF78BFE0BE0F048844208D101211E
:104C0000C803FEF783FE00214FF40040FEF77EFE4E
:104C100010BD30B50246002000235068E84C20400B
:104C20000D790C6844EA0524204350609068E54CF7
:104C30002040D1E902542C434D7944EA45042043F5
:104C40009060D06A20F470000C7C641EE4B22343B0
:104C500040EA0350D06230BD002101600171417112
:104C60008160C16001210174704721B1826842F006
:104C70000102826003E0826822F0010282607047D4
:104C800021B1826842F48072826003E0826822F47B
:104C900080728260704710B50023CBB21AB14468AD
:104CA0001C43446002E044689C43446010BD81683A
:104CB00041F0080181607047014600208A6802F0D7
:104CC00008020AB1012000E000207047816841F02D
:104CD000040181607047014600208A6802F00402E6
:104CE0000AB1012000E00020704721B1826842F43F
:104CF000A002826003E0826822F4A0028260704712
:104D0000014600208A6802F480020AB1012000E016
:104D10000020704710B50A4600210023416821F4A5
:104D20006041531E41EA4331416010BD21B14268E8
:104D300042F40062426003E0426822F40062426092
:104D40007047F0B504460D4600200021092D11DD05
:104D5000E068A5F10A0606EB4607072606FA07F102
:104D60008843A5F10A0606EB460603FA06F1084356
:104D7000E0600CE0206905EB4507072606FA07F11D
:104D8000884305EB450603FA06F108432061072A2C
:104D90000FDA606B561E06EB86071F2606FA07F130
:104DA0008843561E06EB860605FA06F10843606343
:104DB00022E00D2A0FDA206BD61F06EB86071F268E
:104DC00006FA07F18843D61F06EB860605FA06F1B8
:104DD0000843206310E0E06AA2F10D0606EB8607A7
:104DE0001F2606FA07F18843A2F10D0606EB860698
:104DF00005FA06F10843E062F0BD21B1826842F491
:104E00008012826003E0826822F480128260704720
:104E10000146C86C80B2704766484C3000687047E5
:104E200021B1426842F48062426003E0426822F4A9
:104E300080624260704721B1426842F48052426011
:104E400003E0426822F48052426070470A46002123
:104E5000816821F4E04111438160704721B182688B
:104E600042F40042826003E0826822F400428260E1
:104E7000704721B1826842F40212826003E08268C6
:104E800022F4021282607047014600208A6802F410
:104E900000120AB1012000E000207047F0B504467E
:104EA0001546002000220026092911DDE068A1F145
:104EB0000A0707EB470C072707FA0CF29043A1F10A
:104EC0000A0707EB470703FA07F21043E0600CE01C
:104ED000206901EB410C072707FA0CF2904301EB24
:104EE000410703FA07F210432061A06BC0F301569B
:104EF000EF1C06F1010CA7EB0C0707EB870C1F2733
:104F000007FA0CF29043EF1C06F1010CA7EB0C071B
:104F100007EB870701FA07F21043A063F0BD10B555
:104F20000A4600210023816B21F44011531E41EAFF
:104F30000351816310BD08B5002300930090009BCE
:104F40000B440093009B1A6008BD08B50246002080
:104F50000090009201F12800009B184400900098F6
:104F6000006880B208BD0A4600214168164B19400E
:104F70001143416070474162826270470A460021D6
:104F8000416821F01F0111434160704740B1094958
:104F90000831096841F40001064A0832116007E04F
:104FA00004490831096821F40001024A08321160FD
:104FB000704700000024014000280140003C0140EF
:104FC000FFFEF0FFFDF7F1FFFFFD3FFF024600206F
:104FD00013680B400BB1012000E000207047CA436A
:104FE0000260704770B502460020002300240B12B7
:104FF0005568CEB205EA060415681D4015B10CB11E
:10500000012000E0002070BD00220A12D34303609B
:105010007047000010B50446BE48844208D1012103
:105020008014FEF773FC0021A014FEF76FFC16E05D
:10503000B948844208D101210014FEF774FC002114
:105040002014FEF770FC0AE0B448844207D1012125
:10505000C013FEF768FC0021E013FEF764FC10BDEE
:1050600010B50022028802F441520B884C88234379
:105070008C882343CC8823430C8923434C892343C6
:105080008C892343CC8923431A430280838B4FF2BC
:10509000FF74234083830B8A038210BD2DE9F04FF8
:1050A00085B005460C464FF0000902274FF0000876
:1050B0004FF0010B0026B246A88B4FF2400108408A
:1050C000A88302202884B5F81C90A068022801D18A
:1050D00000BF38E0A08810B94FF0010B01E04FF09D
:1050E000020B8D48854200D100E000BF6846FEF704
:1050F00086FBDDF800A0E088B0F5007F0AD14FEA1A
:105100001A2000EB80004000A168B0FBF1F0401DC8
:1051100086B20BE04FEA4B10BAFBF0F000EB8000D8
:105120004000A168B0FBF1F0401D86B20A20B6FB3A
:10513000F0F606F00108A6EB0800C0F34F074FF6A3
:10514000FF7000EA0828022F01DBFF2F02DD022793
:105150004FF00008E08840EA080038432884A0881F
:10516000A1890843618808432188084340F400600E
:1051700040EA0909A5F81C9005B0BDE8F08F0021B0
:10518000018041808180C180018141818181C18113
:105190000721018270470021018041808180C18008
:1051A0000221816000218181704721B1028842F093
:1051B0004002028004E002884FF6BF731A4002806A
:1051C000704721B1828B42F48062828304E0828B3B
:1051D0004FF6FF331A408283704730B50024002316
:1051E0000C110125A540ABB21AB185881D438580FD
:1051F00002E085889D43858030BD1AB183880B43CA
:10520000838002E083888B4383807047818170476D
:105210000146888970474FF6FF62914204D00288A8
:1052200042F48072028004E002884FF6FF631A4065
:105230000280704721B1828842F00402828004E03B
:1052400082884FF6FB731A408280704702884FF2C3
:10525000FF731A40028002880A4302807047018867
:1052600041F480510180704721B1028842F400521C
:10527000028004E002884DF6FF731A4002807047F6
:1052800002460020012901D0108B00E0908A70476F
:105290000146088A7047B1F5804F04D1028842F474
:1052A0008042028004E002884BF6FF731A400280BD
:1052B00070470246002013890B400BB1012000E02B
:1052C00000207047CA4302817047F0B502460020B3
:1052D00000240023002501F00F070126BE40B4B2D0
:1052E0000B1101269E40B3B2968806EA0305168983
:1052F000264016B10DB1012000E00020F0BD10B530
:10530000002201F00F040123A3409AB2D34303818A
:1053100010BD00000030014000380040003C00405B
:1053200001460020FE4A106800F038000843106073
:105330007047FB49096821F00801F94A11601146DC
:105340000968014311607047F549096821F01001AF
:10535000F34A116011460968014311607047F14832
:10536000EF494860F04848607047EE48EC494860B3
:10537000ED4848607047EA48006940F08000E8491D
:1053800008617047E648006940F08000E449086120
:1053900070470420E249C96801F0010109B1012008
:1053A0000EE0DF49C96801F0040109B1022007E0FD
:1053B000DB49C96801F0100109B1032000E00420B5
:1053C000704700B502460423FFF7E3FF034603E0FE
:1053D000FFF7DFFF0346521E012B01D1002AF7D150
:1053E00002B90523184600BD30B5044604254FF424
:1053F0003020FFF7E6FF0546042D17D1C8480069A5
:1054000040F00200C649086108464461006940F066
:10541000400008614FF43020FFF7D3FF0546C04835
:10542000006941F6FD710840BD490861284630BD5C
:1054300010B504244FF43020FFF7C3FF0446042CBA
:1054400016D1B748006940F00400B5490861084624
:10545000006940F0400008614FF43020FFF7B1FFD1
:105460000446AF48006941F6FB710840AC49086149
:10547000204610BD00B502460423FFF78AFF03460D
:1054800003E0FFF786FF0346521E012B01D1002ADD
:10549000F7D102B90523184600BD10B504244FF416
:1054A0003020FFF7E7FF0446042C16D19C48006922
:1054B00040F004009A4908610846006940F0400045
:1054C00008614FF43020FFF7D5FF04469448006987
:1054D00041F6FB71084092490861204610BD00204A
:1054E0008F49C96901F0020109B1012000E00020E3
:1054F000704730B5A5250424FFF7F1FF00B1002562
:105500004FF43020FFF75DFF0446042C3AD1854864
:1055100083498860844888600846006940F020001C
:1055200008610846006940F0400008614FF43020EF
:10553000FFF747FF0446042C1BD17948006941F668
:10554000DF710840764908610846006940F01000A4
:10555000086176480580E002FFF733FF0446052C1A
:1055600010D06F48006941F6EF7108406C4908613E
:1055700008E0052C06D06A48006941F6EF71084042
:1055800067490861204630BD78B506460C460425BB
:1055900000200090E802FFF714FF0546042D24D1F7
:1055A0005F48006940F001005D4908613480E8020D
:1055B000FFF707FF0546042D10D1B01C0090200C0A
:1055C00000990880E802FFF7FCFE05465448006990
:1055D00041F6FE7108405249086106E050480069F2
:1055E00041F6FE7108404E490861284678BD70B505
:1055F00004460D460426F002FFF7E3FE0646042E9D
:1056000011D14748006940F00100454908612580F3
:10561000F002FFF7D6FE06464148006941F6FE71EA
:1056200008403F490861304670BD70B505460E46DA
:105630000424E002FFF7C5FE0446042C17D13948C4
:1056400037498860384888600846006940F0100093
:1056500008612E80E002FFF7B4FE0446052C06D058
:105660002F48006941F6EF7108402D490861204636
:1056700070BD2DE9F04304464FF6FF763746B0463D
:10568000B1460425E443E6B2C4F30727C4F3074850
:105690004FEA1469E802FFF794FE0546042D49D14C
:1056A00020481F498860204888600846006940F00B
:1056B00010000861FF2E06D01C4808300680E80262
:1056C000FFF77FFE0546042D08D1FF2F06D01748AF
:1056D0000A300780E802FFF774FE0546042D0AD160
:1056E000B8F1FF0F07D011480C30A0F80080E80295
:1056F000FFF767FE0546042D0AD1B9F1FF0F07D069
:105700000A480E30A0F80090E802FFF75AFE05465E
:10571000052D0FD00248006941F6EF71084007E0FF
:105720000020024023016745AB89EFCD00F8FF1F41
:10573000664908612846BDE8F08330B50546042473
:105740004FF43020FFF73DFE0446042C41D1604861
:105750005E4988605F4888600846006940F0200024
:1057600008610846006940F0400008614FF43020AD
:10577000FFF727FE0446042C22D15448006941F665
:10578000DF710840514908610846006940F0100087
:1057900008611DB100205049088002E0A5204E4953
:1057A00008804FF43020FFF70CFE0446052C10D083
:1057B0004648006941F6EF7108404449086108E035
:1057C000052C06D04148006941F6DF7108403F4989
:1057D0000861204630BDF0B505460E461746042444
:1057E0003B483A4988603B488860E002FFF7E9FDA2
:1057F0000446042C19D13548006940F010003349A3
:10580000086147F0F800304328433349891C088079
:10581000E002FFF7D6FD0446052C06D02B480069B0
:1058200041F6EF710840294908612046F0BD27483C
:10583000C069800870472548006A704700202349E6
:10584000096801F0200109B1012000E00020704743
:1058500029B11E4A126902431C4B1A6104E01B4A1B
:1058600012698243194B1A617047014600200129D1
:1058700008D1164AD26902F001020AB1012008E0FB
:10588000002006E0114AD2680A400AB1012000E077
:10589000002070470D49C860704704200B49C96853
:1058A00001F0010109B101200EE00849C96801F0C9
:1058B000040109B1022007E00449C96801F01001A0
:1058C00009B1032000E004207047000000200240DE
:1058D00023016745AB89EFCD00F8FF1F01684FF644
:1058E000FE72114001600021016041608160C16071
:1058F0008D49884208D18C490839496841F00F0127
:10590000894A083A51608AE087491431884208D1AF
:1059100085490839496841F0F001834A083A5160E5
:105920007DE081492831884208D17F49083949689A
:1059300041F470617C4A083A516070E07A493C3128
:10594000884208D178490839496841F47041764A5B
:10595000083A516063E074495031884208D1724975
:105960000839496841F470216F4A083A516056E09D
:105970006D496431884208D16B490839496841F45E
:105980007001694A083A516049E0674978318842B4
:1059900008D165490839496841F07061624A083A9E
:1059A00051603CE06149884206D1011F096841F01D
:1059B0000F01021F116032E05C491431884208D1A6
:1059C0005A49091F096841F0F001584A121F116035
:1059D00025E056492831884208D15449091F0968F1
:1059E00041F47061514A121F116018E04F493C3177
:1059F000884208D14D49091F096841F470414B4A5A
:105A0000121F11600BE049495031884207D14749C4
:105A1000091F096841F47021444A121F1160704740
:105A200010B50022026847F6F0739A430C6A8B683F
:105A300023430C6923434C6923438C692343CC697A
:105A400023434C6A23438C6A23431A430260CB6886
:105A500043600B6883604B68C36010BD0021016028
:105A600041608160C160016141618161C161016228
:105A700041628162704721B1026842F00102026016
:105A800004E002684FF6FE731A40026070471AB1D4
:105A900003680B43036002E003688B4303607047B5
:105AA000416070470146486880B270470146002057
:105AB000002201F080531BB11C4B083B1A6802E026
:105AC000194B083B1A6802EA01030BB1012000E000
:105AD0000020704700F0805119B11449091F086077
