:020000040800F2
:10000000300F0020352200083103000833030008B8
:10001000370300083B0300083F030008000000000E
:100020000000000000000000000000004303000882
:1000300045030008000000004703000849030008CA
:100040004F2200084F2200084F2200084F220008CC
:100050004F2200084F220008F31500084F22000825
:100060004F2200084F2200084F2200084F220008AC
:100070004F2200084F2200084F2200084F2200089C
:100080004F2200084F2200084F2200084F2200088C
:100090004F2200084F2200084F2200084F2200087C
:1000A0004F2200084F2200084F2200084F2200086C
:1000B000F9020008850500084F2200084F220008B9
:1000C0004F2200084F2200084F2200084F2200084C
:1000D0004F220008832100084F2200084F22000809
:1000E0004F2200084F2200084F2200084F2200082C
:1000F0004F2200084F2200084F2200084F2200081C
:100100004F2200084F2200084F2200084F2200080B
:100110004F2200084F2200084F2200084F220008FB
:100120004F2200084F2200084F2200084F220008EB
:10013000DFF80CD005F020F8004800474102000825
:10014000300F00200EB50121084602F01CFC0920EA
:10015000ADF8040041F61F40ADF800000020ADF8F6
:100160000600ADF8020069464FF0804002F036FD0F
:1001700001221146900703F0A8F80121880703F037
:1001800089F80EBD08B500214FF0006002F09BF821
:100190004FF4C06002F060F81C208DF800000020D1
:1001A0008DF801008DF8020001208DF803006846EB
:1001B00002F057F808BD10B502F06AFA4FF480302B
:1001C00002F086FA02F0C3FA0446012C2FD1102067
:1001D00004F092F9022004F07BF9002002F0FDFA0D
:1001E000002002F00CFBA00202F000FB4FF4E01133
:1001F000200402F0D5FA012002F0DEFA00BF392017
:1002000002F089FA0028FAD0022002F0D8FA00BFE2
:1002100002F0DEFA0828FBD1012002F0DFFB012109
:10022000084602F0B0FB01213D2002F09FFB10BD0B
:1002300010B5FFF7C0FFFFF7A5FFFFF783FF10BD65
:10024000FFF7F6FF00F056FA01F0FCFD4FF4A06056
:1002500002F002F801F060FE41F61F41092000F0B3
:1002600065F94FF4E13001F013FF01F043F901F0BB
:10027000A0FA022001F007FA01F088F900F0ECFF83
:1002800001F04CF800F0F7FF2149224800F00EFF82
:10029000642001F014FE20A005F070F8202122480F
:1002A00002F057F91021204802F053F923E01F48CB
:1002B0000088072814DB20211B4802F048F9102190
:1002C000194802F046F9142001F0D5FD2021164806
:1002D00002F03FF9142001F0CEFD00201349088000
:1002E00012480088022804DB4FF480610E4802F0B7
:1002F0002EF901F03BF8DAE710B50121880703F089
:1003000092FA012803D10121800703F09DFA10BD64
:10031000220000201A00002048656C6C6F20576F87
:10032000726C640D0A0000000010014056000020AD
:10033000704700BFFEE700BFFEE700BFFEE700BF5B
:10034000FEE7704770477047704700000CB500200B
:10035000019000906C48006840F480306A49086061
:1003600000BF6948006800F4003000900198401C0C
:100370000190009818B90198B0F5A06FF1D16248CA
:10038000006800F4003010B10120009001E000206E
:1003900000900098012843D15C48006840F01000AC
:1003A0005A4908600846006820F0030008600846C3
:1003B000006840F0020008605348406852494860B5
:1003C0000846406848600846406840F480604860DD
:1003D0000846406820F47C1048600846406840F4B5
:1003E000E81048600846006840F08070086000BF70
:1003F0004548006800F000700028F9D04248406885
:1004000020F00300404948600846406840F0020080
:10041000486000BF3C48406800F00C000828F9D153
:100420000CBD10B5FFF792FF10BD10B5364800683F
:1004300040F00100344908600846406834490840EB
:100440003149486008460068324908402E49086032
:100450000846006820F4802008600846406820F4C0
:10046000FE0048604FF41F008860FFF7DAFF4FF08E
:1004700000602949086010BD10B50021002000224D
:10048000214B5B6803F00C0121B1042906D0082937
:1004900028D107E0214B224C236027E01F4B204C42
:1004A000236023E0184B5B6803F47010164B5B6805
:1004B00003F48032022303EB904022B9194B4343EB
:1004C000174C23600DE0104B5B6803F4003323B13D
:1004D000144B4343124C236003E0104B4343104C36
:1004E000236003E00D4B0E4C236000BF00BF064BA2
:1004F0005B68C3F303130C4CE15C094B1B68CB40F6
:10050000074C236010BD0000001002400020024094
:100510000000FFF8FFFFF6FE08ED00E000127A0091
:100520000000002000093D00040000207FB50546C2
:100530000C460121022002F026FAADF80850ADF871
:1005400004400020ADF80A00ADF8060001A92648D5
:1005500002F044FB01221146234802F0B6FE1D20A2
:100560008DF8000002208DF801008DF802000120B6
:100570008DF80300684601F074FE01211A4802F06C
:1005800089FE7FBD10B50121174803F04CF948B32F
:100590000121154803F058F914480068401C13491C
:1005A000086013480088401C1149088008460088EC
:1005B0000A2801DD002008800C4800680A2805D1BF
:1005C00000224FF480710B4801F0C5FF0748006816
:1005D000142807D101221102064801F0BCFF0020B7
:1005E0000249086010BD0000000400401400002013
:1005F000560000200008014008B50121084602F01D
:10060000A8F901214FF4047002F0B0F90120ADF80F
:10061000000028208DF803006946394801F0EAFE01
:1006200008BD00B591B0374804F030FA364806905E
:1006300036480790002008900120099000200A9079
:100640000B904FF480700C9080000D9020200E9045
:1006500000020F900020109006A92A4804F0B8FA72
:100660000121284804F0DFFA002001908DF80800ED
:1006700001208DF809004FF46020039000200490C1
:1006800001208DF8140001A91F484C3803F00BFB22
:100690004FF4404002F0CEF8052301220A211A4807
:1006A0004C3803F098FB012117484C3803F032FB1B
:1006B000012115484C3803F022FB13484C3803F055
:1006C00040FB00BF10484C3803F040FB0028F9D134
:1006D0000D484C3803F044FB00BF0B484C3803F086
:1006E00044FB0028F9D1012107484C3803F047FBAF
:1006F00011B000BD10B5FFF77FFFFFF792FF10BDEF
:1007000000100140080002404C2401401800002065
:1007100010B504464FF4847101EB4410102100F031
:1007200007FE00BF4FF4847101EB441000F008FE97
:100730000028F7D14FF4027101EB4410FF2100F0C3
:10074000F7FD10BD2DE9F04104460D4616469846CA
:1007500005F00F0001280FD005F00F0002280BD084
:1007600005F00F00032807D005F00F00042803D080
:1007700005F00F00052841D12046FFF7C9FF45EAE3
:100780000801082202EB441000F0D2FD76B1310AD4
:100790004FF4816202EB441000F0CAFDF1B24FF455
:1007A000A16202EB441000F0C3FD15E0FE48008892
:1007B000401CFD4908800A461288110A4FF48162E4
:1007C00002EB441000F0B4FDF74A11784FF4A16237
:1007D00002EB441000F0ACFD4FF4847101EB4410C7
:1007E000012100F0A5FD00BF4FF4847101EB44101E
:1007F00000F0A6FD0028F7D1012700E000273846C9
:10080000BDE8F08170B504464FF4427101EB44102D
:1008100000F096FD132811D14FF4847101EB4410C0
:10082000022100F085FD00BF4FF4847101EB4410FC
:1008300000F086FD0028F7D1012500E000252846BC
:1008400070BD2DE9F04105460C4616462078FF287C
:1008500008D16078FF2805D1A078FF2802D1E07880
:10086000FF2808D0207828B9607818B9A07808B98E
:10087000E07800B10EB900275CE00127217840F64E
:10088000084202EB451000F053FD617840F6085233
:1008900002EB451000F04CFDA17840F6086202EB37
:1008A000451000F045FDE17840F6087202EB451076
:1008B00000F03EFD310A41F2080202EB451000F063
:1008C00037FDF1B241F2081202EB451000F030FDA5
:1008D0004FF4847101EB4510042100F029FD00BFA5
:1008E0004FF4847101EB451000F02AFD0028F7D188
:1008F00017E04FF4427101EB451000F021FD17287D
:1009000000D116E0284600F0ECFA00F0080040B1F3
:100910004FF4027101EB4510082100F009FD00279A
:1009200007E04FF4427101EB451000F009FD152876
:10093000DFD100BF3846BDE8F08110B504464FF462
:10094000847101EB4410082100F0F2FC00BF4FF469
:10095000847101EB441000F0F3FC0028F7D110BDC6
:100960002DE9F04704468846164600250027A9468B
:10097000204600F026FAB04204DA204600F021FAC0
:10098000074600E0374600BF204600F0C7FA814620
:100990004FF4427101EB441000F0D2FC0546172DD4
:1009A00003D01C2D01D0002701E0B945ECDB00BFCE
:1009B0003A464146204600F005FB4FF4847101EBB6
:1009C0004410202100F0B4FC00BF4FF4847101EB0F
:1009D000441000F0B5FC0028F7D113E04FF4427149
:1009E00001EB441000F0ACFC0546172D0AD01C2D7D
:1009F00008D06EA004F0C2FC2046FFF789FE00205C
:100A0000BDE8F0874FF4027101EB441000F098FC50
:100A100000F010001028E1D14FF4027101EB4410F6
:100A2000102100F085FC4FF4027101EB44101021FD
:100A300000F07EFC3846E3E72DE9F04104460E461F
:100A400015460027002D15DD2A463146204600F0C8
:100A5000F3FA4FF4847101EB4410402100F068FC7C
:100A600000BF4FF4847101EB441000F069FC0028D2
:100A7000F7D12F463846BDE8F0812DE9F04704460E
:100A8000894616461D46089F4FF00008204600F094
:100A900098F9B04204DA204600F093F9804600E06D
:100AA000B046287828B9687818B9A87808B9E878DD
:100AB00000B117B94FF0000863E0297840F608420A
:100AC00002EB441000F034FC697840F6085202EB67
:100AD000441000F02DFCA97840F6086202EB4410A7
:100AE00000F026FCE97840F6087202EB441000F0B2
:100AF0001FFC390A41F2080202EB441000F018FC16
:100B0000F9B241F2081202EB441000F011FC424627
:100B10004946204600F056FA4FF4847101EB441028
:100B2000202100F005FC00BF4FF4847101EB44105C
:100B300000F006FC0028F7D112E04FF4027101EB3F
:100B4000441000F0FDFB00F0080048B14FF40271C2
:100B500001EB4410182100F0EBFB0020BDE8F0870A
:100B60004FF4027101EB441000F0EAFB00F01000BA
:100B70001028E2D14FF4027101EB4410102100F073
:100B8000D7FB4046EAE72DE9FC5F05468A469146D9
:100B90001E46DDF8308000270024A346B9F1000F7F
:100BA00073DD42F608010DE0420000202053454E5F
:100BB000445F4F4B2050726F626C656D21210D0AAE
:100BC0000000000001EB451000F0BAFB044642F6BD
:100BD000081101EB451000F0B3FB00EB042084B2D8
:100BE000200200EB451000F1180B082101EB451025
:100BF00000F0A6FB00F00700022804D0032845D02F
:100C0000042878D178E008226946584600F003FBB2
:100C100004F1080084B29DF8000030709DF80100D6
:100C200070709DF80200B0709DF80300F0709DF8A0
:100C30000400A8F800009DF8050098F8001000EBEB
:100C40000120A8F800009DF806709DF8070000EB51
:100C5000072087B2200200EB451000F1180B3A463E
:100C60005146584600F0D7FAE01984B2210A42F6FC
:100C7000080202EB451000F05BFBE1B242F60812FD
:100C800002EB451000F054FB6AE07AE00622694668
:100C9000584600F0C0FAA01D84B29DF800003070E4
:100CA0009DF8010070709DF80200B0709DF803007F
:100CB000F0709DF804709DF8050000EB072087B2E6
:100CC000200200EB451000F1180B3A4651465846F9
:100CD00000F0A1FAE01984B2210A42F6080202EB00
:100CE000451000F025FBE1B242F6081202EB451078
:100CF00000F01EFB34E032E002226946584600F064
:100D00008AFAA01C84B29DF800709DF8010000EBE7
:100D10000720801E87B240F2EA50874204DD1AA005
:100D200004F02CFB00BFFEE7200200EB451000F1B1
:100D3000180B3A465146584600F06DFAE01984B255
:100D4000210A42F6080202EB451000F0F1FAE1B286
:100D500042F6081202EB451000F0EAFA00E000BF8C
:100D600000BF4FF4847101EB4510402100F0E0FA20
:100D700000BF4FF4847101EB451000F0E1FA002848
:100D8000F7D13846BDE8FC9F20646174615F6C65F3
:100D90006E206F76657220313531340D0A00000007
:100DA00010B504462146002000F0C2FA10BD10B56F
:100DB0008020FFF7F5FF10BD0146ED4830F8110027
:100DC00070470146EB4830F81100704710B50446F3
:100DD00004222146900100F001FA10BD10B504462E
:100DE00004222146900100F016FA10BD10B5044609
:100DF000042221464FF4A06000F0F0F910BD10B5B8
:100E00000446062221464FF4106000F0E7F910BDB9
:100E100010B50446042221464FF4706000F0DEF95C
:100E200010BD10B50446042221464FF4A06000F026
:100E3000F2F910BD10B50446062221464FF41060A9
:100E400000F0E9F910BD10B50446042221464FF424
:100E5000706000F0E0F910BD10B54FF4A85000F03C
:100E60006FFA10BD10B50446210A4FF4C85000F0C7
:100E70005FFAE1B24FF4D05000F05AFA10BD10B54D
:100E8000044621464FF4D85000F052FA10BD70B518
:100E90000446FFF7E1FF60EA0400C5B229464FF4BB
:100EA000A85000F045FA70BD70B504460D46290AF9
:100EB00041F2082202EB441000F03AFAE9B241F2A2
:100EC000083202EB441000F033FA70BD70B50446EE
:100ED0000D4641F2086101EB4410294600F028FA62
:100EE00070BD10B504464FF4027101EB441000F0E0
:100EF00027FA10BD70B504460D464FF4027101EBA0
:100F00004410294600F014FA70BD10B504464FF4A1
:100F1000427101EB441000F013FA10BD70B50446A5
:100F20000025002600BF42F2080101EB441000F04A
:100F300007FA064642F2081101EB441000F000FAED
:100F400000EB062086B27EB142F2080101EB4410AC
:100F500000F0F6F9054642F2081101EB441000F0EA
:100F6000EFF900EB052085B2B542DCD1284670BD13
:100F700070B504460025002600BF42F2086101EB6F
:100F8000441000F0DDF9064642F2087101EB44100E
:100F900000F0D6F900EB062086B27EB142F208617D
:100FA00001EB441000F0CCF9054642F2087101EB68
:100FB000441000F0C5F900EB052085B2B542DCD144
:100FC000284670BD2DE9F04104460F46164600251F
:100FD000A8462EB9214668A004F0D0F9BDE8F081FA
:100FE00042F2084101EB441000F0AAF9054642F232
:100FF000085101EB441000F0A3F900EB052085B285
:10100000280200EB441000F11008324639464046F1
:1010100000F0E4F8A81985B2290A42F2084202EB6E
:10102000441000F085F9E9B242F2085202EB441094
:1010300000F07EF900BFD1E72DE9F04104460F46EC
:1010400016460025A8462EB9214653A004F096F96D
:10105000BDE8F08142F6080101EB441000F070F9A0
:10106000054642F6081101EB441000F069F900EB67
:10107000052085B2280200EB441000F11808324622
:101080003946404600F0C7F8A81985B2290A42F649
:10109000080202EB441000F04BF9E9B242F60812E4
:1010A00002EB441000F044F900BFD1E72DE9F04114
:1010B00005460E460027B846002433E0295D41F678
:1010C000087202EB441000F033F9315D41F608621A
:1010D00002EB441000F02CF90020264921F81400FE
:1010E000234921F81400B7F5804F07DC285D4FF63F
:1010F000FF7101EA80201F4921F81400B8F5804FE4
:1011000007DC305D4FF6FF7101EA8020184921F8B5
:101110001400184830F814000744154830F814003B
:101120008044641C082CC9DBBDE8F08110B54FF485
:10113000385000F005F910BD10B50024FFF7F6FF98
:1011400000F001049CB91CA004F018F90AE0FFF7B4
:10115000EDFF00F001041FA004F010F94FF4FA7045
:1011600000F074F8002CF2D01BA004F007F910BDB9
:10117000F4000020E40000202043483A20256420A9
:10118000556E657870656374656431206C656E6753
:10119000746820300D0A00002043483A202564205E
:1011A000556E657870656374656432206C656E6732
:1011B000746820300D0A0000200D0A20C7EBBCEC3B
:1011C000B2E9CDF8CFDFCAC7B7F1C1ACBDD33F0D8F
:1011D0000A000000202E0000200D0A002DE9FC412D
:1011E00004460D461646200C8DF80400200A8DF8A2
:1011F000050004F0F800001DC0B28DF80600F0B242
:1012000003232A4601A90090012000F00CFC0746A8
:101210003846BDE8FC812DE9FC4104460D461646E2
:10122000200C8DF80400200A8DF8050004F0F80069
:101230008DF80600F0B203232A4601A90090012090
:1012400000F052FC07463846BDE8FC8110B5044664
:10125000204600F034FE10BD10B5002000F03DF92E
:101260000220FFF7F3FF012000F037F94FF4C860C8
:10127000FFF7ECFF10BD08B5664867490A680260D1
:101280008988818065490968C0F806106449096841
:10129000C0F80A1063490968C0F80E10624909686D
:1012A000C0F8121061A004F069F80120594988764D
:1012B00000215848C1760A30FFF798FD55480E3096
:1012C000FFF784FD5348801DFFF7A2FD5348FFF749
:1012D000BAFD5248C078009050488378427801782F
:1012E0005AA004F04BF84E48FFF79BFD4C48C078DD
:1012F00000904B488378427801785CA004F03EF877
:101300004848FFF76BFD4748C07800904548837810
:10131000427801785DA004F031F808BD10B53D4871
:101320003D490A68026089888180FFF768FD10BD29
:1013300013B50446012201A92046FFF74FFF1CBD4B
:1013400038B50446012269462046FFF764FF9DF840
:10135000000038BD70B504460D462A462146534864
:101360000078FFF7FDFAC6B2304670BD10B5002414
:101370004E480078FFF7C9FD30B113280DD017286B
:1013800010D01C2836D130E02023494802880121A2
:1013900046480078FFF7D6F92CE044480078FFF77C
:1013A00031FA27E041480078FFF79BFD00F001008B
:1013B00020B101213D480078FFF79CFD3B480078B3
:1013C000FFF7D6FD0446002C0EDD2246394937488A
:1013D0000078FFF731FB00203649085536A003F0AE
:1013E000CDFF344800F0CCFC04E030480078FFF733
:1013F0008FF900BF00BF2D480078072805DA2B4879
:101400000078401C2949087002E000202749087034
:1014100010BD0000040100202C000020320000203C
:10142000360000203A0000203E00002020CAB9D338
:10143000C3B6A8D2E5B5C44950D0C5CFA2C5E4D63D
:10144000C357353530303A0D0A0000002057353586
:101450003030204950B5D8D6B72020203A20256416
:101460002E25642E25642E25640D0A00205735355F
:10147000303020D7D3CDF8D1DAC2EB203A20256422
:101480002E25642E25642E25640D0A00205735353F
:10149000303020CDF8B9D820202020203A202564F3
:1014A0002E25642E25642E25640D0A00550000208B
:1014B000420000203201002025730D0A00000000C8
:1014C00010B5044624B90821A94801F042F803E008
:1014D0000821A74801F03BF810BD10B5044624B917
:1014E0000421A34801F035F803E00421A04801F0ED
:1014F0002EF810BD08B501215C2001F037FA01215A
:101500009C4801F048F84FF48670ADF800001020B8
:101510008DF8030001208DF802006946944800F020
:1015200069FF0020FFF7D9FF0020FFF7C9FF40F651
:101530000340ADF8000010208DF8030001208DF865
:10154000020069468C4800F055FF01218A4801F0ED
:1015500000F80221884800F0FCFF4FF480618648C3
:1015600000F0F7FF4FF40061834800F0F2FF4FF402
:10157000C660ADF8000010208DF8030001208DF842
:10158000020069467D4800F035FF08BD1FB5012106
:10159000092001F0EBF90120ADF80C0048208DF88E
:1015A0000F0003208DF80E0003A9734800F022FFFE
:1015B0000021012001F034F80120019000208DF875
:1015C000080010208DF8090001208DF80A0001A8FC
:1015D00002F078FD06208DF8000000208DF8010053
:1015E0008DF8020001208DF80300684600F039FEF6
:1015F0001FBD10B5012002F0CBFD012842D102F041
:10160000C7FD01283ED138E001215B4800F085FF8D
:10161000C0B900205A49088001205A4908705A4828
:101620000078012806D18102544800F092FF002082
:10163000554908701021514800F089FF012002F03F
:10164000B8FD1AE001214C4800F067FF012814D1D1
:1016500000204B49088001204A4908704A48007818
:1016600020B94FF48061454800F071FF10214348D4
:1016700000F06DFF012002F09CFD012002F088FDCA
:101680000028C1D110BD10B5044634B1012C1ED0C4
:10169000022C36D0032C68D14DE04FF4006136485F
:1016A00000F055FF052000F00AFC4FF4806132483D
:1016B00000F04FFF0221304800F04BFF052000F002
:1016C000FEFB4FF400612C4800F043FF4EE04FF466
:1016D0000061294800F03BFF052000F0F0FB4FF4CB
:1016E0008061254800F035FF0221234800F02FFFDC
:1016F000052000F0E4FB4FF400611F4800F029FFD3
:1017000034E04FF400611C4800F021FF052000F098
:10171000D6FB4FF48061184800F019FF02211648EB
:1017200000F017FF052000F0CAFB4FF400611248DB
:1017300000F00FFF1AE04FF400610F4800F007FFC0
:10174000052000F0BCFB4FF480610B4800F0FFFE69
:101750000221094800F0FBFE052000F0B0FB4FF429
:101760000061054800F0F5FE00E000BF00BF10BDBD
:101770000008014000023000000C01400010014050
:1017800056000020580000205900002008B5102005
:101790008DF8030003208DF802001020ADF8000042
:1017A0006946FA4800F026FE1021F84800F0CFFE06
:1017B00008BD00B587B00121042001F0D7F8012150
:1017C000080301F0D3F818208DF81B0003208DF8D2
:1017D0001A002020ADF8180006A9EC4800F00AFE17
:1017E0008020ADF8180006A9E84800F003FE40206C
:1017F000ADF8180004208DF81B0006A9E34800F09E
:10180000F9FD0020ADF804004FF48270ADF8060039
:101810000020ADF808000220ADF80A000120ADF864
:101820000C004002ADF80E001020ADF810000020B2
:10183000ADF812000720ADF8140001A9D44802F059
:10184000E7FC0121D24802F088FDFFF79FFF07B0B7
:1018500000BD70B504460D460026012C09D125B9FE
:101860001021CA4800F075FE03E01021C74800F0BF
:101870006EFE70BD2DE9F04781460D4616460021EB
:101880004846FFF7E6FF2F464FF000081BE04FF4F5
:10189000FA643978BE4802F091FD09E0601E84B216
:1018A00034B901214846FFF7D4FF0120BDE8F08795
:1018B0000221B74802F0D5FD0028EFD07F1C08F1C7
:1018C00001001FFA80F8B045E1DB4FF4FA6408E04C
:1018D000601E84B22CB901214846FFF7BAFF0120EF
:1018E000E4E78021AA4802F0BCFD0028F0D10121E4
:1018F0004846FFF7AEFF0020D8E72DE9F047044641
:101900000E461746E0B20021FFF7A3FFB0464FF0A6
:10191000000932E0C825FF219D4802F04FFD09E093
:10192000681E85B235B9E0B20121FFF792FF0120B0
:10193000BDE8F0870221964802F093FD0028EFD021
:101940004FF4FA6508E0681E85B22DB9E0B20121B6
:10195000FFF77FFF0120EBE701218D4802F081FDB9
:101960000028F0D08A4802F02BFD88F8000008F12A
:10197000010809F101001FFA80F9B945CADBE0B29C
:101980000121FFF766FF0020D2E72DE9F05F044652
:101990000E4617469846E0B20021FFF75AFFB146BF
:1019A000BA464FF0000B36E04FF4FA6599F8001094
:1019B000774802F003FD09E0681E85B235B9E0B250
:1019C0000121FFF746FF0120BDE8F09F022170488A
:1019D00002F047FD0028EFD009F101094FF4FA6544
:1019E00008E0681E85B22DB9E0B20121FFF731FF92
:1019F0000120E9E70121664802F033FD0028F0D01C
:101A0000634802F0DDFC8AF800000AF1010A0BF1DC
:101A100001001FFA80FBC345C6DBE0B20121FFF7DE
:101A200018FF0020D0E72DE9F05F82460F46904670
:101A30009946DDF828B000215046FFF70AFF3D46E1
:101A4000002619E04FF4FA642978514802F0B6FCF8
:101A500009E0601E84B234B901215046FFF7F9FE57
:101A60000120BDE8F09F0221494802F0FAFC00285D
:101A7000EFD06D1C701C86B24E45E3DB4546002658
:101A800018E04FF4FA642978414802F097FC08E026
:101A9000601E84B22CB901215046FFF7DAFE012006
:101AA000DFE702213A4802F0DCFC0028F0D06D1C90
:101AB000701C86B25E45E4DB4FF4FA6408E0601EF9
:101AC00084B22CB901215046FFF7C3FE0120C8E7BC
:101AD00080212F4802F0C5FC0028F0D1012150469A
:101AE000FFF7B7FE0020BCE72DE9F05F054688460A
:101AF00091469A46E8B20021FFF7ABFEC3464F4637
:101B000000262FE04FF4FA649BF80010204802F002
:101B100055FC09E0601E84B234B9E8B20121FFF738
:101B200098FE0120BDE8F09F0221194802F099FCBF
:101B30000028EFD00BF1010B08E0601E84B22CB935
:101B4000E8B20121FFF785FE0120EBE701211048F3
:101B500002F087FC0028F0D00D4802F031FC38700C
:101B6000701C86B25645CDDB002632E04FF4FA6495
:101B70000021074802F022FC0CE0601E84B24CB940
:101B8000E8B20121FFF765FE0120CBE70008014024
:101B9000003001400221134802F063FC0028ECD021
:101BA0004FF4FA6408E0601E84B22CB9E8B2012157
:101BB000FFF74FFE0120B5E701210A4802F051FC72
:101BC0000028F0D0074802F0FBFB38707F1C701C27
:101BD00086B20A988642C9DBE8B20121FFF739FED6
:101BE00000209FE7003001400FB430B59BB0642562
:101BF0001FA80190652102A8019B1E9A03F0CEFB4D
:101C000002A803F06DF8C4B2214602A8FFF7A2FBB8
:101C1000002001901BB030BC5DF814FBF0B503460A
:101C200000241D460E4600BF09E028783778B842E8
:101C300001D00020F0BD6D1C761C601CC4B2944223
:101C4000F3DB0120F6E710B5044666490868FFF7A4
:101C5000CBFF65490868FFF7C7FF64490868FFF7CD
:101C6000C3FF63490868FFF7BFFF62490868FFF7D1
:101C7000BBFF002010BD10B504465F48FFF7B4FF5E
:101C8000002010BD014601205C4A10700020704702
:101C900070B5044656490979081903F028F885B249
:101CA000012D07D00A2D09D0642D0BD0B5F57A7F10
:101CB00010D10BE00020FFF7E6FC0CE00120FFF75D
:101CC000E2FC08E00220FFF7DEFC04E00320FFF75F
:101CD000DAFC00E000BF00BF002070BD70B5044614
:101CE00044490979081903F002F880B2054615B194
:101CF000012D0CD105E04FF40071414800F029FCA2
:101D000006E04FF400713E4800F021FC00E000BF07
:101D100000BF70BD10B5044632490A7908682146F3
:101D2000FFF77CFF10B12F48407910BD2E490A798A
:101D300008682146FFF772FF10B12B484079F4E79D
:101D40002A490A7908682146FFF768FF10B1274839
:101D50004079EAE726490A7908682146FFF75EFFDD
:101D600010B123484079E0E722490A790868214602
:101D7000FFF754FF10B11F484079D6E70020D4E7A1
:101D800070B5054600242846FFF7C4FF0446062C1C
:101D900021D2DFE804F02003070B12192846FFF7D1
:101DA00052FF1CE02846FFF766FF00BF2846FFF7FA
:101DB00069FF14A0FFF718FF11E02846FFF768FF3E
:101DC00014A0FFF711FF0AE02846FFF787FF15A0D0
:101DD000FFF70AFF03E017A0FFF706FF00BF00BFF1
:101DE00070BD00005C00002068000020740000202E
:101DF000800000208C000020980000205900002066
:101E00000010014054726967676572204F4B0D0ADC
:101E10000000000053657420414438323533204FB0
:101E20004B0D0A005365742072656C6179204F4B2D
:101E30000D0A0000436F6D6D616E64204572726F14
:101E4000720D0A0010B56FF0040000F054FA2E482D
:101E500000682E49B0FBF1F02D4908700846007863
:101E600000EB4001C1EBC0104FF6FF7101EAC0006A
:101E70002849088010BD0146254A12784A434FF090
:101E8000E0235A6100229A611A46126942F0010267
:101E90001A6100BF4FF0E022106900F001021AB190
:101EA00000F48032002AF5D04FF0E022126922F0CF
:101EB00001024FF0E0231A6100229A617047014647
:101EC000144A12884A434FF0E0235A6100229A6173
:101ED0001A46126942F001021A6100BF4FF0E02277
:101EE000106900F001021AB100F48032002AF5D026
:101EF0004FF0E022126922F001024FF0E0231A6154
:101F000000229A61704700000000002000127A0051
:101F1000C0000020C200002008B50121782000F098
:101F200025FD0121092000F021FD01211D4800F0BF
:101F300032FB4FF46040ADF8000010208DF8030034
:101F400003208DF802006946174800F053FA4FF459
:101F50006041154800F0FBFA4FF6FF70ADF8000045
:101F600010208DF8030003208DF8020069460F4809
:101F700000F040FABDF800100C4800F0EAFA7F20AB
:101F8000ADF8000010208DF8030003208DF802004A
:101F90006946074800F02EFABDF80010044800F02A
:101FA000D8FA08BD00023000000C014000140140C6
:101FB0000018014070B504460D4693480088E1B210
:101FC000914801F081FD00BF40218F4801F0EAFDFA
:101FD0000028F9D0204670BD08B50121042000F08A
:101FE000C5FC4FF40070ADF8000003208DF802002E
:101FF00018208DF803006946844800F0FBF94FF47F
:102000008060ADF8000004208DF8030069467F4829
:1020100000F0F0F908BD10B58CB004460121084667
:1020200000F097FC0E208DF82C0003208DF82D0079
:1020300002208DF82E0001208DF82F000BA800F053
:1020400010F9734802F022FD6F48001D00900194C2
:1020500000200290FF200390002004908020059033
:1020600000200690079008904FF4405009900020FF
:102070000A906946664802F0ABFD0121644802F00F
:10208000D2FD01224021604801F0E2FC0CB010BDFD
:1020900010B586B004460121880300F067FC5A4859
:1020A00001F0D6FBFFF798FF25208DF804000220F1
:1020B0008DF805008DF8060001208DF8070001A8B5
:1020C00000F0CFF802940020ADF80C00ADF80E003F
:1020D000ADF81000ADF814000C20ADF8120002A904
:1020E000494801F0F8FB012240F22441464801F042
:1020F0008AFC0121444801F07AFC4648FFF78BFF37
:102100004021414801F04EFD06B010BD70B50546B6
:102110002C460BE014F8011B3B4801F0D5FC00BF36
:102120004021394801F03EFD0028F9D020780028F0
:10213000F0D170BD10B504462146334801F0C4FC0F
:1021400000BF4021304801F02DFD0028F9D010BD1E
:102150002DE9F04104460D460026274600BF0CE05D
:1021600017F8011B284801F0AFFC00BF40212648AA
:1021700001F018FD0028F9D0761CAE42F0D3BDE87E
:10218000F08170B50025002440F224411E4801F082
:102190001FFD002836D01C480588001D0588002139
:1021A0001B4802F040FD1A4802F054FDC0F1FF0543
:1021B0001948007890B919490D7000BF08E015481A
:1021C000005D17490855002012490855601C84B26B
:1021D000AC42F4D30120104908700BE0002404E065
:1021E00000200C490855601C84B2AC42F8D30DA005
:1021F000FFF78CFFFF21064802F02AFD0121044869
:1022000002F011FD70BD00000038014000080140DF
:1022100058000240310A0020C4000020C500002000
:10222000320900204D43552069732042757379218E
:102230000D0A00000648804706480047FEE7FEE713
:10224000FEE7FEE7FEE7FEE7FEE7FEE7FEE7FEE766
:102250002B0400083101000831490143314A116063
:10226000704770B5002100230F22C47804B32D4CB1
:10227000246804F4E064C4F5E064210AC1F10403B5
:10228000CA40447804FA03F18478144021430901D8
:10229000254C0678A155047804F01F050124AC40B4
:1022A00005786D11AD0005F1E025C5F8004109E0A4
:1022B000047804F01F050124AC401C4D067876110B
:1022C00045F8264070BD1A4A0A400243154B1B1FB1
:1022D0001A60704739B1134A121D12680243114B3C
:1022E0001B1D1A6006E00F4A121D126882430D4B37
:1022F0001B1D1A607047042808D14FF0E0210969BE
:1023000041F004014FF0E022116107E04FF0E021BD
:10231000096921F004014FF0E022116170470000CB
:102320000000FA050CED00E000E400E080E100E0D0
:1023300080FFFF1F10B50446CC48844208D101211C
:10234000042000F02DFB0021042000F029FB46E0D2
:10235000C748844208D10121082000F021FB002158
:10236000082000F01DFB3AE0C248844208D1012158
:10237000102000F015FB0021102000F011FB2EE0D2
:10238000BD48844208D10121202000F009FB002132
:10239000202000F005FB22E0B848844208D101214A
:1023A000402000F0FDFA0021402000F0F9FA16E08C
:1023B000B348844208D10121802000F0F1FA0021C5
:1023C000802000F0EDFA0AE0AE48844207D10121F6
:1023D000801500F0E5FA0021A01500F0E1FA10BD2B
:1023E00010B50121084600F0DBFA0021012000F0C1
:1023F000D7FA10BD2DE9F041024600250026002045
:1024000000230024002791F803C00CF00F0591F879
:1024100003C00CF0100CBCF1000F03D091F802C007
:102420004CEA050591F800C0BCF1000F31D01468EA
:1024300000202BE04FF0010C0CFA00F3B1F800C0C3
:102440000CEA03069E4220D183004FF00F0C0CFAD9
:1024500003F7BC4305FA03FC4CEA040491F803C0FB
:10246000BCF1280F06D14FF0010C0CFA00FCC2F8A9
:1024700014C00AE091F803C0BCF1480F05D14FF039
:10248000010C0CFA00FCC2F810C0401C0828D1D383
:102490001460B1F800C0BCF1FF0F34DD54680020B7
:1024A0002EE000F1080C4FF0010808FA0CF3B1F827
:1024B00000C00CEA03069E4221D183004FF00F0CAE
:1024C0000CFA03F7BC4305FA03FC4CEA040491F848
:1024D00003C0BCF1280F05D100F1080C08FA0CF874
:1024E000C2F8148091F803C0BCF1480F07D100F185
:1024F000080C4FF0010808FA0CF8C2F81080401CD4
:102500000828CED35460BDE8F0814FF6FF710180FA
:10251000022181700421C170704702460020936837
:102520000B400BB1012000E0002070470146886895
:1025300080B2704702460020D3680B400BB10120E7
:1025400000E0002070470146C86880B27047016112
:102550007047416170470AB1016100E04161704715
:10256000C16070474FF480320A43826181618261A9
:1025700082698269704702460020434B18684FF613
:102580008073184040EA021008433F4B18607047C0
:102590003E49C8617047F0B50A4600230024002177
:1025A000002500F00046B6F1004F02D1364EF16929
:1025B00001E0354E7168C0F3034583B200F4401664
:1025C000B6F5401F08D121F070612F4E766826F0D5
:1025D00070662D4F7E6012E000F48016B6F5801F05
:1025E00006D1032606FA05F4A14341F0706106E026
:1025F000460D360103FA06F6B14341F0706122B18F
:10260000460D360103FA06F6314300F00046B6F1F6
:10261000004F02D11C4EF16101E01B4E7160F0BD14
:1026200030B500228B071C0F0F2303FA04F2164B60
:1026300008338C1053F824309343134C08348D1016
:1026400044F8253023468C1053F824308C07240F8F
:1026500000FA04F423430C4C08348D1044F8253060
:1026600030BD0A49DC3108607047000000080140B5
:10267000000C01400010014000140140001801400E
:10268000001C0140002001400000014000002042E9
:10269000DF48006840F00100DD49086008464068F6
:1026A000DC490840DA49486008460068DA490840D1
:1026B000D74908600846006820F480200860084672
:1026C000406820F4FE0048604FF41F0088607047A7
:1026D000CF49096821F48031CD4A1160114609685B
:1026E00021F480211160B0F5803F03D0B0F5802F38
:1026F0000ED106E0C649096841F48031C44A116030
:1027000007E0C349096841F4A021C14A116000E013
:1027100000BF00BF704710B5014600220023002013
:102720004A11012A02D1BA4C236806E0022A02D1DA
:10273000B74C236A01E0B64C636A01F01F02012422
:1027400094401C400CB1012000E0002010BD38B5C1
:10275000002000900024002500BF3120FFF7DBFFA0
:1027600005460098401C00900098B0F5A06F01D07D
:10277000002DF2D03120FFF7CEFF08B1012400E098
:102780000024204638BD01460020A14A106820F0F0
:10279000F80040EAC10010607047A0490860704727
:1027A000024600209A4B586820F47C1042EA01034C
:1027B0001843974B58607047984908667047014620
:1027C0000020934A506820F003000843506070478F
:1027D0008F48406800F00C007047014600208C4A8A
:1027E000506820F0F0000843506070470146002018
:1027F000874A506820F4E060084350607047014603
:102800000020834A506820F4605040EAC1005060C4
:10281000704729B17E4A527A02437D4B5A7204E0D6
:102820007B4A527A82437A4B5A7270477B49D8313D
:102830000860704701460020754A506820F4404007
:102840000843506070470021714A20321170704A6D
:1028500082F82010012802D004280AD104E00121C6
:102860006B4A2032117005E00521694A203211704F
:1028700000E000BF00BF70476949086070476449C5
:10288000096A0143624A1162704765494439086028
:10289000704730B500210022002400235C4D6D6894
:1028A00005F00C0121B1042905D0082923D105E048
:1028B0005C4D056022E05B4D05601FE0544D6D6886
:1028C00005F47012524D6D6805F48034022505EB55
:1028D00092421CB9544D554305600BE04C4D6D6858
:1028E00005F400351DB1504D5543056002E04D4DD6
:1028F0005543056002E04B4D056000BF00BF444DED
:102900006D6805F0F0010909484D6B5C0568DD4014
:1029100045603F4D6D6805F4E061090A434D6B5C0D
:102920004568DD4085603A4D6D6805F46051C90A1F
:102930003E4D6B5C4568DD40C560354D6D6805F406
:102940004041890B3A4D6B5CC568B5FBF3F50561F9
:1029500030BD29B12E4A526902432D4B5A6104E021
:102960002B4A526982432A4B5A61704729B1284A3F
:1029700092690243264B9A6104E0254A9269824398
:10298000234B9A61704729B1214AD2690243204BF7
:10299000DA6104E01E4AD26982431D4BDA61704756
:1029A00029B11B4AD2680243194BDA6004E0184A85
:1029B000D2688243164BDA60704729B1144A126913
:1029C0000243134B1A6104E0114A12698243104B0F
:1029D0001A61704712494039086070470F49C8644E
:1029E00070470B49C87170470948406A40F08070D1
:1029F00007494862704701460020054A92680A402C
:102A00000AB1012000E00020704701498872704738
:102A1000001002400000FFF8FFFFF6FE00004242F7
:102A20008004424200127A0000093D00C6000020E6
:102A3000D600002010B50446FE48844208D101218A
:102A4000C014FFF7ADFF0021E014FFF7A9FFC4E0B9
:102A5000B4F1804F08D101210846FFF7AEFF0021F5
:102A60000120FFF7AAFFB8E0F348844208D1012112
:102A70000220FFF7A2FF00210220FFF79EFFACE03B
:102A8000EE48844208D101210420FFF796FF00217F
:102A90000420FFF792FFA0E0E948844208D1012119
:102AA0000820FFF78AFF00210820FFF786FF94E047
:102AB000E448844208D101211020FFF77EFF002165
:102AC0001020FFF77AFF88E0DF48844208D1012117
:102AD0002020FFF772FF00212020FFF76EFF7CE02F
:102AE000DA48844208D101214014FFF759FF002140
:102AF0006014FFF755FF70E0D548844209D10121E9
:102B0000C804FFF74DFF00214FF40020FFF748FFF6
:102B100063E0D048844209D101210805FFF740FF56
:102B200000214FF48010FFF73BFF56E0CA48844273
:102B300009D101214805FFF733FF00214FF40010B0
:102B4000FFF72EFF49E0C548844208D1012140200B
:102B5000FFF733FF00214020FFF72FFF3DE0C04883
:102B6000844208D101218020FFF727FF0021802027
:102B7000FFF723FF31E0BB48844208D101218015D3
:102B8000FFF71BFF0021A015FFF717FF25E0B64850
:102B9000844209D101210804FFF702FF00214FF40C
:102BA0008030FFF7FDFE18E0B048844209D10121D2
:102BB0004804FFF7F5FE00214FF40030FFF7F0FE68
:102BC0000BE0AB48844208D101218804FFF7E8FEFE
:102BD00000214FF48020FFF7E3FE10BD00220288A1
:102BE000944B98420ED0994B98420BD0B0F1804F45
:102BF00008D0914B984205D0904B984202D0904B10
:102C0000984204D14FF68F731A404B881A438D4B6C
:102C1000984207D08C4B984204D04FF6FF431A409D
:102C2000CB881A4302808B8883850B880385814B70
:102C300098420BD0854B984208D08B4B984205D0D8
:102C40008A4B984202D08A4B984201D10B7A038674
:102C500001238382704770B5002400220023058C75
:102C60004FF6FE7635400584028C8388048B4FF640
:102C70008F752C40B51E2C400D882C43751E2A40A4
:102C80000D892A434D882A436A4DA8420BD06F4DC7
:102C9000A84208D0744DA84205D0744DA84202D075
:102CA000734DA84213D14FF6F7752A404D892A4338
:102CB0004FF6FB752A408D882A434FF6FF652B405F
:102CC0004FF6FF552B408D892B43CD892B438380B5
:102CD0000483CD888586028470BD70B500240022EF
:102CE0000023058C4FF6EF7635400584028C8388EF
:102CF000048B48F6FF752C404FF6FF452C400D889D
:102D00004FF6FF7606EA05252C434FF6DF752A407D
:102D10000D8906EA05152A434D8806EA05152A435A
:102D2000444DA84202D0494DA8421DD14FF67F75AF
:102D30002A404D894FF6FF7606EA05152A434FF6DD
:102D4000BF752A408D8806EA05152A434FF6FF35E0
:102D50002B404FF2FF752B408D8906EA85052B43EA
:102D6000CD8906EA85052B4383800483CD880587BA
:102D7000028470BD70B5002400220023058C4FF63C
:102D8000FF6635400584028C8388848B4FF68F75EF
:102D90002C404FF6FC752C400D882C434FF6FF5508
:102DA0002A400D894FF6FF7606EA05252A434D880D
:102DB00006EA05252A431F4DA84202D0234DA8420A
:102DC0001DD14FF2FF752A404D894FF6FF7606EA76
:102DD00005252A434FF6FF352A408D8806EA05254A
:102DE0002A434EF6FF752B404DF6FF752B408D891B
:102DF00006EA05152B43CD8906EA05152B4383808A
:102E00008483CD888587028470BD70B5002200233D
:102E10000024058C4EF6FF7635400584038C8488AB
:102E2000828B48F6FF752A404FF6FF452A400D88F1
:102E300020E00000002C0140000400400008004099
:102E4000000C00400010004000140040003401401D
:102E5000004C014000500140005401400018004067
:102E6000001C0040002000400040014000440140A0
:102E7000004801404FF6FF7606EA05252A434DF645
:102E8000FF752B400D8906EA05352B434D8806EA70
:102E900005352B43FA4DA84202D0FA4DA84208D17D
:102EA0004BF6FF752C408D894FF6FF7606EA8515A7
:102EB0002C4384808283CD88A0F84050038470BD69
:102EC000828B4FF2FF331A408283828B4FF6FF735F
:102ED00003EA01231A4382837047F0B50C46154676
:102EE000002200210026078C4EF6FF7C07EA0C0723
:102EF0000784828B018C4FF6FF7707EA043640F691
:102F0000FF473A404FF6FF7707EA05273A434FF667
:102F1000FF7707EA03373A43D94FB8420ED0D94F6B
:102F2000B8420BD0B0F1804F08D0D74FB84205D08F
:102F3000D64FB84202D0D64FB84206D14DF6FF77F1
:102F4000394046F48057394305E047F6FF5739408A
:102F500044F48057394382830184F0BD828B4FF65D
:102F6000F3731A408283828B0A4382837047F0B5E1
:102F70000C461546002200210026078C4FF6FF6CF8
:102F800007EA0C070784828B018C4FF6FF7707EA6C
:102F900004264FF60C773A404FF6FF7707EA0317FF
:102FA0002F433A43B64FB8420ED0B64FB8420BD07B
:102FB000B0F1804F08D0B44FB84205D0B34FB842FB
:102FC00002D0B34FB84206D14FF6FF57394046F40E
:102FD0008077394305E04FF2FF57394044F480775A
:102FE000394382830184F0BD028B4FF2FF331A40D4
:102FF0000283028B4FF6FF7303EA01231A43028315
:103000007047F0B50C461546002200210026078CBB
:103010004FF6EF7C07EA0C070784028B018C4FF612
:10302000FF7707EA041640F6FF473A404FF6FF776E
:1030300007EA03373A434FF6FF7707EA05273A4393
:103040008F4FB8420ED08F4FB8420BD0B0F1804FA7
:1030500008D08D4FB84205D08C4FB84202D08C4F6B
:10306000B84206D14FF6DF77394046F010073943B2
:1030700005E04FF65F77394044F01007394302838B
:103080000184F0BD028B4FF6F3731A400283028B6A
:103090000A4302837047F0B50C4615460022002112
:1030A000068C4FF6FE773E400684028B018C4FF66D
:1030B0000C7632407E1C06EA03162E433243704ED5
:1030C000B0420ED06F4EB0420BD0B0F1804F08D05E
:1030D0006D4EB04205D06D4EB04202D06C4EB04243
:1030E00006D14FF6FD76314044F00106314305E04C
:1030F0004FF6F576314044F00106314302830184F6
:10310000F0BD70B505460C465D4885420ED05D4861
:1031100085420BD0B5F1804F08D05B48854205D081
:103120005A48854202D05A48854200D100E000BF8B
:10313000208850B92389A28861882846FFF7ABFF11
:10314000E1882846FFF79EFF25E0208804280AD161
:103150002389A28861882846FFF753FFE188284623
:10316000FFF742FF17E0208808280AD12389A288A8
:1031700061882846FFF7FBFEE1882846FFF7EEFE50
:1031800009E02389A28861882846FFF7A6FEE18826
:103190002846FFF795FE70BD2DE9F04105460C4627
:1031A00000260127608808B9022600E00026A088D2
:1031B000012801D1022700E001272088A0B9238936
:1031C000A28861882846FFF766FFE1882846FFF756
:1031D00059FF23893A4631462846FFF712FFE18816
:1031E0002846FFF701FF13E02389A288618828465B
:1031F000FFF707FFE1882846FFF7F6FE23893A46E6
:1032000031462846FFF747FFE1882846FFF73AFF97
:10321000BDE8F0810A884B881A438B881A43CB8813
:103220001A430B891A434B891A438B891A43A0F816
:10323000442070474FF6FF71818000210180C180DA
:103240004180017270470021018041808180C180EE
:10325000018141818181C1817047002101804180CC
:10326000012181800021C1800181704700210180FE
:1032700041808180C180018141818181704700004E
:10328000002C0140003401400004004000080040D0
:10329000000C004021B1028842F00102028004E0EB
:1032A00002884FF6FE731A400280704731B1B0F8C1
:1032B000442042F40042A0F8442005E0B0F8442045
:1032C000C2F30E02A0F8442070471AB183890B4361
:1032D000838102E083898B438381704781827047B9
:1032E00041EA0203A0F8483070471AB183890B43C2
:1032F000838102E083898B438381704701894FF684
:10330000F8721140018170470A46002101894FF689
:103310008F73194011430181704730B504460D4643
:1033200029462046FFF7F0FF208940F00700208162
:1033300030BD2DE9F04104460D4616461F46602D6E
:1033400006D13B46012231462046FFF75AFE05E0F2
:103350003B46012231462046FFF79DFE2946204686
:10336000FFF7D2FF208940F007002081BDE8F081FF
:1033700030B50C4600210189C9B24FF6FF7505EA48
:103380000325154325432943018130BD2DE9F04133
:1033900005460E4617469846002443463A463146AF
:1033A0002846FFF7E5FF2C894FF6F870044044F0FB
:1033B00007044FF68F70044044F070042C81BDE880
:1033C000F081F0B504460D4616461F463B46324690
:1033D00029462046FFF7CCFF208940F48040208119
:1033E000F0BD0185828270470A46002101884FF6B0
:1033F0008F731940114301807047F0B50C46154694
:103400001E460021002200230189028B038C4FF607
:10341000F877394021434FF6FC473A4040F2011714
:103420003A434FF6DD773B404FF6FF7707EA061742
:103430002F433B43018102830384F0BD0A460021F0
:10344000018B4FF68F7319401143018370470A4671
:103450000021018B48F6FF7319404FF6FF7303EA12
:1034600002231943018370470A460021818B4FF6DE
:103470008F7319401143818370470A460021818B65
:1034800048F6FF7319404FF6FF7303EA022319430E
:103490008183704721B1028842F08002028004E0FB
:1034A00002884FF67F731A400280704721B18288EC
:1034B00042F00402828004E082884FF6FB731A40D7
:1034C0008280704721B1828842F00802828004E045
:1034D00082884FF6F7731A408280704721B1828844
:1034E00042F00102828004E082884FF6FE731A40A7
:1034F000828070470A460021018B4FF6F77319400E
:103500001143018370470A460021018B4FF2FF737C
:1035100019404FF6FF7303EA0223194301837047F2
:103520000A460021818B4FF6F773194011438183BE
:1035300070470A460021818B4FF2FF7319404FF606
:10354000FF7303EA02231943818370470A4600216F
:10355000018B4FF6FB7319401143018370470A46F4
:103560000021018B4FF6FF3319404FF6FF7303EA3A
:1035700002231943018370470A460021818B4FF6CD
:10358000FB7319401143818370470A460021818BE8
:103590004FF6FF3319404FF6FF7303EA0223194336
:1035A000818370470A460021018B4FF67F731940D3
:1035B0001143018370470A460021018BC1F30E01BC
:1035C0004FF6FF7303EA02231943018370470A464B
:1035D0000021818B4FF67F7319401143818370471F
:1035E0000A460021818BC1F30E014FF6FF7303EAF7
:1035F00002231943818370470A460021018C4FF64C
:10360000FD7319401143018470470A460021018C63
:103610004FF6F77319401143018470470A460021A1
:10362000018C4FF6DF7319404FF6FF7303EA021364
:103630001943018470470A460021018C4FF67F73BD
:1036400019404FF6FF7303EA0213194301847047D0
:103650000A460021018C4FF6FF5319404FF6FF73C5
:1036600003EA02231943018470470A460021018CB2
:103670004FF2FF7319404FF6FF7303EA0223194319
:10368000018470470A460021018C4DF6FF731940F2
:103690004FF6FF7303EA023319430184704730B5D4
:1036A000002301248C40A3B2048C9C430484048C2A
:1036B00002FA01F5ADB22C43048430BD30B50023CD
:1036C00004248C40A3B2048C9C430484048C02FA2E
:1036D00001F5ADB22C43048430BD70B50346002023
:1036E00000241846183001258D40ACB21D8CA5432E
:1036F0001D8409B1082909D100EB6100056825F096
:10370000700505600568154305600EE00D1FC5F3E3
:103710004E052844056825F4E045056005684FF628
:10372000FF7606EA02263543056070BD21B10288A6
:1037300042F00202028004E002884FF6FD731A4054
:103740000280704721B1028842F00402028004E046
:1037500002884FF6FB731A400280704721B18288BD
:1037600042F08002828004E082884FF67F731A4024
:103770008280704702884FF6F7731A4002800288F1
:103780000A430280704782884FF68F731A40828006
:1037900082880A438280704702894FF6F8731A4084
:1037A000028102890A430281704702894FF67F73C2
:1037B0001A40028102890A4302817047818470475E
:1037C0008185704781867047018770478187704780
:1037D000A0F84010704702884FF6FF431A4002805D
:1037E00002880A43028070470146888E704701466E
:1037F000088F70470146888F70470146B1F8400036
:1038000070470146888C70470146088D7047024614
:103810000020138A0B400BB1012000E0002070470C
:10382000CA430282704730B50246002000230024BC
:10383000158A05EA0103958905EA010413B10CB163
:10384000012000E0002030BDCA4302827047000022
:1038500010B50446FB48844209D101218803FFF7D3
:103860009FF800214FF48040FFF79AF832E0F648C5
:10387000844209D101214804FFF79FF800214FF449
:103880000030FFF79AF825E0F048844209D1012181
:103890008804FFF792F800214FF48020FFF78DF89D
:1038A00018E0EB48844209D10121C804FFF785F8EC
:1038B00000214FF40020FFF780F80BE0E548844238
:1038C00008D101210805FFF778F800214FF4801096
:1038D000FFF773F810BD2DE9F04786B005460E4698
:1038E0000024A24600BFA1460027B08900B100BF56
:1038F0002F462C8A4CF6FF700440F08804432C823B
:10390000AC894EF6F3100440B088318908437189C0
:1039100008430443AC81AC8A4FF6FF400440B089B1
:103920000443AC8201A8FEF7B4FFC648874202D127
:10393000DDF810A001E0DDF80CA0A88900F400403B
:1039400040B10AEBCA0000EB0A1031684900B0FB35
:10395000F1F807E00AEBCA0000EB0A1031688900B1
:10396000B0FBF1F86420B8FBF0F0040120096421F9
:1039700001FB1089A88900F4004040B1322000EB1F
:10398000C900B0FBF1F000F00700044308E032206A
:1039900000EB09106421B0FBF1F000F00F000443CC
:1039A0002C8106B0BDE8F0874FF41651016000216C
:1039B0008180C18001810C2141810021818170477A
:1039C00010B502460020108A4FF2FF0318400B8802
:1039D0004C8823438C882343CC882343184310828C
:1039E00010BD0021018041808180C180704721B1DC
:1039F000828942F40052828104E082894DF6FF738D
:103A00001A4082817047F0B5034600240026002545
:103A1000002040F66A17B94200D100BF1846C1F332
:103A2000421401F01F06012707FA06F5012C01D107
:103A30000C3004E0022C01D1103000E014301AB137
:103A400007682F43076002E00768AF430760F0BDD7
:103A50001AB1838A0B43838202E0838A8B43838279
:103A60007047028A4FF6F0731A400282028A0A43B4
:103A70000282704782894FF2FF731A4082818289E5
:103A80000A438281704721B1828942F00202828119
:103A900004E082894FF6FD731A4082817047028AE2
:103AA0004FF6DF731A400282028A0A43028270478D
:103AB00021B1028A42F48042028204E0028A4BF67B
:103AC000FF731A4002827047C1F308028280704778
:103AD00001468888C0F308007047818941F00101E0
:103AE00081817047028BD2B20283028B42EA0122AB
:103AF00002837047028B02F47F420283028B0A43E7
:103B00000283704721B1828A42F02002828204E05F
:103B1000828A4FF6DF731A408282704721B1828A0F
:103B200042F01002828204E0828A4FF6EF731A405C
:103B30008282704721B1828A42F00802828204E0C8
:103B4000828A4FF6F7731A408282704721B18289C8
:103B500042F40042828103E08289C2F30E02828134
:103B6000704721B1828A42F40062828204E0828A34
:103B70004FF2FF731A4082827047828A4FF6FB73BE
:103B80001A408282828A0A438282704721B1828AE5
:103B900042F00202828204E0828A4FF6FD731A40EC
:103BA0008282704702460020B1F5007F00D100BF3D
:103BB00013880B400BB1012000E00020704701F496
:103BC0000072B2F5007F00D100BFCA430280704787
:103BD00070B50246002400230025002040F66A1636
:103BE000B14200D100BFC1F3421501F01F0301260D
:103BF00006FA03F3012D02D19689334006E0022D27
:103C000002D1168A334001E0968A33400C12012615
:103C100006FA04F41688344013B10CB1012000E018
:103C2000002070BD10B50022002340F66A14A142A6
:103C300000D100BF0A1201249440A3B2DC430480E7
:103C400010BD000000380140004400400048004022
:103C5000004C00400050004010B50446FA48844231
:103C600008D101214015FEF79BFE00216015FEF7EB
:103C700097FE17E0F548844208D101210015FEF7B0
:103C80008FFE00212015FEF78BFE0BE0F0488442EA
:103C900008D10121C803FEF783FE00214FF4004044
:103CA000FEF77EFE10BD30B50246002000235068AE
:103CB000E84C20400D790C6844EA0524204350600C
:103CC0009068E54C2040D1E902542C434D7944EAF8
:103CD000450420439060D06A20F470000C7C641E80
:103CE000E4B2234340EA0350D06230BD00210160BA
:103CF000017141718160C16001210174704721B17E
:103D0000826842F00102826003E0826822F00102D0
:103D10008260704721B1826842F48072826003E061
:103D2000826822F480728260704710B50023CBB2A3
:103D30001AB144681C43446002E044689C434460F8
:103D400010BD816841F00801816070470146002084
:103D50008A6802F008020AB1012000E000207047E2
:103D6000816841F0040181607047014600208A6843
:103D700002F004020AB1012000E00020704721B1E6
:103D8000826842F4A002826003E0826822F4A0020A
:103D900082607047014600208A6802F480020AB1FE
:103DA000012000E00020704710B50A4600210023E2
:103DB000416821F46041531E41EA4331416010BD26
:103DC00021B1426842F40062426003E0426822F49A
:103DD000006242607047F0B504460D4600200021A5
:103DE000092D11DDE068A5F10A0606EB4607072656
:103DF00006FA07F18843A5F10A0606EB460603FA20
:103E000006F10843E0600CE0206905EB4507072652
:103E100006FA07F1884305EB450603FA06F1084365
:103E20002061072A0FDA606B561E06EB86071F26F5
:103E300006FA07F18843561E06EB860605FA06F1D8
:103E40000843606322E00D2A0FDA206BD61F06EBD1
:103E500086071F2606FA07F18843D61F06EB86065B
:103E600005FA06F10843206310E0E06AA2F10D06AE
:103E700006EB86071F2606FA07F18843A2F10D0616
:103E800006EB860605FA06F10843E062F0BD21B1B3
:103E9000826842F48012826003E0826822F4801219
:103EA000826070470146C86C80B2704766484C30EB
:103EB0000068704721B1426842F48062426003E0CA
:103EC000426822F480624260704721B1426842F445
:103ED0008052426003E0426822F4805242607047A0
:103EE0000A460021816821F4E04111438160704756
:103EF00021B1826842F40042826003E0826822F4C9
:103F000000428260704721B1826842F402128260EE
:103F100003E0826822F402128260704701460020AA
:103F20008A6802F400120AB1012000E00020704704
:103F3000F0B504461546002000220026092911DDAF
:103F4000E068A1F10A0707EB470C072707FA0CF214
:103F50009043A1F10A0707EB470703FA07F2104362
:103F6000E0600CE0206901EB410C072707FA0CF236
:103F7000904301EB410703FA07F210432061A06B65
:103F8000C0F30156EF1C06F1010CA7EB0C0707EB81
:103F9000870C1F2707FA0CF29043EF1C06F1010C67
:103FA000A7EB0C0707EB870701FA07F21043A063A2
:103FB000F0BD10B50A4600210023816B21F44011A9
:103FC000531E41EA0351816310BD08B500230093DD
:103FD0000090009B0B440093009B1A6008BD08B53D
:103FE000024600200090009201F12800009B184436
:103FF00000900098006880B208BD0A460021416820
:10400000164B19401143416070474162826270470C
:104010000A460021416821F01F01114341607047A9
:1040200040B109490831096841F40001064A0832E3
:10403000116007E004490831096821F40001024ACF
:104040000832116070470000002401400028014040
:10405000003C0140FFFEF0FFFDF7F1FFFFFD3FFFD9
:104060000246002013680B400BB1012000E0002045
:104070007047CA430260704770B5024600200023B3
:1040800000240B125568CEB205EA060415681D40DF
:1040900015B10CB1012000E0002070BD00220A1211
:1040A000D343036070470000002044490860091DA5
:1040B0000860091D0860091D086041483F49143126
:1040C0000860704700213D498279002A3AD00A46AB
:1040D000126803689A430B461A600A1D1268036847
:1040E0009A430B1D1A60027911440A6803681A4347
:1040F0000A60324A0832126803689A432F4B083329
:104100001A601A1D126803689A432C4B0C331A600C
:104110004279102A0ED11A1F126803681A43274BDE
:1041200008331A601A1D126803681A43234B0C33B4
:104130001A600DE02149427911440A6803681A4364
:104140000A6005E0027911440A6803689A430A602C
:1041500070470021016001710C21417100218171C2
:1041600070471649103109680143144A1032116032
:10417000704701460020114A143212680A400AB101
:10418000012000E0002070470C491431086070479E
:10419000014600200022094B1B6803EA0102074B7D
:1041A00014331B680B4013B10AB1012000E000205A
:1041B0007047024914310860704700000004014054
:1041C000FFFF0F0010B50446BE48844208D101210C
:1041D0008014FEF7E5FB0021A014FEF7E1FB16E0DA
:1041E000B948844208D101210014FEF7E6FB002102
:1041F0002014FEF7E2FB0AE0B448844207D1012113
:10420000C013FEF7DAFB0021E013FEF7D6FB10BD6A
:1042100010B50022028802F441520B884C882343D7
:104220008C882343CC8823430C8923434C89234324
:104230008C892343CC8923431A430280838B4FF21A
:10424000FF74234083830B8A038210BD2DE9F04F56
:1042500085B005460C464FF0000902274FF00008D4
:104260004FF0010B0026B246A88B4FF240010840E8
:10427000A88302202884B5F81C90A068022801D1E8
:1042800000BF38E0A08810B94FF0010B01E04FF0FB
:10429000020B8D48854200D100E000BF6846FEF762
:1042A000F8FADDF800A0E088B0F5007F0AD14FEA07
:1042B0001A2000EB80004000A168B0FBF1F0401D27
:1042C00086B20BE04FEA4B10BAFBF0F000EB800037
:1042D0004000A168B0FBF1F0401D86B20A20B6FB99
:1042E000F0F606F00108A6EB0800C0F34F074FF602
:1042F000FF7000EA0828022F01DBFF2F02DD0227F2
:104300004FF00008E08840EA080038432884A0887D
:10431000A1890843618808432188084340F400606C
:1043200040EA0909A5F81C9005B0BDE8F08F00210E
:10433000018041808180C180018141818181C18171
:104340000721018270470021018041808180C18066
:104350000221816000218181704721B1028842F0F1
:104360004002028004E002884FF6BF731A400280C8
:10437000704721B1828B42F48062828304E0828B99
:104380004FF6FF331A408283704730B50024002374
:104390000C110125A540ABB21AB185881D4385805B
:1043A00002E085889D43858030BD1AB183880B4328
:1043B000838002E083888B438380704781817047CC
:1043C0000146888970474FF6FF62914204D0028807
:1043D00042F48072028004E002884FF6FF631A40C4
:1043E0000280704721B1828842F00402828004E09A
:1043F00082884FF6FB731A408280704702884FF222
:10440000FF731A40028002880A43028070470188C5
:1044100041F480510180704721B1028842F400527A
:10442000028004E002884DF6FF731A400280704754
:1044300002460020012901D0108B00E0908A7047CD
:104440000146088A7047B1F5804F04D1028842F4D2
:104450008042028004E002884BF6FF731A4002801B
:1044600070470246002013890B400BB1012000E089
:1044700000207047CA4302817047F0B50246002011
:1044800000240023002501F00F070126BE40B4B22E
:104490000B1101269E40B3B2968806EA03051689E1
:1044A000264016B10DB1012000E00020F0BD10B58E
:1044B000002201F00F040123A3409AB2D3430381E9
:1044C00010BD00000030014000380040003C0040BA
:1044D00001460020FE4A106800F0380008431060D2
:1044E0007047FB49096821F00801F94A116011463B
:1044F0000968014311607047F549096821F010010E
:10450000F34A116011460968014311607047F14890
:10451000EF494860F04848607047EE48EC49486011
:10452000ED4848607047EA48006940F08000E8497B
:1045300008617047E648006940F08000E44908617E
:1045400070470420E249C96801F0010109B1012066
:104550000EE0DF49C96801F0040109B1022007E05B
:10456000DB49C96801F0100109B1032000E0042013
:10457000704700B502460423FFF7E3FF034603E05C
:10458000FFF7DFFF0346521E012B01D1002AF7D1AE
:1045900002B90523184600BD30B5044604254FF482
:1045A0003020FFF7E6FF0546042D17D1C848006903
:1045B00040F00200C649086108464461006940F0C5
:1045C000400008614FF43020FFF7D3FF0546C04894
:1045D000006941F6FD710840BD490861284630BDBB
:1045E00010B504244FF43020FFF7C3FF0446042C19
:1045F00016D1B748006940F00400B5490861084683
:10460000006940F0400008614FF43020FFF7B1FF2F
:104610000446AF48006941F6FB710840AC490861A7
:10462000204610BD00B502460423FFF78AFF03466B
:1046300003E0FFF786FF0346521E012B01D1002A3B
:10464000F7D102B90523184600BD10B504244FF474
:104650003020FFF7E7FF0446042C16D19C48006980
:1046600040F004009A4908610846006940F04000A3
:1046700008614FF43020FFF7D5FF044694480069E5
:1046800041F6FB71084092490861204610BD0020A8
:104690008F49C96901F0020109B1012000E0002041
:1046A000704730B5A5250424FFF7F1FF00B10025C0
:1046B0004FF43020FFF75DFF0446042C3AD18548C3
:1046C00083498860844888600846006940F020007B
:1046D00008610846006940F0400008614FF430204E
:1046E000FFF747FF0446042C1BD17948006941F6C7
:1046F000DF710840764908610846006940F0100003
:10470000086176480580E002FFF733FF0446052C78
:1047100010D06F48006941F6EF7108406C4908619C
:1047200008E0052C06D06A48006941F6EF710840A0
:1047300067490861204630BD78B506460C46042519
:1047400000200090E802FFF714FF0546042D24D155
:104750005F48006940F001005D4908613480E8026B
:10476000FFF707FF0546042D10D1B01C0090200C68
:1047700000990880E802FFF7FCFE054654480069EE
:1047800041F6FE7108405249086106E05048006950
:1047900041F6FE7108404E490861284678BD70B563
:1047A00004460D460426F002FFF7E3FE0646042EFB
:1047B00011D14748006940F0010045490861258052
:1047C000F002FFF7D6FE06464148006941F6FE7149
:1047D00008403F490861304670BD70B505460E4639
:1047E0000424E002FFF7C5FE0446042C17D1394823
:1047F00037498860384888600846006940F01000F2
:1048000008612E80E002FFF7B4FE0446052C06D0B6
:104810002F48006941F6EF7108402D490861204694
:1048200070BD2DE9F04304464FF6FF763746B0469B
:10483000B1460425E443E6B2C4F30727C4F30748AE
:104840004FEA1469E802FFF794FE0546042D49D1AA
:1048500020481F498860204888600846006940F069
:1048600010000861FF2E06D01C4808300680E802C0
:10487000FFF77FFE0546042D08D1FF2F06D017480D
:104880000A300780E802FFF774FE0546042D0AD1BE
:10489000B8F1FF0F07D011480C30A0F80080E802F3
:1048A000FFF767FE0546042D0AD1B9F1FF0F07D0C7
:1048B0000A480E30A0F80090E802FFF75AFE0546BD
:1048C000052D0FD00248006941F6EF71084007E05E
:1048D0000020024023016745AB89EFCD00F8FF1FA0
:1048E000664908612846BDE8F08330B505460424D2
:1048F0004FF43020FFF73DFE0446042C41D16048C0
:104900005E4988605F4888600846006940F0200082
:1049100008610846006940F0400008614FF430200B
:10492000FFF727FE0446042C22D15448006941F6C3
:10493000DF710840514908610846006940F01000E5
:1049400008611DB100205049088002E0A5204E49B1
:1049500008804FF43020FFF70CFE0446052C10D0E1
:104960004648006941F6EF7108404449086108E093
:10497000052C06D04148006941F6DF7108403F49E7
:104980000861204630BDF0B505460E4617460424A2
:104990003B483A4988603B488860E002FFF7E9FD00
:1049A0000446042C19D13548006940F01000334901
:1049B000086147F0F800304328433349891C0880D8
:1049C000E002FFF7D6FD0446052C06D02B4800690F
:1049D00041F6EF710840294908612046F0BD27489B
:1049E000C069800870472548006A70470020234945
:1049F000096801F0200109B1012000E000207047A2
:104A000029B11E4A126902431C4B1A6104E01B4A79
:104A100012698243194B1A6170470146002001292F
:104A200008D1164AD26902F001020AB1012008E059
:104A3000002006E0114AD2680A400AB1012000E0D5
:104A4000002070470D49C860704704200B49C968B1
:104A500001F0010109B101200EE00849C96801F027
:104A6000040109B1022007E00449C96801F01001FE
:104A700009B1032000E0042070470000002002403C
:104A800023016745AB89EFCD00F8FF1F01684FF6A2
:104A9000FE72114001600021016041608160C160CF
:104AA0008D49884208D18C490839496841F00F0185
:104AB000894A083A51608AE087491431884208D10E
:104AC00085490839496841F0F001834A083A516044
:104AD0007DE081492831884208D17F4908394968F9
:104AE00041F470617C4A083A516070E07A493C3187
:104AF000884208D178490839496841F47041764ABA
:104B0000083A516063E074495031884208D17249D3
:104B10000839496841F470216F4A083A516056E0FB
:104B20006D496431884208D16B490839496841F4BC
:104B30007001694A083A516049E067497831884212
:104B400008D165490839496841F07061624A083AFC
:104B500051603CE06149884206D1011F096841F07B
:104B60000F01021F116032E05C491431884208D104
:104B70005A49091F096841F0F001584A121F116093
:104B800025E056492831884208D15449091F09684F
:104B900041F47061514A121F116018E04F493C31D5
:104BA000884208D14D49091F096841F470414B4AB8
:104BB000121F11600BE049495031884207D1474923
:104BC000091F096841F47021444A121F116070479F
:104BD00010B50022026847F6F0739A430C6A8B689E
:104BE00023430C6923434C6923438C692343CC69D9
:104BF00023434C6A23438C6A23431A430260CB68E5
:104C000043600B6883604B68C36010BD0021016086
:104C100041608160C160016141618161C161016286
:104C200041628162704721B1026842F00102026074
:104C300004E002684FF6FE731A40026070471AB132
:104C400003680B43036002E003688B430360704713
:104C5000416070470146486880B2704701460020B5
:104C6000002201F080531BB11C4B083B1A6802E084
:104C7000194B083B1A6802EA01030BB1012000E05E
:104C80000020704700F0805119B11449091F0860D5
:104C900002E01149083948607047014600200022AF
:104CA00001F080531BB10D4B083B1A6802E00A4B20
:104CB000083B1A6802EA01030BB1012000E0002062
:104CC000704700F0805119B10449091F086002E0E3
:104CD0000149083948607047080002400804024052
:104CE000421C10F8011B0029FBD1801A704770B5D7
:104CF000064600F069FB046805460A22002130469A
:104D000000F049F82C6070BD30B50B46014600201C
:104D10002022012409E021FA02F59D4205D303FA7D
:104D200002F5491B04FA02F52844151EA2F10102FE
:104D3000F1DC30BD2DE9F05F0546002092469B4630
:104D400088460646814640241BE0284641464746A1
:104D5000224600F032FA53465A46C01A914110D307
:104D600011461846224600F019FA2D1A67EB010881
:104D70004F4622460120002100F010FA17EB0009EF
:104D80004E41201EA4F10104DFDC484631462A468C
:104D90004346BDE8F09F2DE9F04791460F46804617
:104DA0000446002614F8015B2DB100F029FA0068D2
:104DB000405DC007F6D12B2D02D02D2D18D0641EDA
:104DC0004A463946204600F01FFA27B13968A14209
:104DD00001D1C7F8008071054FF002040BD54042A5
:104DE000002803DD00F0F0FA0460A007BDE8F087BA
:104DF00046F48066E4E70028F8DA00F0E5FA04609B
:104E00006FF00040F2E72DE9FE4F804681EA030093
:104E1000C00F0C46009021F0004123F00045B8EB94
:104E20000200A94105D24046214690461C460B4649
:104E3000024623F00040104347D0270DC7F30A0075
:104E4000C3F30A510290401A019040286BDAC3F371
:104E5000130040F4801B0098924620B10023D2EB4F
:104E6000030A63EB0B0B01985946C0F14002504610
:104E700000F094F906460D4650465946019A00F056
:104E8000ACF910EB08006141002487EA115284EA72
:104E9000E7731A4340D0009A62B3019A012A4FEA9D
:104EA000075215DC001B61EB02014FF0004202EAE1
:104EB0000752CDE90042001C41F5801132462B46D5
:104EC00000F000FA03B0BDE8F08F40462146F9E754
:104ED000001B61EB0201001C41F5801300185B41CF
:104EE0002018A2F5001747EB030140EAD570B61968
:104EF0006D4111E06D084FEA360645EAC0754FEA8C
:104F00000752001B61EB0201001C41F580114908AA
:104F10004FEA30000019514132462B4603B0BDE83C
:104F2000F04F00F0C0B90098012240000023D0EB00
:104F3000020263EBE073009821464FEAE074B8EB9D
:104F4000000061EB0401E9E783F000435BE781F0D7
:104F5000004158E72DE9FE4F81EA030404F00044C4
:104F600021F0004100944FF0000B23F0004350EA81
:104F700001045ED052EA03045BD0C3F30A54C1F3C8
:104F80000A552C44A4F2F3340194A0FB0254C1F35B
:104F9000130141F48011C3F3130343F4801301FBA5
:104FA000024400FB034E840A970A44EA815447EA0C
:104FB0008357A4FB076802958D0A05FB07854FEA16
:104FC000932C04FB0C542705029D4FEA065847EA30
:104FD0001637B5EB08056EEB070C870E920E47EA05
:104FE000811742EA8312A7FB0201B6EB0B0164EBC7
:104FF00000042B0D43EA0C335E1844EB1C50DA46D8
:105000005146E7FB0201C5F313044FEA0B3343EAB1
:1050100014534FEA0432019C43EA0603A4F10C0442
:105020000294009CCDE900B400F04CF903B0BDE857
:10503000F08F00200146F9E72DE9F04D81EA0304E5
:1050400004F0004B21F0004514464FF0000A23F015
:10505000004150EA050220D054EA01021DD0C5F3F8
:105060000A570246C5F31303C1F31300C1F30A56EE
:1050700040F4801543F48013A7EB0608101BD646B6
:1050800008F2FD3873EB050002D308F1010801E0D6
:1050900092185B41B8F1000F03DA00200146BDE829
:1050A000F08D00204FF48011064684460EE0171B59
:1050B00073EB050705D3121B63EB050306434CEAAC
:1050C000010C49084FEA300092185B4150EA010791
:1050D000EDD152EA030012D082EA040083EA05010E
:1050E000084305D0101BAB4106D20122002306E085
:1050F00000224FF0004302E06FF0010253101AEB60
:1051000006004CEB085110EB0A0041EB0B01BDE827
:10511000F04D00F0C8B8C1F30A52C1F3130140F2D8
:10512000FF3341F480119A4202DA002001467047B1
:1051300040F233439A42A2F2334202DC524200F080
:105140003CB800F02BB8000030B5041E71F100042B
:1051500004DB4FF00044404264EB0101141E73F184
:10516000000405DB1C464FF00043524263EB04038E
:10517000994208BF904230BD064C074D06E0E068FA
:1051800040F0010394E8070098471034AC42F6D38E
:10519000FAF7D2FF405F0008605F0008202A04DBB6
:1051A000203A00FA02F1002070479140C2F120033A
:1051B00020FA03F3194390407047202A04DB203A79
:1051C00021FA02F00021704721FA02F3D040C2F127
:1051D00020029140084319467047202A06DBCB176E
:1051E000203A41FA02F043EAE07306E041FA02F3A2
:1051F000D040C2F120029140084319467047000098
:1052000000487047F45E00082DE9F05F82460078A0
:10521000002715468B460AF10104B946302801D013
:105220009DB113E014F8010B0127782803D058280A
:1052300001D045B10AE00DB1102D07D1002710258E
:1052400014F8010B02E0082500E00A250026B0460C
:105250000EE005FB080005FB06F1012701EB1046F7
:105260001FFA80F8B6F5803F00D3B94614F8010B59
:10527000294600F075F80028EBDABBF1000F05D0E5
:105280000FB1641E00E05446CBF80040B9F1000FA6
:1052900006D000F099F802210160C81EBDE8F09F19
:1052A00048EA0640FAE710B5141E73F1000408DA64
:1052B000401C41F1000192185B411A4301D120F0DA
:1052C000010010BD2DE9F04D92469B4611B1B1FA97
:1052D00081F202E0B0FA80F220329046FFF75EFFE2
:1052E00004460F4640EA0A0041EA0B0153465A467B
:1052F000084313D0114653EA010019D0C8F1400207
:105300005046FFF75AFF05460E465046594642465C
:10531000FFF744FF084305D0012004E0204639464A
:10532000BDE8F08D0020054346EAE0762C43374384
:105330000A986305E40AA0EB08000022FD0A44EA8B
:1053400047540A3002D500200146E9E7010510194B
:105350006941DDE9084500196941BDE8F04DA2E762
:105360003A2800D2303820F02002412A01D3A2F19D
:105370003700884201D34FF0FF3070470FB4054B20
:1053800010B503A9044A029800F0F4F810BC5DF8C7
:1053900014FB0000B51F0008DC0000207CB50446AB
:1053A00000201D46164600290BD0491ECDE90041BC
:1053B000044B6A462946304600F0B8F9009A0021AD
:1053C00011707CBD5B5E000800487047E000002063
:1053D00002E008C8121F08C1002AFAD170477047BE
:1053E000002001E001C1121F002AFBD1704700001C
:1053F0002DE9FF5F82B00021DDE90430020DDDF808
:1054000040B0034318D044F61050A2F2FF3242439A
:105410001514119801281FD0A5EB0B00401C5FEA62
:10542000000A4FF000064E4FDFF83891B046504664
:1054300015D5CAF1000413E0119801244AA30128EC
:1054400001D16FEA0B010298119AC0E90031C0E95D
:10545000024206B0BDE8F09FCBF10000DFE7044652
:105460000021404A491842EB0450CDE9001012E0F7
:10547000E00707D032463B4640464946FFF76AFD03
:105480008046894632463B4610461946FFF762FD84
:1054900006460F466410002CEAD1DDE90401DDE97F
:1054A0000023BAF1000F06DAFFF754FD42464B46DF
:1054B000FFF750FD05E0FFF7BFFD42464B46FFF703
:1054C000BBFD04460E460022284BFFF73DFE03D8E5
:1054D0004FF0FF30014607E00022254B20463146C1
:1054E000FFF791FCFFF717FE102409E0002C0ADB00
:1054F0000A220023FFF71EFC039B30321A55641E5C
:1055000050EA0102F2D1641C039AC4F1110314445D
:10551000119A012A03D0012208430DD10AE0084361
:1055200004D000204FF0110B119072E7A3EB0B0594
:105530006D1E0DE05B4504DD4FF0000205F1010535
:1055400004E003DA4FF00002A5F10105002AECD0D7
:1055500002981199C0E90231C0E9004579E70000DD
:10556000000014400000F03F300000000000F04355
:105570000000E03F2DE9FF4F8BB09A460F460546ED
:10558000002606E025280BD052460D9990476D1C49
:10559000761C28780028F5D10FB03046BDE8F08F92
:1055A0000024A0460122604900E0044315F8013FB1
:1055B000203B02FA03F00842F7D128782E2817D1B1
:1055C00015F8010F44F004042A280ED06FF02F02C2
:1055D0002878A0F1300109290AD808EB880102EBEC
:1055E000410100EB01086D1CF2E757F8048B6D1CBC
:1055F000287869283ED006DC0028CDD063280BD05F
:10560000642804D136E0732810D075284BD0524658
:105610000D999047761C85E017F8040B8DF8000073
:1056200000208DF80100E946012003E057F8049BB3
:105630004FF0FF3061074FF0000401D40AE0641C12
:1056400044450DDA8442FADB19F804100029F6D13A
:1056500006E0641C8442FCDB19F804100029F8D130
:10566000264404E019F8010B52460D999047641E38
:10567000F8D257E001CF4FF00A0B002802DA40427F
:105680002D2102E0210504D52B218DF824100121C4
:1056900003E0E10705D02021F7E70DF1200908918B
:1056A0000CE00021F9E701CF4FF00A0BF9E759466A
:1056B000FFF72AFB01F1300209F8012D0028F6D18D
:1056C000ADEB090000F1200B600701D44FF0010899
:1056D000D84502DDA8EB0B0000E000208046002446
:1056E00006E009A85246005D0D999047641C761C9F
:1056F00008988442F5DB04E0302052460D9990472B
:10570000761CB8F10001A8F10108F5DC05E019F8F4
:10571000010B52460D999047761CBBF10001ABF18D
:10572000010BF4DC6D1C34E7092801002DE9FF4F63
:1057300095B09B468946064600250FE2252877D17D
:1057400000242746F84A0121059400E0044316F896
:10575000013F203B01FA03F01042F7D130782A28AC
:1057600011D06FF02F033078A0F13002092A16D83B
:10577000059A44F0020402EB820203EB4202104459
:10578000761C0590EFE759F8042B0592002A03DAFE
:10579000504244F40054059044F00204761C3078E2
:1057A0002E2816D116F8010F44F004042A280DD033
:1057B0006FF02F023078A0F13003092B09D807EBE6
:1057C000870302EB4303C718761CF3E759F8047B01
:1057D000761C30786C280FD006DC4C2817D068284F
:1057E0000DD06A2814D104E0742810D07A280FD183
:1057F0000DE044F400140AE044F4801401E044F4A1
:1058000040147278824202D104F58014761C761C12
:10581000307866280BD013DC582877D009DC0028B4
:1058200075D04528F6D04628F4D047281AD19DE1F6
:1058300018E0632835D0642879D0652812D195E125
:10584000702873D008DC6728F1D069286FD06E28E3
:105850000DD06F2806D1B5E073282CD0752875D0EF
:10586000782874D05A46179990476D1C75E1C4F397
:105870000250022809D003280DD0D9F800100428BE
:105880000DD00D6009F1040967E1D9F80010EA179D
:10589000C1E90052F6E7D9F800100D80F2E70D706B
:1058A000F0E719F8041B8DF8001000208DF80100B6
:1058B000EA46012003E059F804AB4FF0FF306107DE
:1058C0004FF0000102D40DE008F101018846B94211
:1058D0000FDA8045F8DB1AF808100029F4D108E047
:1058E00008F1010188468142FADB1AF80810002904
:1058F000F6D105985B46A0EB080721463846179A73
:1059000000F094FA284400EB080507E04DE029E197
:105910000DE01AF8010B5A4617999047B8F10108A3
:10592000F7D25B4621463846179A13E142E00A2235
:105930000092C4F302524FF0000A022A08D059F82C
:1059400004CB032A4FEAEC710AD00DE029E02AE0EB
:1059500009F1070121F00702F2E802C1914609E0CE
:105960000FFA8CFC4FEAEC71042A03D14FFA8CFC3D
:105970004FEAEC71002907DA0A460021DCF1000C3D
:1059800061EB02012D2202E0220504D52B228DF8C5
:105990000420012203E0E20701D02022F7E790462D
:1059A00059E00A2102E010220DE010214FF0000A18
:1059B00000910BE010224FF0000A44F00404082785
:1059C000009203E008224FF0000A0092C4F3025252
:1059D000022A05D059F804CB0021032A08D009E097
:1059E00009F1070121F00702F2E802C1914605E042
:1059F0001FFA8CFC042A01D10CF0FF0C4FF00008B8
:105A0000220728D5702806D0009B83F0100353EAA4
:105A10000A0305D00EE040228DF80420012208E0A0
:105A20005CEA010206D030228DF804208DF80500D2
:105A300002229046009B83F0080353EA0A030AD12E
:105A40005CEA010201D1620705D530228DF80420FD
:105A50004FF001087F1E582804D034A003900EA8F0
:105A600002900DE036A0F9E753466046009AFFF732
:105A700061F984460398825C0298401E029002708D
:105A80005CEA0100F0D1029806A9081A00F1200A88
:105A9000600702D524F4803400E00127574502DD79
:105AA000A7EB0A0000E0002000EB0A010090059837
:105AB0004144401A0590E00306D45B462146179AFC
:105AC000059800F0B3F90544002706E001A85A46FE
:105AD000C05D179990476D1C7F1C4745F6DBE003BE
