:020000040800F2
:10000000701900204D350008CD020008CF0200080D
:10001000D3020008D7020008DB020008000000003D
:10002000000000000000000000000000DF020008E7
:10003000E102000800000000E3020008E5020008F9
:100040006735000867350008673500086735000820
:1000500067350008673500086D1700086735000828
:100060006735000867350008673500086735000800
:1000700067350008673500086735000867350008F0
:1000800067350008673500086735000867350008E0
:1000900067350008673500086735000867350008D0
:1000A00067350008673500086735000867350008C0
:1000B000AB02000821050008673500086735000815
:1000C00067350008673500086735000867350008A0
:1000D00067350008FF3300088734000867350008DB
:1000E0006735000867350008673500086735000880
:1000F0006735000867350008673500086735000870
:10010000673500086735000867350008673500085F
:10011000673500086735000867350008673500084F
:10012000673500086735000867350008673500083F
:10013000DFF80CD005F0FEFD004800474102000842
:10014000701900200EB50121084603F0A8FD092012
:10015000ADF8040041F61F40ADF800000020ADF8F6
:100160000600ADF8020069464FF0804003F0C2FE81
:1001700001221146900704F034FA0121880704F0A7
:1001800015FA0EBD08B500214FF0006003F027FA04
:100190004FF4C06003F0ECF91C208DF80000002043
:1001A0008DF801008DF8020001208DF803006846EB
:1001B00003F0E3F908BD10B503F0F6FB4FF480300F
:1001C00003F012FC03F04FFC0446012C2FD1102049
:1001D00004F070FF022004F059FF002003F089FCB6
:1001E000002003F098FCA00203F08CFC4FF4E01117
:1001F000200403F061FC012003F06AFC00BF3920F9
:1002000003F015FC0028FAD0022003F064FC00BFC4
:1002100003F06AFC0828FBD1012003F06BFD0121EB
:10022000084603F03CFD01213D2003F02BFD10BDED
:1002300010B5FFF7C0FFFFF7A5FFFFF783FF10BD65
:10024000FFF7F6FF02F0CAFE4FF4A06003F090F94A
:1002500041F61F41092000F037F94FF4E13003F077
:1002600014F801F0BFF801F019F901F02DFB01209D
:1002700002F0F8F8012002F036FD022001F0B7FA92
:1002800001F041FA00F0EEFE00F04AFF00F0AFFF8F
:1002900000F055FF0B490C4800F04CFE642002F0C2
:1002A000DAFE01E000F0CBFFFCE710B50121880782
:1002B00004F045FC012803D10121800704F050FC23
:1002C00010BD00002000002018000020704700BF73
:1002D000FEE700BFFEE700BFFEE700BFFEE7704796
:1002E00070477047704700000CB5002001900090E7
:1002F0006C48006840F480306A49086000BF694873
:10030000006800F4003000900198401C01900098B3
:1003100018B90198B0F5A06FF1D16248006800F4F7
:10032000003010B10120009001E000200090009802
:10033000012843D15C48006840F010005A49086029
:100340000846006820F0030008600846006840F096
:1003500002000860534840685249486008464068B7
:1003600048600846406840F480604860084640683D
:1003700020F47C1048600846406840F4E81048606B
:100380000846006840F08070086000BF454800687B
:1003900000F000700028F9D04248406820F00300C7
:1003A000404948600846406840F00200486000BF8D
:1003B0003C48406800F00C000828F9D10CBD10B58D
:1003C000FFF792FF10BD10B53648006840F00100FD
:1003D000344908600846406834490840314948605B
:1003E00008460068324908402E49086008460068FF
:1003F00020F4802008600846406820F4FE00486031
:100400004FF41F008860FFF7DAFF4FF000602949C2
:10041000086010BD10B5002100200022214B5B6850
:1004200003F00C0121B1042906D0082928D107E0E6
:10043000214B224C236027E01F4B204C236023E0FC
:10044000184B5B6803F47010164B5B6803F4803242
:10045000022303EB904022B9194B4343174C23600E
:100460000DE0104B5B6803F4003323B1144B43439E
:10047000124C236003E0104B4343104C236003E015
:100480000D4B0E4C236000BF00BF064B5B68C3F3EF
:1004900003130C4CE15C094B1B68CB40074C2360F9
:1004A00010BD000000100240002002400000FFF8D4
:1004B000FFFFF6FE08ED00E000127A0000000020C9
:1004C00000093D00040000207FB505460C460121CF
:1004D000022003F0E4FBADF80850ADF80440002022
:1004E000ADF80A00ADF8060001A9274803F002FDA7
:1004F00001221146244804F074F81D208DF80000F4
:1005000002208DF801008DF8020001208DF8030013
:10051000684603F032F801211B4804F047F87FBD1C
:1005200010B50121184804F00AFB58B30121164800
:1005300004F016FB15480068401C14490860144874
:100540000088401C1249088008460088B0F57A7F70
:1005500001DD002008800D480068B0F5FA7F04D165
:10056000002210210B4803F082F908480068B0F51A
:100570007A7F07D101221021064803F078F9002084
:100580000249086010BD0000000400401400002073
:10059000520000200008014010B504464FF4847159
:1005A00001EB4410102100F02CFE00BF4FF48471C9
:1005B00001EB441000F02DFE0028F7D14FF402713A
:1005C00001EB4410FF2100F01CFE10BD2DE9F041AD
:1005D00004460D461646984605F00F0001280FD038
:1005E00005F00F0002280BD005F00F00032807D0FC
:1005F00005F00F00042803D005F00F00052841D1B5
:100600002046FFF7C9FF45EA0801082202EB441023
:1006100000F0F7FD76B1310A4FF4816202EB44102D
:1006200000F0EFFDF1B24FF4A16202EB441000F0D4
:10063000E8FD15E0FE480088401CFD4908800A4698
:100640001288110A4FF4816202EB441000F0D9FDC8
:10065000F74A11784FF4A16202EB441000F0D1FD8B
:100660004FF4847101EB4410012100F0CAFD00BF7A
:100670004FF4847101EB441000F0CBFD0028F7D15A
:10068000012700E000273846BDE8F08170B5044638
:100690004FF4427101EB441000F0BBFD132811D15F
:1006A0004FF4847101EB4410022100F0AAFD00BF59
:1006B0004FF4847101EB441000F0ABFD0028F7D13A
:1006C000012500E00025284670BD2DE9F0410546D2
:1006D0000C4616462078FF2808D16078FF2805D1FF
:1006E000A078FF2802D1E078FF2808D0207828B928
:1006F000607818B9A07808B9E07800B10EB9002781
:100700005CE00127217840F6084202EB451000F03A
:1007100078FD617840F6085202EB451000F071FD5B
:10072000A17840F6086202EB451000F06AFDE1781E
:1007300040F6087202EB451000F063FD310A41F209
:10074000080202EB451000F05CFDF1B241F2081224
:1007500002EB451000F055FD4FF4847101EB45109C
:10076000042100F04EFD00BF4FF4847101EB4510F1
:1007700000F04FFD0028F7D117E04FF4427101EB74
:10078000451000F046FD172800D116E0284600F07D
:10079000ECFA00F0080040B14FF4027101EB451093
:1007A000082100F02EFD002707E04FF4427101EB15
:1007B000451000F02EFD1528DFD100BF3846BDE8FA
:1007C000F08110B504464FF4847101EB4410082108
:1007D00000F017FD00BF4FF4847101EB441000F0EE
:1007E00018FD0028F7D110BD2DE9F04704468846D2
:1007F000164600250027A946204600F026FAB042FA
:1008000004DA204600F021FA074600E0374600BF30
:10081000204600F0C7FA81464FF4427101EB4410C4
:1008200000F0F7FC0546172D03D01C2D01D0002742
:1008300001E0B945ECDB00BF3A464146204600F0F6
:1008400005FB4FF4847101EB4410202100F0D9FC2A
:1008500000BF4FF4847101EB441000F0DAFC002873
:10086000F7D113E04FF4427101EB441000F0D1FCDA
:100870000546172D0AD01C2D08D06EA005F05CFB94
:100880002046FFF789FE0020BDE8F0874FF4027193
:1008900001EB441000F0BDFC00F010001028E1D185
:1008A0004FF4027101EB4410102100F0AAFC4FF448
:1008B000027101EB4410102100F0A3FC3846E3E77D
:1008C0002DE9F04104460E4615460027002D15DDA2
:1008D0002A463146204600F0F3FA4FF4847101EBCA
:1008E0004410402100F08DFC00BF4FF4847101EBF7
:1008F000441000F08EFC0028F7D12F463846BDE8A2
:10090000F0812DE9F0470446894616461D46089FAA
:100910004FF00008204600F098F9B04204DA204673
:1009200000F093F9804600E0B046287828B968784E
:1009300018B9A87808B9E87800B117B94FF00008DD
:1009400063E0297840F6084202EB441000F059FCBD
:10095000697840F6085202EB441000F052FCA97886
:1009600040F6086202EB441000F04BFCE97840F6D8
:10097000087202EB441000F044FC390A41F208020C
:1009800002EB441000F03DFCF9B241F2081202EB18
:10099000441000F036FC42464946204600F056FA24
:1009A0004FF4847101EB4410202100F02AFC00BFB9
:1009B0004FF4847101EB441000F02BFC0028F7D1B8
:1009C00012E04FF4027101EB441000F022FC00F041
:1009D000080048B14FF4027101EB4410182100F0F7
:1009E00010FC0020BDE8F0874FF4027101EB4410C9
:1009F00000F00FFC00F010001028E2D14FF402715B
:100A000001EB4410102100F0FCFB4046EAE72DE921
:100A1000FC5F05468A4691461E46DDF83080002779
:100A20000024A346B9F1000F73DD42F608010DE082
:100A30003E0000202053454E445F4F4B2050726FC4
:100A4000626C656D21210D0A0000000001EB45106C
:100A500000F0DFFB044642F6081101EB451000F000
:100A6000D8FB00EB042084B2200200EB451000F11B
:100A7000180B082101EB451000F0CBFB00F007003C
:100A8000022804D0032845D0042878D178E0082231
:100A90006946584600F023FB04F1080084B29DF833
:100AA000000030709DF8010070709DF80200B07079
:100AB0009DF80300F0709DF80400A8F800009DF870
:100AC000050098F8001000EB0120A8F800009DF840
:100AD00006709DF8070000EB072087B2200200EBAC
:100AE000451000F1180B3A465146584600F0F7FA07
:100AF000E01984B2210A42F6080202EB451000F028
:100B000080FBE1B242F6081202EB451000F079FBDF
:100B10006AE07AE006226946584600F0E0FAA01D35
:100B200084B29DF8000030709DF8010070709DF84F
:100B30000200B0709DF80300F0709DF804709DF8FD
:100B4000050000EB072087B2200200EB451000F102
:100B5000180B3A465146584600F0C1FAE01984B2E3
:100B6000210A42F6080202EB451000F04AFBE1B20E
:100B700042F6081202EB451000F043FB34E032E08D
:100B800002226946584600F0AAFAA01C84B29DF8D9
:100B900000709DF8010000EB0720801E87B240F234
:100BA000EA50874204DD1AA005F0C6F900BFFEE74F
:100BB000200200EB451000F1180B3A46514658460A
:100BC00000F08DFAE01984B2210A42F6080202EB25
:100BD000451000F016FBE1B242F6081202EB451098
:100BE00000F00FFB00E000BF00BF4FF4847101EB89
:100BF0004510402100F005FB00BF4FF4847101EB6C
:100C0000451000F006FB0028F7D13846BDE8FC9FF0
:100C100020646174615F6C656E206F76657220314F
:100C20003531340D0A00000010B50446214600207D
:100C300000F0E7FA10BD10B58020FFF7F5FF10BDFA
:100C40000146ED4830F8110070470146EB4830F896
:100C50001100704710B5044604222146900100F0AF
:100C600021FA10BD10B5044604222146900100F07F
:100C700036FA10BD10B50446042221464FF4A06098
:100C800000F010FA10BD10B50446062221464FF4BC
:100C9000106000F007FA10BD10B50446042221468A
:100CA0004FF4706000F0FEF910BD10B50446042248
:100CB00021464FF4A06000F012FA10BD10B50446B2
:100CC000062221464FF4106000F009FA10BD10B55D
:100CD0000446042221464FF4706000F000FA10BD73
:100CE00010B54FF4A85000F094FA10BD10B50446AA
:100CF000210A4FF4C85000F084FAE1B24FF4D0500A
:100D000000F07FFA10BD10B5044621464FF4D850CC
:100D100000F077FA10BD70B50446FFF7E1FF60EA16
:100D20000400C5B229464FF4A85000F06AFA70BD1D
:100D300070B504460D46290A41F2082202EB441020
:100D400000F05FFAE9B241F2083202EB441000F021
:100D500058FA70BD70B504460D4641F2086101EBCA
:100D60004410294600F04DFA70BD10B504464FF40A
:100D7000027101EB441000F04CFA10BD70B504464E
:100D80000D464FF4027101EB4410294600F039FA88
:100D900070BD10B504464FF4427101EB441000F0F1
:100DA00038FA10BD70B504460025002600BF42F297
:100DB000080101EB441000F02CFA064642F208113B
:100DC00001EB441000F025FA00EB062086B27EB15C
:100DD00042F2080101EB441000F01BFA054642F212
:100DE000081101EB441000F014FA00EB052085B265
:100DF000B542DCD1284670BD70B5044600250026FA
:100E000000BF42F2086101EB441000F002FA06460E
:100E100042F2087101EB441000F0FBF900EB0620F0
:100E200086B27EB142F2086101EB441000F0F1F9A4
:100E3000054642F2087101EB441000F0EAF900EBBC
:100E4000052085B2B542DCD1284670BD2DE9F041C0
:100E500004460F4616460025A8462EB9214668A02E
:100E600005F06AF8BDE8F08142F2084101EB441058
:100E700000F0CFF9054642F2085101EB441000F0B2
:100E8000C8F900EB052085B2280200EB441000F100
:100E9000100832463946404600F004F9A81985B2D8
:100EA000290A42F2084202EB441000F0AAF9E9B222
:100EB00042F2085202EB441000F0A3F900BFD1E760
:100EC0002DE9F04104460F4616460025A8462EB9E6
:100ED000214653A005F030F8BDE8F08142F6080144
:100EE00001EB441000F095F9054642F6081101EBBC
:100EF000441000F08EF900EB052085B2280200EBCB
:100F0000441000F1180832463946404600F0E7F830
:100F1000A81985B2290A42F6080202EB441000F033
:100F200070F9E9B242F6081202EB441000F069F9D8
:100F300000BFD1E72DE9F04105460E460027B8462F
:100F4000002433E0295D41F6087202EB441000F002
:100F500058F9315D41F6086202EB441000F051F996
:100F60000020264921F81400234921F81400B7F580
:100F7000804F07DC285D4FF6FF7101EA80201F4992
:100F800021F81400B8F5804F07DC305D4FF6FF7193
:100F900001EA8020184921F81400184830F814009C
:100FA0000744154830F814008044641C082CC9DB41
:100FB000BDE8F08110B54FF4385000F02AF910BDAB
:100FC00010B50024FFF7F6FF00F001049CB91CA047
:100FD00004F0B2FF0AE0FFF7EDFF00F001041FA0EC
:100FE00004F0AAFF4FF4FA7000F094F8002CF2D04D
:100FF0001BA004F0A1FF10BD34010020240100203B
:101000002043483A20256420556E657870656374E6
:10101000656431206C656E67746820300D0A0000CD
:101020002043483A20256420556E657870656374C6
:10103000656432206C656E67746820300D0A0000AC
:10104000200D0A20C7EBBCECB2E9CDF8CFDFCAC750
:10105000B7F1C1ACBDD33F0D0A000000202E000047
:10106000200D0A0008B500200090022269469D4824
:1010700001F028FFBDF80000C021B1EB202F00D007
:1010800008BDBDF80000001297490870BDF80000C7
:101090004870BDF8020000128870BDF80200C870E8
:1010A00000BFEDE72DE9FC4104460D461646200C35
:1010B0008DF80400200A8DF8050004F0F800001DEA
:1010C000C0B28DF80600F0B203232A4601A90090B1
:1010D000012000F077FC07463846BDE8FC812DE989
:1010E000FC4104460D461646200C8DF80400200AEB
:1010F0008DF8050004F0F8008DF80600F0B2032327
:101100002A4601A90090012000F087FC07463846D6
:10111000BDE8FC8110B50446204601F09CFF10BDDF
:1011200010B5002000F04FF90220FFF7F3FF012077
:1011300000F049F94FF4C860FFF7ECFF10BD08B5A7
:101140006A486B490A680260898881806649096833
:10115000C0F8061067490968C0F80A1066490968AE
:10116000C0F80E1065490968C0F8121064A004F0B8
:10117000E3FE01205D49887600215C48C1760A3093
:10118000FFF778FD59480E30FFF764FD5748801D82
:10119000FFF782FD5448FFF79AFD5348C07800904E
:1011A00051488378427801785DA004F0C5FE51482B
:1011B000FFF77BFD4F48C07800904E488378427817
:1011C00001785FA004F0B8FE4B48FFF74BFD4A489A
:1011D000C0780090484883784278017860A004F095
:1011E000ABFE6748018867A004F0A6FE08BD10B5F5
:1011F0003E483F490A68026089888180FFF743FDC5
:1012000010BD13B50446012201A92046FFF74AFF8D
:101210001CBD38B50446012269462046FFF75FFF32
:101220009DF8000038BD70B504460D462A4621469B
:101230005A480078FFF7D8FAC6B2304670BD10B5EC
:10124000002456480078FFF7A4FD30B113280DD0D4
:10125000172810D01C2836D130E0202348480288B7
:1012600001214E480078FFF7B1F92CE04B48007897
:10127000FFF70CFA27E049480078FFF776FD00F009
:10128000010020B1012145480078FFF777FD434870
:101290000078FFF7B1FD0446002C0EDD22464049E0
:1012A0003E480078FFF70CFB00203D4908553DA063
:1012B00004F042FE3A4801F023F804E03748007891
:1012C000FFF76AF900BF00BF34480078072805DA45
:1012D00032480078401C3149087002E000202F4954
:1012E000087010BD000007082E00002044010020F7
:1012F0002800002032000020360000203A000020A4
:1013000020CAB9D3C3B6A8D2E5B5C44950D0C5CF19
:10131000A2C5E4D6C357353530303A0D0A00000077
:10132000205735353030204950B5D8D6B720202049
:101330003A2025642E25642E25642E25640D0A008E
:1013400020573535303020D7D3CDF8D1DAC2EB2055
:101350003A2025642E25642E25642E25640D0A006E
:1013600020573535303020CDF8B9D8202020202026
:101370003A2025642E25642E25642E25640D0A004E
:101380003E00002020573535303020B6CBBFDA2064
:10139000202020203A2025640D0A00005100002062
:1013A000720100202573000010B504462CB94FF4DB
:1013B0000071FE4802F059FA04E04FF40071FB4856
:1013C00002F051FA10BD10B504462CB94FF48061FB
:1013D000F64802F04AFA04E04FF48061F34802F064
:1013E00042FA10BD08B50121042002F04BFC012196
:1013F000EF4802F05CFA4FF4C260ADF80000102034
:101400008DF8030001208DF802006946E74802F0DC
:101410007DF90421E54802F026FA0821E34802F0AC
:1014200022FA0020FFF7CFFF0020FFF7BDFF0121C8
:10143000082002F027FC1F20ADF8000010208DF8D6
:10144000030001208DF802006946DA4802F05EF9D7
:101450000121D84802F009FA0221D64802F005FA23
:101460000421D44802F001FA0821D24802F0FDF923
:101470001021D04802F0F9F90121082002F002FC05
:101480000620ADF8000010208DF8030001208DF833
:1014900002006946C84802F039F908BD08B50121C3
:1014A000C34802F004FA0121042002F0EBFB4DF6E0
:1014B0000300ADF8000010208DF8030001208DF826
:1014C00002006946B94802F021F90221B74802F04A
:1014D000CAF90421B54802F0C8F90221B34802F064
:1014E000C4F94FF40061B14802F0BFF94FF48051E4
:1014F000AE4802F0BAF94FF48041AC4802F0B5F9B9
:101500004FF40041A94802F0B0F90121082002F08F
:10151000B9FB4FF62070ADF8000010208DF80300E5
:1015200001208DF802006946A24802F0EFF8202160
:10153000A04802F09AF94FF480719E4802F095F9A4
:101540004FF400719B4802F090F94FF48061994884
:1015500002F08BF94FF40061964802F086F94FF4DF
:101560008051944802F081F94FF40051914802F003
:101570007CF94FF480418F4802F077F94FF4004135
:101580008C4802F072F90121102002F07BFB4FF62B
:10159000FF70ADF8000010208DF8030001208DF8D9
:1015A00002006946854802F0B1F84FF6FF718348A2
:1015B00002F05BF908BD10B50446002C51D004219F
:1015C0007A4802F050F90121784802F04CF90221E2
:1015D000764802F048F94FF40061744802F043F98C
:1015E0004FF48051714802F03EF94FF480416F484A
:1015F00002F039F94FF400416C4802F034F920212F
:101600006C4802F030F94FF480716A4802F02BF90F
:101610004FF40071674802F026F94FF48061654885
:1016200002F021F94FF40061624802F01CF94FF416
:101630008051604802F017F94FF400515D4802F004
:1016400012F94FF480415B4802F00DF94FF400416C
:10165000584802F008F94FF6FF71584802F003F9B4
:1016600050E00421514802F000F901214F4802F0F6
:10167000FCF802214D4802F0F8F84FF400614B48A5
:1016800002F0F3F84FF48051484802F0EEF84FF4BE
:101690008041464802F0E9F84FF40041434802F027
:1016A000E4F82021434802F0E0F84FF4807141480B
:1016B00002F0DBF84FF400713E4802F0D6F84FF428
:1016C00080613C4802F0D1F84FF40061394802F0E3
:1016D000CCF84FF48051374802F0C7F84FF400516E
:1016E000344802F0C2F84FF48041324802F0BDF8AD
:1016F0004FF400412F4802F0B8F84FF6FF712F4821
:1017000002F0B3F810BD1FB50121092002F0BAFAAA
:101710000120ADF80C0048208DF80F0003208DF853
:101720000E0003A9234801F0F1FF0021012002F07F
:1017300003F90120019000208DF808000C208DF89D
:10174000090001208DF80A0001A803F01FFC062003
:101750008DF8000000208DF801008DF802000120B6
:101760008DF80300684601F008FF1FBD10B5012089
:1017700003F072FC012839D103F06EFC012835D149
:101780002FE0012003F079FC01210A4802F051F812
:10179000F8B90B480078012823D10221054802F04E
:1017A00064F8322001F033FC02210BE00008014014
:1017B00000023000000C0140001401400010014004
:1017C000550000203E4802F04EF800203D490870C8
:1017D00007E001213A4802F02CF8012801D103F07A
:1017E0004CFC012003F038FC0028CAD110BD10B514
:1017F000044634B1012C1BD0022C30D0032C5CD118
:1018000044E010212E4802F02EF8052001F023FCC0
:1018100004212B4802F029F80821294802F025F874
:10182000052001F018FC1021254802F01EF845E0C3
:101830001021234802F017F8052001F00CFC0421C8
:101840001F4802F012F808211D4802F00CF805208C
:1018500001F001FC10211A4802F007F82EE01021D7
:10186000174802F000F8052001F0F5FB04211448A8
:1018700001F0F9FF0821124801F0F7FF052001F0FF
:10188000EAFB10210E4801F0F0FF17E010210C4890
:1018900001F0E9FF052001F0DEFB0421084801F01A
:1018A000E2FF0821064801F0DEFF052001F0D3FB2E
:1018B0001021034801F0D9FF00E000BF00BF10BDB8
:1018C000000C01405500002008B50121042002F061
:1018D000D9F94FF4D070ADF8000010208DF8030056
:1018E00003208DF802006946624801F00FFF402096
:1018F000ADF8000048208DF8030069465D4801F00E
:1019000005FF4FF480715B4801F0ADFF802159481D
:1019100001F0A9FF08BD70B504460D460026012C54
:101920000AD125B90102534801F09FFF04E04FF4AA
:101930008071504801F097FF70BD70B504460025D6
:1019400000262CE080214B4801F08FFF012001F0A0
:101950005EFB04F0800020B12021464801F083FFA7
:1019600003E02021434801F080FF6006040E0120BF
:1019700001F04DFB80213F4801F075FF012001F08F
:1019800046FB6806050E40213A4801F052FF08B1B7
:10199000681CC5B2012001F03AFB701CC6B2082ECB
:1019A000D0DB8021334801F060FF284670BD10B5C0
:1019B0000020FFF7C2FF10BD10B504462046FFF718
:1019C000BCFF10BD2DE9F05F81460E4617469846D4
:1019D000DDF828A000214846FFF79DFF344600258A
:1019E00005E02078FFF7E8FF641C681C85B24545D8
:1019F000F7DB3C46002507E04FF4FA6B2078FFF751
:101A0000DBFF641C681C85B25545F5DB01214846A7
:101A1000FFF781FF0020BDE8F09F2DE9F05F05464C
:101A20000E4617469846DDF828B0E8B20021FFF7C9
:101A300072FFB146BA46002407E099F80000FFF7AC
:101A4000BBFF09F10109601C84B24445F5DB0024A9
:101A500007E0FFF7ACFF8AF800000AF1010A601CFA
:101A600084B25C45F5DBE8B20121FFF754FF0020AA
:101A7000BDE8F09F00080140002141E000BF00BF29
:101A800000BF00BF00BF00BF00BF00BF00BF00BF5E
:101A900000BF00BF00BF00BF00BF00BF00BF00BF4E
:101AA00000BF00BF00BF00BF00BF00BF00BF00BF3E
:101AB00000BF00BF00BF00BF00BF00BF00BF00BF2E
:101AC00000BF00BF00BF00BF00BF00BF00BF00BF1E
:101AD00000BF00BF00BF00BF00BF00BF00BF00BF0E
:101AE00000BF00BF00BF00BF00BF00BF00BF00BFFE
:101AF00000BF00BF00BF00BF00BF00BF4A1C91B2C3
:101B00008142BBDB70470FB430B59BB064251FA882
:101B10000190652102A8019B1E9A04F01DFA02A8FB
:101B200003F0BCFEC4B2214602A8FFF77CFB0020F4
:101B300001901BB030BC5DF814FBF0B503460024E7
:101B40001D460E4600BF09E028783778B84201D01C
:101B50000020F0BD6D1C761C601CC4B29442F3DB07
:101B60000120F6E7F0B503460020164602EBD677D3
:101B7000C7F3470200241AE00607300E002510E0E4
:101B80000607300E0E78392E04DC0E78303E0644FF
:101B9000F0B203E00E78373E0644F0B2491C6E1CEA
:101BA000F5B2022DECDB18705B1C661CF4B294429B
:101BB000E2DBF0BD10B50446F3490868FFF7A3FF68
:101BC000F2490868FFF79FFFF1490868FFF79BFF9C
:101BD000F0490868FFF797FFEF490868FFF793FFA0
:101BE000EE490868FFF78FFFED490868FFF78BFFA4
:101BF000EC490868FFF787FF002010BD10B50446C8
:101C0000E948FFF780FF002010BD01460120E74AA8
:101C100010700020704770B504460026DD49097930
:101C2000081903F042FE86B272B64FF40041E04854
:101C300001F019FE0221DF4801F015FEC820FFF770
:101C40001BFF4FF40041DA4801F00FFE012542E08E
:101C500000BF00BF00BF00BF00BF00BF00BF00BF8C
:101C600000BF00BF00BF00BF00BF00BF00BF00BF7C
:101C700000BF00BF00BF00BF00BF00BF00BF00BF6C
:101C800000BF00BF00BF00BF00BF00BF00BF00BF5C
:101C900000BF00BF00BF00BF00BF00BF00BF00BF4C
:101CA00000BF00BF00BF00BF00BF00BF00BF00BF3C
:101CB00000BF00BF00BF00BF00BF00BF00BF00BF2C
:101CC00000BF00BF00BF00BF00BF00BF00BF00BF1C
:101CD00000BF681C85B2B542BADB00BF00BF00BFC1
:101CE00000BF00BF00BF00BF00BF00BF00BF00BFFC
:101CF00000BF00BF00BF00BF00BF00BF00BF00BFEC
:101D000000BF00BF00BF00BF00BF00BF00BF00BFDB
:101D100000BF00BF00BF00BF00BF0221A54801F007
:101D2000A4FD6420FFF7A8FE0221A24801F09BFD5C
:101D300062B6002070BD70B504469749097908194C
:101D400003F0B3FD85B2012D07D00A2D09D0642D13
:101D50000BD0B5F57A7F10D10BE00020FFF747FDDF
:101D60000CE00120FFF743FD08E00220FFF73FFDF4
:101D700004E00320FFF73BFD00E000BF00BF0020B0
:101D800070BD2DE9F04180460D46002600244FEA43
:101D9000C860060E2C460027D0E145FA07F000F097
:101DA0000104202E1DD2DFE806F0101D2835424F19
:101DB0005C697683909DAAB5C0CDDAEEEDECEBEAD6
:101DC000E9E8E7E6E5E4E3E2E1E02CB10122022103
:101DD000104600F0B2FF04E000220221012000F0D2
:101DE000ACFFA6E124B12021724801F03CFD03E0E4
:101DF0002021704801F039FD9BE12CB10122032123
:101E0000104600F09AFF04E000220321012000F0B8
:101E100094FF8EE12CB101220421104600F08DFFC9
:101E200004E000220421012000F087FF81E12CB1B1
:101E30004FF480715F4801F016FD04E04FF48071AB
:101E40005C4801F012FD74E12CB14FF40071594867
:101E500001F009FD04E04FF40071564801F005FD62
:101E600067E12CB14FF48061524801F0FCFC04E0C2
:101E70004FF480614F4801F0F8FC5AE12CB14FF467
:101E800000614C4801F0EFFC04E04FF40061494868
:101E900001F0EBFC4DE12CB14FF48051454801F0CD
:101EA000E2FC04E04FF48051424801F0DEFC40E1E6
:101EB0002CB14FF400513F4801F0D5FC04E04FF441
:101EC00000513C4801F0D1FC33E12CB14FF480418A
:101ED000384801F0C8FC04E04FF48041354801F077
:101EE000C4FC26E12CB14FF40041324801F0BBFCA8
:101EF00004E04FF400412F4801F0B7FC19E124B190
:101F000001212B4801F0AFFC03E00121284801F03A
:101F1000ACFC0EE124B10221254801F0A4FC03E051
:101F20000221234801F0A1FC03E12CB14FF4006130
:101F30001F4801F098FC04E04FF400611C4801F0D8
:101F400094FCF6E02CB14FF48051194801F08BFC61
:101F500004E04FF48051164801F087FCE9E06CB3CF
:101F60000121154801F07FFC2DE0D5E0C7E0B9E084
:101F7000ABE09DE08FE081E073E067E05BE04FE085
:101F800043E037E02BE01FE0580000206400002011
:101F90008800002094000020700000207C000020B9
:101FA000A0000020AC000020B80000205500002058
:101FB00000080140000C014000100140FFE7012132
:101FC000FA4801F052FCB4E024B10221F74801F0D4
:101FD0004AFC03E00221F54801F047FCA9E024B1E6
:101FE0000421F24801F03FFC03E00421EF4801F036
:101FF0003CFC9EE024B10821EC4801F034FC03E0F5
:102000000821EA4801F031FC93E024B11021E748AF
:1020100001F029FC03E01021E44801F026FC88E0EF
:1020200024B12021E14801F01EFC03E02021DF481B
:1020300001F01BFC7DE024B14021DC4801F013FCE1
:1020400003E04021D94801F010FC72E024B1802166
:10205000D64801F008FC03E08021D44801F005FCDB
:1020600067E02CB14FF48071D04801F0FCFB04E034
:102070004FF48071CD4801F0F8FB5AE02CB14FF4D9
:102080000071CA4801F0EFFB04E04FF40071C7484B
:1020900001F0EBFB4DE02CB14FF48061C34801F03F
:1020A000E2FB04E04FF48061C04801F0DEFB40E059
:1020B0002CB14FF40061BD4801F0D5FB04E04FF4B2
:1020C0000061BA4801F0D1FB33E02CB14FF48051EC
:1020D000B64801F0C8FB04E04FF48051B34801F06A
:1020E000C4FB26E02CB14FF40051B04801F0BBFB1B
:1020F00004E04FF40051AD4801F0B7FB19E02CB1FA
:102100004FF48041A94801F0AEFB04E04FF4804158
:10211000A64801F0AAFB0CE02CB14FF40041A34803
:1021200001F0A1FB04E04FF40041A04801F09DFB49
:1021300000BF00BF701CC6B2781CC7B2082FFFF6E4
:102140002CAEBDE8F08138B50546002000909848D7
:102150000079411908226846FFF704FD0020044673
:1021600007E01DF804102046FFF70BFE601CC0B20C
:102170000446042CF5DB38BD70B504468D49097959
:10218000081903F092FBC5B2012D05D101221146B9
:10219000104600F0D2FD05E000220121084600F0C3
:1021A000CCFD00BF00BF002070BD2DE9FC410546FD
:1021B0000020019000900027284603F06FFB00F0FC
:1021C000FF082C467C4800790444204603F06DFB50
:1021D000C0B28DF8040000260DE014F8011B2E2972
:1021E00007D1204603F061FBC1B201AA781C11544B
:1021F000C7B2701CC6B24645EFDB9DF80400ADF8CF
:102200000000BDF800004FF6FF7101EA0020ADF8B4
:102210000000BDF800009DF80510084480B2ADF83C
:1022200000009DF80600ADF80200BDF802004FF670
:10223000FF7101EA0020ADF80200BDF802009DF830
:102240000710084480B2ADF80200022269465B48DC
:1022500000F049FEBDE8FC8110B5044658490A79F2
:1022600008682146FFF769FC10B15548407910BD58
:1022700054490A7908682146FFF75FFC10B15148BC
:102280004079F4E750490A7908682146FFF755FC80
:1022900010B14D484079EAE74C490A79086821466F
:1022A000FFF74BFC10B149484079E0E748490A790B
:1022B00008682146FFF741FC10B145484079D6E750
:1022C0003B490A7908682146FFF737FC10B13848C6
:1022D0004079CCE737490A7908682146FFF72DFC99
:1022E00010B134484079C2E733490A790868214679
:1022F000FFF723FC10B130484079B8E70020B6E77B
:1023000070B5054600242846FFF7A6FF0446092CB1
:102310004AD2DFE804F09905090D1B221429300088
:102320002846FFF747FC93E02846FFF767FC8FE05D
:102330002846FFF76AFC27A0FFF7E5FB88E0284660
:10234000FFF769FC27A0FFF7DEFB81E02846FFF7D7
:10235000F2FC28A0FFF7D7FB7AE02846FFF7F3FE50
:1023600028A0FFF7D0FB73E02846FFF705FF29A060
:10237000FFF7C9FB6CE02846FFF717FF29A0FFF71E
:10238000C2FB012080F3138800BF00BF2C48006807
:1023900000F4E0602B490843001D29490860BFF3A1
:1023A0004F8F00BF00BFFEE74EE00000001001406D
:1023B0007C000020A0000020AC00002000000708E6
:1023C00058000020640000208800002094000020B5
:1023D0007000002053696E676C6554726967204F06
:1023E0004B0D0A0053594E4354726967204F4B0DF1
:1023F0000A00000053657420414438323533204FC1
:102400004B0D0A005365742072656C6179204F4B47
:102410000D0A000053657420434B494E204F4B0D6D
:102420000A000000536574204950204F4B2C726500
:10243000736574696E672E2E2E2E2E2E0D0A0000E7
:102440000CED00E00000FA0502A0FFF75CFB00BF06
:1024500000BF70BD436F6D6D616E64204572726F19
:10246000720D0A0038B50446012C18D1012108204C
:1024700001F008FCC020ADF8000010208DF803002A
:1024800001208DF802006946FC4801F03FF98021E7
:10249000FA4801F0E8F94021F84801F0E4F938BDC4
:1024A00010B50446012C28D1F448006820F0704093
:1024B000F24908600846006840F040500860EF4864
:1024C0000C30006840F08000EC490C31086080213D
:1024D000EA4801F0C8F94021E84801F0C4F90420B5
:1024E00000F095FD8021E54801F0BFF9042000F0DF
:1024F0008EFD4021E14801F0B8F9022C26D1DF48D9
:10250000006820F07040DD4908600846006840F02F
:1025100040500860D9480C300068D8490C31086038
:102520008021D64801F09FF94021D44801F09BF961
:10253000042000F06CFD8021D04801F096F90420C1
:1025400000F065FD4021CD4801F08FF910BD10B5B8
:102550000446012C28D1C948006820F07040C749C2
:1025600008600846006840F040500860C3480C30DE
:10257000006840F08000C1490C3108604021BF482C
:1025800001F073F98021BD4801F06FF9042000F0DB
:102590003EFD4021B94801F066F98021B74801F0BD
:1025A00062F9042000F033FD022C26D1B348006804
:1025B00020F07040B14908600846006840F0405083
:1025C0000860AE480C300068AC490C31086040210E
:1025D000AA4801F04AF98021A84801F046F90420F0
:1025E00000F015FD4021A54801F03DF98021A348E8
:1025F00001F039F9042000F00AFD10BD70B5044661
:1026000000260025012C34D19C48006820F0704041
:102610009A4908600846006840F000400860974802
:102620000C30006840F0800094490C310860802133
:10263000924801F018F9012000F0E9FC40218F4890
:1026400001F011F9012000F0E2FC08E0701CC6B2B4
:10265000FA2E04DD0120FFF77AFF012070BD8021F2
:10266000864801F0E6F80028F0D14021834801F0C7
:10267000FCF8022C32D18148006820F070407F497C
:1026800008600846006840F0004008607B480C3055
:1026900000687A490C3108608021784801F0E3F83D
:1026A000012000F0B4FC4021744801F0DCF8012066
:1026B00000F0ADFC08E0681CC5B2FA2D04DD022074
:1026C000FFF745FF0120C9E780216C4801F0BEF803
:1026D0000028F0D14021694801F0C7F80020BDE78B
:1026E00010B50446012C28D14021644801F0BDF802
:1026F0006248006820F07040604908600846006841
:1027000040F0405008605D480C30006840F08000A8
:102710005A490C3108608021584801F0A6F802207F
:1027200000F075FC4021554801F09DF8022000F0B2
:102730006EFC4021514801F098F8022C26D140212E
:102740004E4801F092F84D48006820F070404B4927
:1027500008600846006840F04050086047480C3068
:10276000006846490C3108608021444801F07DF83A
:10277000022000F04CFC4021404801F074F8022097
:1027800000F045FC40213D4801F06FF810BD10B548
:102790000446012C28D14021384801F066F837481A
:1027A000006820F07040354908600846006840F035
:1027B0004050086031480C30006840F080002F49DC
:1027C0000C31086080212D4801F04DF8022000F006
:1027D0001EFC4021294801F046F8022000F017FCB9
:1027E0004021264801F041F8022C26D140212348FF
:1027F00001F03BF82148006820F070401F49086054
:102800000846006840F0405008601C480C300068E2
:102810001A490C3108608021184801F024F8022080
:1028200000F0F5FB4021154801F01DF8022000F0F2
:10283000EEFB4021114801F018F810BD2DE9F041E0
:1028400005460C46012D3DD10C48006820F0704033
:102850000A4908600846006840F040500860074890
:102860000C30006840F0800004490C3108604021C1
:10287000024800F0FAFF002722E00000000C0140AF
:10288000E00920B18021F54800F0EDFF03E0802150
:10289000F24800F0EAFF6006040E022000F0B7FBE9
:1028A0004021EE4800F0DFFF022000F0B0FB4021A5
:1028B000EA4800F0DAFF022000F0A9FB781CC7B25A
:1028C000082FDDDB022D38D1E448006820F070408D
:1028D000E24908600846006840F040500860DF4860
:1028E0000C300068DD490C3108604021DB4800F005
:1028F000BCFF00261FE0E00920B18021D74800F08E
:10290000B2FF03E08021D54800F0AFFF6006040E5F
:10291000022000F07CFB4021D04800F0A4FF022000
:1029200000F075FB4021CD4800F09FFF022000F031
:102930006EFB701CC6B2082EDDDBBDE8F0812DE910
:10294000F04704460D460027B946012C3AD1C3484A
:10295000006820F07040C14908600846006840F0F7
:1029600000400860BD480C30006840F08000BB4962
:102970000C310860002618E04021B84800F075FFCF
:10298000022000F044FB4021B44800F06CFF7806C0
:10299000070E8021B14800F04CFF08B1781CC7B287
:1029A000012000F034FB701CC6B2082EE4DB1DB918
:1029B0000120FFF7ECFE02E00120FFF791FE384610
:1029C000BDE8F087022C3FD1A448006820F0704099
:1029D000A24908600846006840F0004008609F482F
:1029E0000C3000689D490C3108604FF000081EE073
:1029F00040219A4800F039FF022000F008FB4021F6
:102A0000964800F030FF4FEA49604FEA1069802194
:102A1000924800F01BFF18B109F1010000F0FF0916
:102A2000012000F0F4FA08F1010000F0FF08B8F10D
:102A3000080FDDDB1DB90220FFF7A9FE02E002202E
:102A4000FFF74EFE4846BBE70020B9E72DE9FC5FE3
:102A500005468B4614461E46DDE90C9A00270020E9
:102A6000019080460090012D35D10120FFF718FD1F
:102A700059460120FFF7E2FE0120FFF7BFFD022EBD
:102A80000CD121780120FFF7D9FE61780120FFF7F2
:102A9000D5FE0120FFF7B2FD019007E0217801206B
:102AA000FFF7CCFE0120FFF7A9FD019000270AE007
:102AB00019F807100120FFF7C1FE0120FFF79EFD66
:102AC0000190781CC7B25745F2DB0120FFF73FFDAC
:102AD0000198BDE8FC9F022D37D10220FFF7E0FCF2
:102AE00059460220FFF7AAFE0220FFF787FD022EBB
:102AF0000CD121780220FFF7A1FE61780220FFF7B8
:102B00009DFE0220FFF77AFD009007E02178022069
:102B1000FFF794FE0220FFF771FD00904FF00008D0
:102B20000CE019F808100220FFF788FE0220FFF7DA
:102B300065FD009008F1010000F0FF08D045F0DBD2
:102B40000220FFF704FD0098C3E70020C1E72DE94C
:102B5000F84F8046894692461C460A9F0025AB46A0
:102B6000002600200090B8F1010F38D10120FFF7B6
:102B700097FC49460120FFF761FE0120FFF73EFD6B
:102B8000834651460120FFF759FE0120FFF736FD2D
:102B900083460120FFF784FC09F10100C1B2012046
:102BA000FFF74CFE0120FFF729FD834600BF0EE032
:102BB000781B012804D10021FFF7C1FE605504E015
:102BC00001210846FFF7BBFE6055681CC5B2BD4237
:102BD000EEDB0120FFF7BBFC5846BDE8F88FB8F1EB
:102BE000020F38D10220FFF75BFC49460220FFF7B5
:102BF00025FE0220FFF702FD009051460220FFF75C
:102C00001DFE0220FFF7FAFC00900220FFF748FCAF
:102C100009F10100C1B20220FFF710FE0220FFF708
:102C2000EDFC009000260FE0B81B012805D1002123
:102C30000220FFF784FEA05504E001210220FFF7E7
:102C40007EFEA055701CC6B2BE42EDDB0220FFF72F
:102C50007EFC0098C1E70020BFE70000000C0140A7
:102C60002DE9FF4182B005460E461C46DDF8308056
:102C7000012304AA31462846CDE90048FFF7E6FEC5
:102C80000746384606B0BDE8F081F8B506460C4662
:102C900015460027601E402101EB4000C7B202200C
:102CA0002B460246394600903046FFF7D9FF08B15F
:102CB0000120F8BD0020FCE7F8B506460C46154695
:102CC0000027601E402101EB4000C7B202202B46C6
:102CD0000622394600903046FFF7C2FF08B10120B6
:102CE000F8BD0020FCE770B5054600245F4A0121CD
:102CF0002846FFF7E1FF2044C4B25D4A012128467F
:102D0000FFF7C3FF2044C4B214B15AA003F014F972
:102D100070BD2DE9F84304460D4616461F46DDF802
:102D200020803B46324629462046CDF80080FFF7FA
:102D30000EFF81464846BDE8F8832DE9FC478046F2
:102D40000D461646681EC4B22046E11704EB117109
:102D50000911402202EB4109E21704EB1272121131
:102D6000A4EB0211CA1701EB5272D210921C02F0AE
:102D7000FF0A2146E21704EB12721211A4EB0210B3
:102D8000C21700EB5272D210A0EBC202D7B20120E0
:102D900001AB5246494600904046FFF7BAFF10B1DA
:102DA0000120BDE8FC87012E06D13948C05D9DF8A1
:102DB00004100843019005E03648C05D9DF80410FA
:102DC00008400190012001AB524649460090404620
:102DD000FFF746FF08B10120E3E70020E1E72DE916
:102DE000FC4780460E461546701EC4B22046E117C9
:102DF00004EB11710911402202EB4109E21704EBC7
:102E000012721211A4EB0211CA1701EB5272C2F333
:102E1000C70A2146E21704EB12721211A4EB02104A
:102E2000C21700EB5272D210A0EBC202D7B201203F
:102E300001AB5246494600904046FFF76AFF10B189
:102E40000120BDE8FC871248C05D9DF804100840D1
:102E500001900F48C05D9DF80410884202D1012006
:102E6000287001E0002028700020EAE7F40000202C
:102E7000F8000020496E697469616C205044442058
:102E800063617439353535206661696C2E0D0A0031
:102E9000E4000020DC0000200146088870472DE98E
:102EA000F04105460E461746002407E036F8141098
:102EB000284602F052FAAD1C601C84B2BC42F5DB1D
:102EC000BDE8F08130B503460C461546002207E008
:102ED0001846FFF7E1FF24F812009B1C501C82B239
:102EE000AA42F5DB30BD2DE9F05F80468A461746E1
:102EF000B8F1006F02D33748804501D3BDE8F09F99
:102F000002F0E3F8A8F1006B4FEADB25CBF34909A7
:102F1000C9F58064A74200DC3C464DE04FF00061FB
:102F200001EBC5204A142C49FFF7CCFF00260BE02B
:102F300009EB0600284931F810004FF6FF7188426E
:102F400000D003E0701C86B2A642F1DB00BFA642AF
:102F50001BDA4FF0006101EBC52002F0FBF8002600
:102F600008E03AF8160006EB09011B4A22F81100A6
:102F7000701C86B2A642F4DB4FF0006101EBC52065
:102F80004A141549FFF78BFF04E02246514640469C
:102F9000FFF785FFA74200D10FE06D1C4FF000093D
:102FA0000AEB440AA044381B87B2B7F5806F02DDF4
:102FB0004FF4806400E03C46B0E700BF02F091F8B7
:102FC00000BF9BE713B50446012201A92046FFF785
:102FD0008AFF1CBD000008087209002010B56FF0C0
:102FE000040000F014FB2E4800682E49B0FBF1F0FD
:102FF0002D4908700846007800EB4001C1EBC01075
:103000004FF6FF7101EAC0002849088010BD014653
:10301000254A12784A434FF0E0235A6100229A6110
:103020001A46126942F001021A6100BF4FF0E02215
:10303000106900F001021AB100F48032002AF5D0C4
:103040004FF0E022126922F001024FF0E0231A61F2
:1030500000229A6170470146144A12884A434FF091
:10306000E0235A6100229A611A46126942F0010275
:103070001A6100BF4FF0E022106900F001021AB19E
:1030800000F48032002AF5D04FF0E022126922F0DD
:1030900001024FF0E0231A6100229A61704700009C
:1030A0000000002000127A00FC000020FE0000203A
:1030B00070B504460D46FE480088E1B2FC4801F0B8
:1030C0008FFE00BF4021FA4801F0F8FE0028F9D039
:1030D000204670BD08B50121042000F0D3FD4FF457
:1030E0000070ADF8000003208DF8020018208DF864
:1030F00003006946EF4800F009FB4FF48060ADF82B
:10310000000004208DF803006946EA4800F0FEFA4A
:1031100008BD10B58CB004460121084600F0A5FD9D
:103120000E208DF82C0003208DF82D0002208DF844
:103130002E0001208DF82F000BA800F01EFADE48AB
:1031400002F082FADD480090019400200290FF20F6
:1031500003900020049080200590002006900790A6
:1031600008904FF44050099000200A906946D248D8
:1031700002F00CFB0121D04802F033FB0122402178
:10318000CE48001F01F0F0FD0CB010BD10B58CB0A2
:1031900004460121084600F068FD0E208DF82C0041
:1031A00003208DF82D0002208DF82E0001208DF8CF
:1031B0002F000BA800F0E1F9BF4802F045FABF4824
:1031C0000090019400200290FF20039000200490C2
:1031D0008020059000200690079008904FF4405002
:1031E000099000200A906946B34802F0CFFA012105
:1031F000B14802F0F6FA01224021AD4801F0B4FDD9
:103200000CB010BD10B586B004460121880300F053
:1032100039FDAA48001F01F0A7FCFFF75BFF25203E
:103220008DF8040002208DF805008DF806000120BD
:103230008DF8070001A800F0A0F902940020ADF875
:103240000C00ADF80E00ADF81000ADF814000C2025
:10325000ADF8120002A99948001F01F0C8FC012234
:1032600040F224419548001F01F059FD0121934887
:10327000001F01F048FD9248FFF74BFF40218F48A7
:10328000001F01F01BFE06B010BD10B586B004464D
:103290000121042000F0F6FC0121480400F0FFFCAD
:1032A0000420ADF8140018208DF8170003208DF8C5
:1032B000160005A97F4800F029FA0820ADF814008F
:1032C00004208DF8170003208DF8160005A9794811
:1032D00000F01CFA0121480400F0FBFC00214FF42F
:1032E000003000F0F6FC4FF4A06000F041F9262019
:1032F0008DF8000003208DF801008DF802000120F8
:103300008DF80300684600F038F901940020ADF80C
:103310000800ADF80A00ADF80C00ADF810000C2064
:10332000ADF80E0001A9624801F061FC012240F2F3
:1033300025515F4801F0F3FC01215D4801F0E3FCF9
:1033400006B010BD70B505462C460DE014F8011B03
:103350005A48001F01F044FD00BF40215748001F9C
:1033600001F0ACFD0028F8D020780028EED170BD27
:1033700070B505460E4600240CE000BF40214C48C5
:1033800001F09CFD0028F9D0295D494801F028FD95
:10339000601C84B2B442F0DB00BF4021444801F01D
:1033A0008DFD0028F9D070BD10B504462146434874
:1033B000001F01F015FD00BF40214048001F01F033
:1033C0007DFD0028F8D010BD2DE9F04104460D46E2
:1033D0000026274600BF0EE017F8011B3748001FE4
:1033E00001F0FEFC00BF40213448001F01F066FDE3
:1033F0000028F8D0761CAE42EED3BDE8F08170B55F
:103400000025002440F224412C48001F01F06CFDEF
:10341000002837D02948001F0588001D0588002195
:10342000254802F0DEF9244802F0F2F9C0F1FF0568
:103430002448007890B924490D7000BF08E0204866
:10344000005D2249085500201D490855601C84B2C2
:10345000AC42F4D301201B4908700BE0002404E0C7
:10346000002017490855601C84B2AC42F8D318A05C
:10347000FFF768FFFF21104802F0C8F901210E484C
:1034800002F0AFF970BD10B540F22551084801F0C7
:103490002BFD58B3064801F0A7FCC4B210480088C1
:1034A00020BB10481049097844540F4800781EE0AA
:1034B0000044004000080140580002400438014028
:1034C0006A14002000010020010100207211002078
:1034D0004D43552069732042757379210D0A000010
:1034E00004010020701300200201002012E0401EA1
:1034F0001249085CA02808D1084611490978405CA7
:10350000A12802D101200F4908800D480078401CF5
:103510000B49087008210C4801F0D0FC012806D1A5
:10352000094801F061FC0821074801F0D4FC40F291
:103530002551054801F0CFFC10BD0000701300209C
:10354000020100200401002000440040064880479A
:1035500006480047FEE7FEE7FEE7FEE7FEE7FEE778
:10356000FEE7FEE7FEE7FEE7C703000831010008BB
:1035700031490143314A1160704770B50021002381
:103580000F22C47804B32D4C246804F4E064C4F51D
:10359000E064210AC1F10403CA40447804FA03F14B
:1035A0008478144021430901254C0678A1550478FC
:1035B00004F01F050124AC4005786D11AD0005F144
:1035C000E025C5F8004109E0047804F01F05012456
:1035D000AC401C4D0678761145F8264070BD1A4A5D
:1035E0000A400243154B1B1F1A60704739B1134A3A
:1035F000121D12680243114B1B1D1A6006E00F4A90
:10360000121D126882430D4B1B1D1A60704704285F
:1036100008D14FF0E021096941F004014FF0E022A8
:10362000116107E04FF0E021096921F004014FF03A
:10363000E0221161704700000000FA050CED00E087
:1036400000E400E080E100E080FFFF1F10B50446C9
:10365000CC48844208D10121042000F02DFB002138
:10366000042000F029FB46E0C748844208D101212C
:10367000082000F021FB0021082000F01DFB3AE0AB
:10368000C248844208D10121102000F015FB00211E
:10369000102000F011FB2EE0BD48844208D101212A
:1036A000202000F009FB0021202000F005FB22E093
:1036B000B848844208D10121402000F0FDFA0021E1
:1036C000402000F0F9FA16E0B348844208D1012105
:1036D000802000F0F1FA0021802000F0EDFA0AE0ED
:1036E000AE48844207D10121801500F0E5FA00219F
:1036F000A01500F0E1FA10BD10B50121084600F058
:10370000DBFA0021012000F0D7FA10BD2DE9F041CD
:10371000024600250026002000230024002791F8FF
:1037200003C00CF00F0591F803C00CF0100CBCF1B5
:10373000000F03D091F802C04CEA050591F800C0D3
:10374000BCF1000F31D0146800202BE04FF0010CC9
:103750000CFA00F3B1F800C00CEA03069E4220D137
:1037600083004FF00F0C0CFA03F7BC4305FA03FC7F
:103770004CEA040491F803C0BCF1280F06D14FF0C5
:10378000010C0CFA00FCC2F814C00AE091F803C066
:10379000BCF1480F05D14FF0010C0CFA00FCC2F847
:1037A00010C0401C0828D1D31460B1F800C0BCF18F
:1037B000FF0F34DD546800202EE000F1080C4FF0BC
:1037C000010808FA0CF3B1F800C00CEA03069E42A7
:1037D00021D183004FF00F0C0CFA03F7BC4305FA1C
:1037E00003FC4CEA040491F803C0BCF1280F05D196
:1037F00000F1080C08FA0CF8C2F8148091F803C024
:10380000BCF1480F07D100F1080C4FF0010808FA8D
:103810000CF8C2F81080401C0828CED35460BDE8D4
:10382000F0814FF6FF710180022181700421C17087
:1038300070470246002093680B400BB1012000E066
:10384000002070470146886880B270470246002019
:10385000D3680B400BB1012000E000207047014607
:10386000C86880B2704701617047416170470AB112
:10387000016100E041617047C16070474FF48032E0
:103880000A4382618161826182698269704702466E
:103890000020434B18684FF68073184040EA02102E
:1038A00008433F4B186070473E49C8617047F0B508
:1038B0000A46002300240021002500F00046B6F14E
:1038C000004F02D1364EF16901E0354E7168C0F308
:1038D000034583B200F44016B6F5401F08D121F02D
:1038E00070612F4E766826F070662D4F7E6012E074
:1038F00000F48016B6F5801F06D1032606FA05F4FB
:10390000A14341F0706106E0460D360103FA06F668
:10391000B14341F0706122B1460D360103FA06F65B
:10392000314300F00046B6F1004F02D11C4EF16168
:1039300001E01B4E7160F0BD30B500228B071C0FFB
:103940000F2303FA04F2164B08338C1053F824307B
:103950009343134C08348D1044F8253023468C10C3
:1039600053F824308C07240F00FA04F423430C4C42
:1039700008348D1044F8253030BD0A49DC31086028
:103980007047000000080140000C01400010014099
:103990000014014000180140001C014000200140BB
:1039A0000000014000002042DF48006840F00100B4
:1039B000DD49086008464068DC490840DA4948604B
:1039C00008460068DA490840D74908600846006898
:1039D00020F4802008600846406820F4FE0048601B
:1039E0004FF41F0088607047CF49096821F4803187
:1039F000CD4A11601146096821F480211160B0F5AB
:103A0000803F03D0B0F5802F0ED106E0C64909688B
:103A100041F48031C44A116007E0C349096841F4A8
:103A2000A021C14A116000E000BF00BF704710B57F
:103A300001460022002300204A11012A02D1BA4C7B
:103A4000236806E0022A02D1B74C236A01E0B64C93
:103A5000636A01F01F02012494401C400CB1012054
:103A600000E0002010BD38B50020009000240025A3
:103A700000BF3120FFF7DBFF05460098401C009097
:103A80000098B0F5A06F01D0002DF2D03120FFF7E3
:103A9000CEFF08B1012400E00024204638BD0146D5
:103AA0000020A14A106820F0F80040EAC100106030
:103AB0007047A04908607047024600209A4B58683A
:103AC00020F47C1042EA01031843974B586070477A
:103AD00098490866704701460020934A506820F0D4
:103AE00003000843506070478F48406800F00C00A6
:103AF0007047014600208C4A506820F0F0000843CF
:103B00005060704701460020874A506820F4E0600A
:103B100008435060704701460020834A506820F4F3
:103B2000605040EAC1005060704729B17E4A527A25
:103B300002437D4B5A7204E07B4A527A82437A4BAD
:103B40005A7270477B49D83108607047014600209F
:103B5000754A506820F44040084350607047002187
:103B6000714A20321170704A82F82010012802D068
:103B700004280AD104E001216B4A2032117005E0CB
:103B80000521694A2032117000E000BF00BF704774
:103B90006949086070476449096A0143624A1162D1
:103BA0007047654944390860704730B500210022EC
:103BB000002400235C4D6D6805F00C0121B104293F
:103BC00005D0082923D105E05C4D056022E05B4D5E
:103BD00005601FE0544D6D6805F47012524D6D681C
:103BE00005F48034022505EB92421CB9544D55432F
:103BF00005600BE04C4D6D6805F400351DB1504D6E
:103C00005543056002E04D4D5543056002E04B4DC4
:103C1000056000BF00BF444D6D6805F0F001090963
:103C2000484D6B5C0568DD4045603F4D6D6805F4AF
:103C3000E061090A434D6B5C4568DD4085603A4DA3
:103C40006D6805F46051C90A3E4D6B5C4568DD4006
:103C5000C560354D6D6805F44041890B3A4D6B5C8C
:103C6000C568B5FBF3F5056130BD29B12E4A52692F
:103C700002432D4B5A6104E02B4A526982432A4B7E
:103C80005A61704729B1284A92690243264B9A61CA
:103C900004E0254A92698243234B9A61704729B117
:103CA000214AD2690243204BDA6104E01E4AD269FC
:103CB00082431D4BDA61704729B11B4AD268024327
:103CC000194BDA6004E0184AD2688243164BDA6076
:103CD000704729B1144A12690243134B1A6104E078
:103CE000114A12698243104B1A61704712494039D8
:103CF000086070470F49C86470470B49C871704726
:103D00000948406A40F080700749486270470146A0
:103D10000020054A92680A400AB1012000E0002014
:103D20007047014988727047001002400000FFF898
:103D3000FFFFF6FE000042428004424200127A0079
:103D400000093D00060100201601002010B50446C0
:103D5000FE48844208D10121C014FFF7ADFF0021C5
:103D6000E014FFF7A9FFC4E0B4F1804F08D10121AE
:103D70000846FFF7AEFF00210120FFF7AAFFB8E0D9
:103D8000F348844208D101210220FFF7A2FF00215D
:103D90000220FFF79EFFACE0EE48844208D10121EB
:103DA0000420FFF796FF00210420FFF792FFA0E018
:103DB000E948844208D101210820FFF78AFF002149
:103DC0000820FFF786FF94E0E448844208D10121EF
:103DD0001020FFF77EFF00211020FFF77AFF88E018
:103DE000DF48844208D101212020FFF772FF002123
:103DF0002020FFF76EFF7CE0DA48844208D10121E1
:103E00004014FFF759FF00216014FFF755FF70E0E1
:103E1000D548844209D10121C804FFF74DFF002194
:103E20004FF40020FFF748FF63E0D048844209D1F7
:103E300001210805FFF740FF00214FF48010FFF734
:103E40003BFF56E0CA48844209D101214805FFF7EB
:103E500033FF00214FF40010FFF72EFF49E0C54863
:103E6000844208D101214020FFF733FF0021402088
:103E7000FFF72FFF3DE0C048844208D10121802098
:103E8000FFF727FF00218020FFF723FF31E0BB4829
:103E9000844208D101218015FFF71BFF0021A015E6
:103EA000FFF717FF25E0B648844209D10121080435
:103EB000FFF702FF00214FF48030FFF7FDFE18E00E
:103EC000B048844209D101214804FFF7F5FE0021E2
:103ED0004FF40030FFF7F0FE0BE0AB48844208D10E
:103EE00001218804FFF7E8FE00214FF48020FFF74E
:103EF000E3FE10BD00220288944B98420ED0994BED
:103F000098420BD0B0F1804F08D0914B984205D029
:103F1000904B984202D0904B984204D14FF68F7349
:103F20001A404B881A438D4B984207D08C4B9842CD
:103F300004D04FF6FF431A40CB881A4302808B8887
:103F400083850B880385814B98420BD0854B984223
:103F500008D08B4B984205D08A4B984202D08A4BAE
:103F6000984201D10B7A038601238382704770B592
:103F7000002400220023058C4FF6FE763540058490
:103F8000028C8388048B4FF68F752C40B51E2C4015
:103F90000D882C43751E2A400D892A434D882A43DB
:103FA0006A4DA8420BD06F4DA84208D0744DA8426C
:103FB00005D0744DA84202D0734DA84213D14FF6DC
:103FC000F7752A404D892A434FF6FB752A408D88A4
:103FD0002A434FF6FF652B404FF6FF552B408D8946
:103FE0002B43CD892B4383800483CD88858602842F
:103FF00070BD70B5002400220023058C4FF6EF76CB
:1040000035400584028C8388048B48F6FF752C406C
:104010004FF6FF452C400D884FF6FF7606EA052542
:104020002C434FF6DF752A400D8906EA05152A4311
:104030004D8806EA05152A43444DA84202D0494D51
:10404000A8421DD14FF67F752A404D894FF6FF7665
:1040500006EA05152A434FF6BF752A408D8806EA01
:1040600005152A434FF6FF352B404FF2FF752B40C5
:104070008D8906EA85052B43CD8906EA85052B4304
:1040800083800483CD880587028470BD70B50024C9
:1040900000220023058C4FF6FF6635400584028C14
:1040A0008388848B4FF68F752C404FF6FC752C401F
:1040B0000D882C434FF6FF552A400D894FF6FF76A9
:1040C00006EA05252A434D8806EA05252A431F4DA1
:1040D000A84202D0234DA8421DD14FF2FF752A40BD
:1040E0004D894FF6FF7606EA05252A434FF6FF3540
:1040F0002A408D8806EA05252A434EF6FF752B4097
:104100004DF6FF752B408D8906EA05152B43CD89A9
:1041100006EA05152B4383808483CD888587028436
:1041200070BD70B5002200230024058C4EF6FF768A
:1041300035400584038C8488828B48F6FF752A40BD
:104140004FF6FF452A400D8820E00000002C01407A
:104150000004004000080040000C00400010004037
:104160000014004000340140004C01400050014068
:104170000054014000180040001C00400020004096
:104180000040014000440140004801404FF6FF76E6
:1041900006EA05252A434DF6FF752B400D8906EAF0
:1041A00005352B434D8806EA05352B43FA4DA842C9
:1041B00002D0FA4DA84208D14BF6FF752C408D89EC
:1041C0004FF6FF7606EA85152C4384808283CD88DE
:1041D000A0F84050038470BD828B4FF2FF331A4029
:1041E0008283828B4FF6FF7303EA01231A43828393
:1041F0007047F0B50C461546002200210026078CBA
:104200004EF6FF7C07EA0C070784828B018C4FF681
:10421000FF7707EA043640F6FF473A404FF6FF774C
:1042200007EA05273A434FF6FF7707EA03373A4391
:10423000D94FB8420ED0D94FB8420BD0B0F1804F11
:1042400008D0D74FB84205D0D64FB84202D0D64F8B
:10425000B84206D14DF6FF77394046F480573943CE
:1042600005E047F6FF57394044F4805739438283CD
:104270000184F0BD828B4FF6F3731A408283828BE8
:104280000A4382837047F0B50C4615460022002190
:104290000026078C4FF6FF6C07EA0C070784828B19
:1042A000018C4FF6FF7707EA04264FF60C773A4069
:1042B0004FF6FF7707EA03172F433A43B64FB8424A
:1042C0000ED0B64FB8420BD0B0F1804F08D0B44FEB
:1042D000B84205D0B34FB84202D0B34FB84206D16E
:1042E0004FF6FF57394046F48077394305E04FF2E7
:1042F000FF57394044F48077394382830184F0BD0D
:10430000028B4FF2FF331A400283028B4FF6FF738A
:1043100003EA01231A4302837047F0B50C461546A1
:10432000002200210026078C4FF6EF7C07EA0C07DD
:104330000784028B018C4FF6FF7707EA041640F6DC
:10434000FF473A404FF6FF7707EA03373A434FF605
:10435000FF7707EA05273A438F4FB8420ED08F4FB9
:10436000B8420BD0B0F1804F08D08D4FB84205D085
:104370008C4FB84202D08C4FB84206D14FF6DF774F
:10438000394046F01007394305E04FF65F77394072
:1043900044F01007394302830184F0BD028B4FF6CD
:1043A000F3731A400283028B0A4302837047F0B50D
:1043B0000C46154600220021068C4FF6FE773E4043
:1043C0000684028B018C4FF60C7632407E1C06EA86
:1043D00003162E433243704EB0420ED06F4EB042A1
:1043E0000BD0B0F1804F08D06D4EB04205D06D4E6D
:1043F000B04202D06C4EB04206D14FF6FD7631404D
:1044000044F00106314305E04FF6F576314044F0C3
:104410000106314302830184F0BD70B505460C46A8
:104420005D4885420ED05D4885420BD0B5F1804F86
:1044300008D05B48854205D05A48854202D05A4888
:10444000854200D100E000BF208850B92389A288AE
:1044500061882846FFF7ABFFE1882846FFF79EFFFB
:1044600025E0208804280AD12389A288618828466B
:10447000FFF753FFE1882846FFF742FF17E0208847
:1044800008280AD12389A28861882846FFF7FBFE05
:10449000E1882846FFF7EEFE09E02389A2886188BB
:1044A0002846FFF7A6FEE1882846FFF795FE70BD77
:1044B0002DE9F04105460C4600260127608808B921
:1044C000022600E00026A088012801D1022700E092
:1044D00001272088A0B92389A28861882846FFF790
:1044E00066FFE1882846FFF759FF23893A4631469F
:1044F0002846FFF712FFE1882846FFF701FF13E087
:104500002389A28861882846FFF707FFE1882846AB
:10451000FFF7F6FE23893A4631462846FFF747FF64
:10452000E1882846FFF73AFFBDE8F0810A884B880A
:104530001A438B881A43CB881A430B891A434B8939
:104540001A438B891A43A0F8442070474FF6FF7135
:10455000818000210180C18041800172704700216B
:10456000018041808180C180018141818181C1813F
:104570007047002101804180012181800021C1809C
:10458000018170470021018041808180C1800181CB
:104590004181818170470000002C014000340140BE
:1045A0000004004000080040000C004021B10288D7
:1045B00042F00102028004E002884FF6FE731A40C6
:1045C0000280704731B1B0F8442042F40042A0F8B4
:1045D000442005E0B0F84420C2F30E02A0F84420C5
:1045E00070471AB183890B43838102E083898B432F
:1045F000838170478182704741EA0203A0F8483006
:1046000070471AB183890B43838102E083898B430E
:104610008381704701894FF6F8721140018170471C
:104620000A46002101894FF68F7319401143018119
:10463000704730B504460D4629462046FFF7F0FF87
:10464000208940F00700208130BD2DE9F04104466B
:104650000D4616461F46602D06D13B4601223146C7
:104660002046FFF75AFE05E03B4601223146204630
:10467000FFF79DFE29462046FFF7D2FF208940F034
:1046800007002081BDE8F08130B50C46002101898A
:10469000C9B24FF6FF7505EA0325154325432943A3
:1046A000018130BD2DE9F04105460E46174698467A
:1046B000002443463A4631462846FFF7E5FF2C8959
:1046C0004FF6F870044044F007044FF68F70044032
:1046D00044F070042C81BDE8F081F0B504460D462D
:1046E00016461F463B46324629462046FFF7CCFF7A
:1046F000208940F480402081F0BD0185828270478E
:104700000A46002101884FF68F731940114301803A
:104710007047F0B50C4615461E46002100220023C6
:104720000189028B038C4FF6F877394021434FF60D
:10473000FC473A4040F201173A434FF6DD773B40E1
:104740004FF6FF7707EA06172F433B4301810283A9
:104750000384F0BD0A460021018B4FF68F73194088
:104760001143018370470A460021018B48F6FF730D
:1047700019404FF6FF7303EA022319430183704780
:104780000A460021818B4FF68F73194011438183B4
:1047900070470A460021818B48F6FF7319404FF697
:1047A000FF7303EA022319438183704721B1028812
:1047B00042F08002028004E002884FF67F731A40C4
:1047C0000280704721B1828842F00402828004E0B6
:1047D00082884FF6FB731A408280704721B182882D
:1047E00042F00802828004E082884FF6F7731A4094
:1047F0008280704721B1828842F00102828004E009
:1048000082884FF6FE731A40828070470A46002164
:10481000018B4FF6F77319401143018370470A4625
:104820000021018B4FF2FF7319404FF6FF7303EA2B
:1048300002231943018370470A460021818B4FF6FA
:10484000F77319401143818370470A460021818B19
:104850004FF2FF7319404FF6FF7303EA0223194327
:10486000818370470A460021018B4FF6FB73194084
:104870001143018370470A460021018B4FF6FF3335
:1048800019404FF6FF7303EA02231943018370476F
:104890000A460021818B4FF6FB7319401143818337
:1048A00070470A460021818B4FF6FF3319404FF6BF
:1048B000FF7303EA02231943818370470A460021EC
:1048C000018B4FF67F7319401143018370470A46ED
:1048D0000021018BC1F30E014FF6FF7303EA02239F
:1048E0001943018370470A460021818B4FF67F737D
:1048F00019401143818370470A460021818BC1F31F
:104900000E014FF6FF7303EA0223194381837047B8
:104910000A460021018C4FF6FD73194011430184B2
:1049200070470A460021018C4FF6F7731940114376
:10493000018470470A460021018C4FF6DF7319404D
:104940004FF6FF7303EA02131943018470470A46C6
:104950000021018C4FF67F7319404FF6FF7303EA75
:1049600002131943018470470A460021018C4FF657
:10497000FF5319404FF6FF7303EA022319430184E2
:1049800070470A460021018C4FF2FF7319404FF621
:10499000FF7303EA02231943018470470A4600218A
:1049A000018C4DF6FF7319404FF6FF7303EA023393
:1049B00019430184704730B5002301248C40A3B211
:1049C000048C9C430484048C02FA01F5ADB22C43A0
:1049D000048430BD30B5002304248C40A3B2048C81
:1049E0009C430484048C02FA01F5ADB22C43048488
:1049F00030BD70B50346002000241846183001254C
:104A00008D40ACB21D8CA5431D8409B1082909D184
:104A100000EB6100056825F0700505600568154329
:104A200005600EE00D1FC5F34E052844056825F40A
:104A3000E045056005684FF6FF7606EA0226354335
:104A4000056070BD21B1028842F00202028004E0DC
:104A500002884FF6FD731A400280704721B1028828
:104A600042F00402028004E002884FF6FB731A4011
:104A70000280704721B1828842F08002828004E087
:104A800082884FF67F731A408280704702884FF603
:104A9000F7731A40028002880A43028070478288B6
:104AA0004FF68F731A40828082880A438280704753
:104AB00002894FF6F8731A40028102890A43028183
:104AC000704702894FF67F731A40028102890A43B8
:104AD0000281704781847047818570478186704765
:104AE0000187704781877047A0F84010704702889F
:104AF0004FF6FF431A40028002880A430280704743
:104B00000146888E70470146088F70470146888F9E
:104B100070470146B1F8400070470146888C7047E5
:104B20000146088D704702460020138A0B400BB1E6
:104B3000012000E000207047CA430282704730B570
:104B40000246002000230024158A05EA0103958906
:104B500005EA010413B10CB1012000E0002030BDD2
:104B6000CA4302827047000010B50446FB488442E5
:104B700009D101218803FFF79FF800214FF48040FD
:104B8000FFF79AF832E0F648844209D1012148043F
:104B9000FFF79FF800214FF40030FFF79AF825E067
:104BA000F048844209D101218804FFF792F80021DE
:104BB0004FF48020FFF78DF818E0EB48844209D1CC
:104BC0000121C804FFF785F800214FF40020FFF70A
:104BD00080F80BE0E548844208D101210805FFF781
:104BE00078F800214FF48010FFF773F810BD2DE91D
:104BF000F04786B005460E460024A24600BFA146F7
:104C00000027B08900B100BF2F462C8A4CF6FF70F8
:104C10000440F08804432C82AC894EF6F310044023
:104C2000B08831890843718908430443AC81AC8A58
:104C30004FF6FF400440B0890443AC8201A8FEF760
:104C4000B4FFC648874202D1DDF810A001E0DDF8CC
:104C50000CA0A88900F4004040B10AEBCA0000EBA8
:104C60000A1031684900B0FBF1F807E00AEBCA000E
:104C700000EB0A1031688900B0FBF1F86420B8FB42
:104C8000F0F004012009642101FB1089A88900F4D7
:104C9000004040B1322000EBC900B0FBF1F000F061
:104CA0000700044308E0322000EB09106421B0FB48
:104CB000F1F000F00F0004432C8106B0BDE8F0874E
:104CC0004FF41651016000218180C18001810C21C7
:104CD000418100218181704710B502460020108A71
:104CE0004FF2FF0318400B884C8823438C882343E2
:104CF000CC8823431843108210BD002101804180DD
:104D00008180C180704721B1828942F40052828142
:104D100004E082894DF6FF731A4082817047F0B536
:104D20000346002400260025002040F66A17B942F9
:104D300000D100BF1846C1F3421401F01F0601273D
:104D400007FA06F5012C01D10C3004E0022C01D148
:104D5000103000E014301AB107682F43076002E0FA
:104D60000768AF430760F0BD1AB1838A0B438382A3
:104D700002E0838A8B4383827047028A4FF6F07386
:104D80001A400282028A0A430282704782894FF2E5
:104D9000FF731A40828182890A438281704721B160
:104DA000828942F00202828104E082894FF6FD731B
:104DB0001A4082817047028A4FF6DF731A400282DE
:104DC000028A0A430282704721B1028A42F4804279
:104DD000028204E0028A4BF6FF731A400282704797
:104DE000C1F308028280704701468888C0F308003A
:104DF0007047818941F0010181817047028BD2B2F5
:104E00000283028B42EA012202837047028B02F482
:104E10007F420283028B0A430283704721B1828A58
:104E200042F02002828204E0828A4FF6DF731A4049
:104E30008282704721B1828A42F01002828204E0AD
:104E4000828A4FF6EF731A408282704721B1828ABC
:104E500042F00802828204E0828A4FF6F7731A4019
:104E60008282704721B1828942F40042828103E04C
:104E70008289C2F30E028281704721B1828A42F494
:104E80000062828204E0828A4FF2FF731A408282BB
:104E90007047828A4FF6FB731A408282828A0A43E5
:104EA0008282704721B1828A42F00202828204E04B
:104EB000828A4FF6FD731A408282704702460020B4
:104EC000B1F5007F00D100BF13880B400BB101206A
:104ED00000E00020704701F40072B2F5007F00D1BD
:104EE00000BFCA430280704770B502460024002309
:104EF0000025002040F66A16B14200D100BFC1F380
:104F0000421501F01F03012606FA03F3012D02D119
:104F10009689334006E0022D02D1168A334001E023
:104F2000968A33400C12012606FA04F4168834409F
:104F300013B10CB1012000E0002070BD10B50022BB
:104F4000002340F66A14A14200D100BF0A120124D6
:104F50009440A3B2DC43048010BD0000003801403F
:104F60000044004000480040004C00400050004019
:104F7000002044490860091D0860091D0860091DDA
:104F8000086041483F4914310860704700213D499D
:104F90008279002A3AD00A46126803689A430B467F
:104FA0001A600A1D126803689A430B1D1A60027981
:104FB00011440A6803681A430A60324A08321268C8
:104FC00003689A432F4B08331A601A1D126803684E
:104FD0009A432C4B0C331A604279102A0ED11A1FB7
:104FE000126803681A43274B08331A601A1D1268A7
:104FF00003681A43234B0C331A600DE021494279B0
:1050000011440A6803681A430A6005E002791144F2
:105010000A6803689A430A607047002101600171C1
:105020000C214171002181717047164910310968C6
:105030000143144A10321160704701460020114AA2
:10504000143212680A400AB1012000E000207047C3
:105050000C49143108607047014600200022094BBA
:105060001B6803EA0102074B14331B680B4013B1A2
:105070000AB1012000E000207047024914310860A5
:105080007047000000040140FFFF0F0001460020B0
:10509000FE4A106800F03800084310607047FB4972
:1050A000096821F00801F94A1160114609680143B5
:1050B00011607047F549096821F01001F34A116049
:1050C00011460968014311607047F148EF49486093
:1050D000F04848607047EE48EC494860ED48486049
:1050E0007047EA48006940F08000E849086170476D
:1050F000E648006940F08000E449086170470420F8
:10510000E249C96801F0010109B101200EE0DF495F
:10511000C96801F0040109B1022007E0DB49C96850
:1051200001F0100109B1032000E00420704700B530
:1051300002460423FFF7E3FF034603E0FFF7DFFF28
:105140000346521E012B01D1002AF7D102B90523D3
:10515000184600BD30B5044604254FF43020FFF753
:10516000E6FF0546042D17D1C848006940F002004B
:10517000C649086108464461006940F04000086182
:105180004FF43020FFF7D3FF0546C048006941F6D1
:10519000FD710840BD490861284630BD10B50424A2
:1051A0004FF43020FFF7C3FF0446042C16D1B74854
:1051B000006940F00400B54908610846006940F004
:1051C000400008614FF43020FFF7B1FF0446AF48BC
:1051D000006941F6FB710840AC490861204610BDEA
:1051E00000B502460423FFF78AFF034603E0FFF7FA
:1051F00086FF0346521E012B01D1002AF7D102B9C6
:105200000523184600BD10B504244FF43020FFF7E5
:10521000E7FF0446042C16D19C48006940F00400C6
:105220009A4908610846006940F0400008614FF45F
:105230003020FFF7D5FF04469448006941F6FB7122
:10524000084092490861204610BD00208F49C96975
:1052500001F0020109B1012000E00020704730B5E3
:10526000A5250424FFF7F1FF00B100254FF43020FD
:10527000FFF75DFF0446042C3AD1854883498860D6
:10528000844888600846006940F0200008610846AC
:10529000006940F0400008614FF43020FFF747FFFD
:1052A0000446042C1BD17948006941F6DF7108409F
:1052B000764908610846006940F0100008617648A8
:1052C0000580E002FFF733FF0446052C10D06F483D
:1052D000006941F6EF7108406C49086108E0052C4F
:1052E00006D06A48006941F6EF71084067490861D5
:1052F000204630BD78B506460C46042500200090B7
:10530000E802FFF714FF0546042D24D15F48006929
:1053100040F001005D4908613480E802FFF707FFB3
:105320000546042D10D1B01C0090200C0099088077
:10533000E802FFF7FCFE05465448006941F6FE719D
:1053400008405249086106E05048006941F6FE7184
:1053500008404E490861284678BD70B504460D46A0
:105360000426F002FFF7E3FE0646042E11D147485B
:10537000006940F00100454908612580F002FFF70F
:10538000D6FE06464148006941F6FE7108403F4995
:105390000861304670BD70B505460E460424E00233
:1053A000FFF7C5FE0446042C17D1394837498860F9
:1053B000384888600846006940F0100008612E8077
:1053C000E002FFF7B4FE0446052C06D02F48006922
:1053D00041F6EF7108402D490861204670BD2DE966
:1053E000F04304464FF6FF763746B046B1460425F3
:1053F000E443E6B2C4F30727C4F307484FEA14694D
:10540000E802FFF794FE0546042D49D120481F49C4
:105410008860204888600846006940F010000861F4
:10542000FF2E06D01C4808300680E802FFF77FFEFA
:105430000546042D08D1FF2F06D017480A300780F3
:10544000E802FFF774FE0546042D0AD1B8F1FF0FFC
:1054500007D011480C30A0F80080E802FFF767FE83
:105460000546042D0AD1B9F1FF0F07D00A480E30C6
:10547000A0F80090E802FFF75AFE0546052D0FD070
:105480000248006941F6EF71084007E00020024041
:1054900023016745AB89EFCD00F8FF1F664908611E
:1054A0002846BDE8F08330B5054604244FF430208B
:1054B000FFF73DFE0446042C41D160485E498860F8
:1054C0005F4888600846006940F02000086108468F
:1054D000006940F0400008614FF43020FFF727FEDC
:1054E0000446042C22D15448006941F6DF7108407B
:1054F000514908610846006940F0100008611DB17B
:1055000000205049088002E0A5204E4908804FF451
:105510003020FFF70CFE0446052C10D046480069E9
:1055200041F6EF7108404449086108E0052C06D0B7
:105530004148006941F6DF7108403F490861204653
:1055400030BDF0B505460E46174604243B483A499F
:1055500088603B488860E002FFF7E9FD0446042CC0
:1055600019D13548006940F010003349086147F00F
:10557000F800304328433349891C0880E002FFF7D4
:10558000D6FD0446052C06D02B48006941F6EF7184
:105590000840294908612046F0BD2748C0698008B5
:1055A00070472548006A704700202349096801F0C8
:1055B000200109B1012000E00020704729B11E4AF6
:1055C000126902431C4B1A6104E01B4A12698243B0
:1055D000194B1A61704701460020012908D1164A6B
:1055E000D26902F001020AB1012008E0002006E0C1
:1055F000114AD2680A400AB1012000E00020704739
:105600000D49C860704704200B49C96801F00101C9
:1056100009B101200EE00849C96801F0040109B18F
:10562000022007E00449C96801F0100109B1032014
:1056300000E004207047000000200240230167457D
:10564000AB89EFCD00F8FF1F01684FF6FE721140E5
:1056500001600021016041608160C1608D49884224
:1056600008D18C490839496841F00F01894A083A44
:1056700051608AE087491431884208D18549083948
:10568000496841F0F001834A083A51607DE0814960
:105690002831884208D17F490839496841F470614E
:1056A0007C4A083A516070E07A493C31884208D11E
:1056B00078490839496841F47041764A083A51609E
:1056C00063E074495031884208D172490839496809
:1056D00041F470216F4A083A516056E06D496431D7
:1056E000884208D16B490839496841F47001694A18
:1056F000083A516049E067497831884208D16549E4
:105700000839496841F07061624A083A51603CE0EA
:105710006149884206D1011F096841F00F01021F4B
:10572000116032E05C491431884208D15A49091F9E
:10573000096841F0F001584A121F116025E05649EE
:105740002831884208D15449091F096841F4706121
:10575000514A121F116018E04F493C31884208D16C
:105760004D49091F096841F470414B4A121F1160ED
:105770000BE049495031884207D14749091F096860
:1057800041F47021444A121F1160704710B5002285
:10579000026847F6F0739A430C6A8B6823430C69DE
:1057A00023434C6923438C692343CC6923434C6ACC
:1057B00023438C6A23431A430260CB6843600B681F
:1057C00083604B68C36010BD00210160416081604F
:1057D000C160016141618161C161016241628162B7
:1057E000704721B1026842F00102026004E00268E1
:1057F0004FF6FE731A40026070471AB103680B43FC
:10580000036002E003688B430360704741607047A8
:105810000146486880B2704701460020002201F02E
:1058200080531BB11C4B083B1A6802E0194B083B24
:105830001A6802EA01030BB1012000E00020704762
:1058400000F0805119B11449091F086002E01149A4
:1058500008394860704701460020002201F080535B
:105860001BB10D4B083B1A6802E00A4B083B1A6853
:1058700002EA01030BB1012000E00020704700F0B4
:10588000805119B10449091F086002E00149083933
:10589000486070470800024008040240421C10F8AB
:1058A000011B0029FBD1801A704770B5064600F035
:1058B00069FB046805460A220021304600F049F8D9
:1058C0002C6070BD30B50B4601460020202201241B
:1058D00009E021FA02F59D4205D303FA02F5491BBE
:1058E00004FA02F52844151EA2F10102F1DC30BDD4
:1058F0002DE9F05F0546002092469B468846064605
:10590000814640241BE0284641464746224600F097
:1059100032FA53465A46C01A914110D311461846DE
:10592000224600F019FA2D1A67EB01084F4622466D
:105930000120002100F010FA17EB00094E41201E53
:10594000A4F10104DFDC484631462A464346BDE85F
:10595000F09F2DE9F04791460F4680460446002609
:1059600014F8015B2DB100F029FA0068405DC00712
:10597000F6D12B2D02D02D2D18D0641E4A46394663
:10598000204600F01FFA27B13968A14201D1C7F8BB
:10599000008071054FF002040BD54042002803DD62
:1059A00000F0F0FA0460A007BDE8F08746F48066D6
:1059B000E4E70028F8DA00F0E5FA04606FF0004050
:1059C000F2E72DE9FE4F804681EA0300C00F0C4646
:1059D000009021F0004123F00045B8EB0200A941FE
:1059E00005D24046214690461C460B46024623F00F
:1059F0000040104347D0270DC7F30A00C3F30A51F4
:105A00000290401A019040286BDAC3F3130040F46F
:105A1000801B0098924620B10023D2EB030A63EB6F
:105A20000B0B01985946C0F14002504600F094F922
:105A300006460D4650465946019A00F0ACF910EB67
:105A400008006141002487EA115284EAE7731A438F
:105A500040D0009A62B3019A012A4FEA075215DC3E
:105A6000001B61EB02014FF0004202EA0752CDE950
:105A70000042001C41F5801132462B4600F000FA2E
:105A800003B0BDE8F08F40462146F9E7001B61EB0B
:105A90000201001C41F5801300185B412018A2F59B
:105AA000001747EB030140EAD570B6196D4111E0CC
:105AB0006D084FEA360645EAC0754FEA0752001BEB
:105AC00061EB0201001C41F5801149084FEA3000EA
:105AD0000019514132462B4603B0BDE8F04F00F0AB
