:020000040800F2
:1000000030180020D51E0008890400088B04000861
:100010008F04000893040008970400080000000003
:100020000000000000000000000000009B04000829
:100030009D040008000000009F040008A1040008BF
:10004000EF1E0008EF1E0008EF1E0008EF1E00085C
:10005000EF1E0008EF1E0008EF1E0008EF1E00084C
:10006000EF1E000899130008EF1E0008EF1E00089D
:10007000EF1E0008EF1E0008EF1E0008EF1E00082C
:10008000EF1E0008EF1E0008EF1E0008EF1E00081C
:10009000EF1E0008EF1E0008EF1E0008EF1E00080C
:1000A000EF1E0008EF1E0008EF1E0008EF1E0008FC
:1000B0001F040008B91C0008EF1E0008EF1E00080E
:1000C000EF1E0008EF1E0008EF1E0008EF1E0008DC
:1000D000EF1E0008EF1E0008EF1E0008EF1E0008CC
:1000E000EF1E0008EF1E0008EF1E0008EF1E0008BC
:1000F000EF1E0008EF1E0008EF1E0008EF1E0008AC
:10010000EF1E0008EF1E0008EF1E0008EF1E00089B
:10011000EF1E0008EF1E0008EF1E0008EF1E00088B
:10012000EF1E0008EF1E0008EF1E0008EF1E00087B
:1001300000F002F800F03AF80AA090E8000C8244BF
:100140008344AAF10107DA4501D100F02FF8AFF29C
:10015000090EBAE80F0013F0010F18BFFB1A43F0A5
:1001600001031847343F0000543F0000103A24BFF9
:1001700078C878C1FAD8520724BF30C830C144BF0C
:1001800004680C607047000000230024002500264E
:10019000103A28BF78C1FBD8520728BF30C148BFEA
:1001A0000B6070471FB51FBD10B510BD03F039FFC0
:1001B0001146FFF7F7FF00F0F7F803F057FF03B41D
:1001C000FFF7F2FF03BC03F05FFF000010B501F082
:1001D00095FB01F0D7FB002001F035FC10BDC020DD
:1001E0009E490870A8204870002088700120C870BF
:1001F000FF209B490870487088700020C8700C2050
:100200009849087029204870AB2088707C20C870FD
:100210000020087101204871C02093490870A8206F
:100220004870002088704620C87013208F490870DD
:100230008820487000208E490870704710B58D489E
:100240000078F8B98A48007860B9002001F043FCD2
:10025000FF2803D101208749087020E0002085494C
:1002600008701CE08248007801280CD1002001F0C1
:100270000FFCFF2803D101207E4908700FE0002009
:100280007C4908700BE0002001F06BFCFF2803D1D3
:1002900003207849087002E000207649087010BDFC
:1002A0000EB50121084602F0CCF90920ADF8040092
:1002B00041F61F40ADF800000020ADF80600ADF893
:1002C000020069464FF0804002F0E6FA0122114632
:1002D000900702F058FE0121880702F039FE0EBD9A
:1002E00008B500214FF0006001F04BFE4FF4C060F4
:1002F00001F010FE1C208DF8000000208DF8010098
:100300008DF8020001208DF80300684601F007FE19
:1003100001F032F808BD10B502F018F84FF4803043
:1003200002F034F802F071F80446012C2FD11020AD
:1003300003F014FB022003F0FDFA002002F0ABF8FA
:10034000002002F0BAF8A00202F0AEF84FF4E0117B
:10035000200402F083F8012002F08CF800BF39205D
:1003600002F037F80028FAD0022002F086F800BF29
:1003700002F08CF80828FBD1012002F08DF9012150
:10038000084602F05EF901213D2002F04DF910BD52
:1003900010B5FFF7C0FFFFF7A3FF01F009F8FFF763
:1003A0007FFF00F0B7FF10BDFFF7F2FFFFF717FF69
:1003B00001F094FAFFF70AFF01F0AAFC4FF4A060E5
:1003C00001F0A8FD01F00EFD41F61F4140F2F310CF
:1003D00001F046FC4FF47A7001F0D7FC1EE0FFF705
:1003E0002DFF2548007808B101F0D9FB234800789B
:1003F00000F0010090B12148007820F001001F4971
:100400000870002000F017FF1A480078032805D173
:100410001A48007820F0020018490870DFE710B58C
:100420000121880703F05DF801280DD10121800723
:1004300003F068F812480068401C11490860114830
:100440000068401C0F49086010BD00210C4A116073
:1004500000BF0B4909688142FBD370478A00002026
:100460008E00002092000020980000209C000020B8
:10047000AA000020AB000020AD000020AC0000204E
:100480000000002004000020704700BFFEE700BF0E
:10049000FEE700BFFEE700BFFEE77047704770470A
:1004A000704700000CB50020019000906C48006877
:1004B00040F480306A49086000BF6948006800F471
:1004C000003000900198401C0190009818B90198E4
:1004D000B0F5A06FF1D16248006800F4003010B1AF
:1004E0000120009001E0002000900098012843D1F5
:1004F0005C48006840F010005A49086008460068EF
:1005000020F0030008600846006840F00200086020
:100510005348406852494860084640684860084669
:10052000406840F4806048600846406820F47C10D1
:1005300048600846406840F4E81048600846006893
:1005400040F08070086000BF4548006800F000700F
:100550000028F9D04248406820F003004049486034
:100560000846406840F00200486000BF3C484068D0
:1005700000F00C000828F9D10CBD10B5FFF792FF70
:1005800010BD10B53648006840F0010034490860DD
:1005900008464068344908403149486008460068C8
:1005A000324908402E4908600846006820F480203F
:1005B00008600846406820F4FE0048604FF41F00C1
:1005C0008860FFF7DAFF4FF000602949086010BD2E
:1005D00010B5002100200022214B5B6803F00C01C4
:1005E00021B1042906D0082928D107E0214B224C4B
:1005F000236027E01F4B204C236023E0184B5B68EF
:1006000003F47010164B5B6803F48032022303EB93
:10061000904022B9194B4343174C23600DE0104B17
:100620005B6803F4003323B1144B4343124C236043
:1006300003E0104B4343104C236003E00D4B0E4C82
:10064000236000BF00BF064B5B68C3F303130C4C71
:10065000E15C094B1B68CB40074C236010BD0000D8
:1006600000100240002002400000FFF8FFFFF6FEED
:1006700008ED00E000127A000800002000093D00AB
:100680000C000020F0B5034600241D460E4600BFB6
:1006900009E028783778B84201D00020F0BD6D1C01
:1006A000761C601CC4B29442F3DB0120F6E7F0B57F
:1006B000024600250023002417460E4606E0521C81
:1006C000581CC3B2642B01DD0020F0BD10780D284A
:1006D00002D010780028F2D106E0491C601CC4B298
:1006E000642C01DD0020F0E708780D2802D008789E
:1006F0000028F2D1A34210D100250AE0387896F8FC
:1007000000C0604501D00020DFE77F1C761C681C1C
:10071000C5B29D42F2DB0120D7E70020D5E770B5D6
:1007200005460C46A5F16400322870D2DFE800F0DF
:100730001929394959697A8A9AACBEF7F5F4F3F266
:10074000F1F0EFEEEDECEBEAE9E8E7E6E5E4E3E211
:10075000E1E0DFDEDDDCDBDAD9D8D7D6D5D4D3D201
:10076000D1D024B90121FA4801F051FD03E0012163
:10077000F74801F04AFD0B22F6A1002001F02EF807
:1007800096E224B90221F24801F041FD03E0022182
:10079000EF4801F03AFD0B22F1A1002001F01EF814
:1007A000F4E324B90421EA4801F031FD03E0042117
:1007B000E74801F02AFD0B22ECA1002001F00EF821
:1007C000E4E324B90821E24801F021FD03E0082117
:1007D000DF4801F01AFD0B22E7A1002000F0FEFF28
:1007E000D4E324B91021DA4801F011FD03E010210F
:1007F000D74801F00AFD0B22E2A1002000F0EEFF35
:10080000C4E32CB92021D24801F001FD04E0BCE38F
:100810002021CF4801F0F9FC0B22DDA1002000F0DF
:10082000DDFFB3E324B94021C94801F0F0FC03E047
:100830004021C74801F0E9FC0B22D8A1002000F0BC
:10084000CDFFA3E324B98021C14801F0E0FC03E01F
:100850008021BF4801F0D9FC0B22D3A1002000F079
:10086000BDFF93E32CB94FF48071B94801F0CFFC80
:1008700004E04FF48071B64801F0C7FC0B22CDA113
:10088000002000F0ABFF81E32CB94FF40071B048B9
:1008900001F0BDFC04E04FF40071AD4801F0B5FC7F
:1008A0000B22C7A1002000F099FF6FE32CB94FF491
:1008B0008061A74801F0ABFC04E04FF48061A448DC
:1008C00001F0A3FC0B22C1A1002000F087FF5DE333
:1008D00049E336E323E312E301E3F0E2DFE2CEE2B1
:1008E000BDE2ACE29BE288E275E264E253E242E2FE
:1008F00031E220E20FE2FEE1EDE1DAE11FE10CE19D
:10090000F9E0E6E0D3E0C0E0ADE09CE08BE07AE027
:1009100069E058E047E036E025E012E0FFE72CB957
:100920004FF400618A4801F072FC04E04FF400616A
:10093000874801F06AFC0B22A7A1002000F04EFFBF
:1009400024E32CB94FF48051814801F060FC04E0AD
:100950004FF480517E4801F058FC0B22A1A10020E9
:1009600000F03CFF12E324B90121A14801F04FFC43
:1009700003E001219E4801F048FC0B229DA10020CC
:1009800000F02CFF02E324B90221994801F03FFC5A
:1009900003E00221964801F038FC0B2298A10020C8
:1009A00000F01CFFF2E224B90421914801F02FFC71
:1009B00003E004218E4801F028FC0B2293A10020C3
:1009C00000F00CFFE2E224B90821894801F01FFC85
:1009D00003E00821864801F018FC0B228EA10020BC
:1009E00000F0FCFED2E224B91021814801F00FFC96
:1009F00003E010217E4801F008FC0B2289A10020B1
:100A000000F0ECFEC2E224B92021794801F0FFFB9E
:100A100003E02021764801F0F8FB0B2284A100209E
:100A200000F0DCFEB2E224B94021714801F0EFFB96
:100A300003E040216E4801F0E8FB0B227FA100207B
:100A400000F0CCFEA2E224B98021694801F0DFFB6E
:100A500003E08021664801F0D8FB0B227AA1002038
:100A600000F0BCFE92E22CB94FF48071604801F0B6
:100A7000CEFB04E04FF480715D4801F0C6FB0B2211
:100A800074A1002000F0AAFE80E22CB94FF400719E
:100A9000574801F0BCFB04E04FF40071544801F0EA
:100AA000B4FB0B226EA1002000F098FE6EE22CB980
:100AB0004FF480614E4801F0AAFB04E04FF48061DE
:100AC0004B4801F0A2FB0B2268A1002000F086FE3B
:100AD0005CE22CB94FF40061454801F098FB04E05A
:100AE0004FF40061424801F090FB0B2262A100200C
:100AF00000F074FE4AE22CB94FF480513C4801F0FA
:100B000086FB04E04FF48051394801F07EFB0B2254
:100B10005CA1002000F062FE38E22CB94FF40051D5
:100B2000334801F074FB04E04FF40051304801F009
:100B30006CFB0B2256A1002000F050FE26E22CB9DF
:100B40004FF480412A4801F062FBACE0A6E00000CF
:100B5000001001407365745F696F5F3130303B0096
:100B60007365745F696F5F3130313B007365745F2B
:100B7000696F5F3130323B007365745F696F5F315D
:100B800030333B007365745F696F5F3130343B0015
:100B90007365745F696F5F3130353B007365745FF7
:100BA000696F5F3130363B007365745F696F5F3129
:100BB00030373B007365745F696F5F3130383B00DD
:100BC0007365745F696F5F3130393B007365745FC3
:100BD000696F5F3131303B007365745F696F5F31FE
:100BE00031313B007365745F696F5F3131323B00B7
:100BF000001401407365745F696F5F3131333B00EE
:100C00007365745F696F5F3131343B007365745F86
:100C1000696F5F3131353B007365745F696F5F31B8
:100C200031363B007365745F696F5F3131373B006C
:100C30007365745F696F5F3131383B007365745F52
:100C4000696F5F3131393B007365745F696F5F3184
:100C500032303B007365745F696F5F3132313B0046
:100C60007365745F696F5F3132323B007365745F27
:100C7000696F5F3132333B007365745F696F5F3159
:100C800032343B007365745F696F5F3132353B000E
:100C90007365745F696F5F3132363B004FF480419A
:100CA000FE4801F0B2FA0B22FDA1002000F096FDF3
:100CB0006CE12CB94FF40041F84801F0A8FA04E0C7
:100CC0004FF40041F54801F0A0FA0B22F7A10020F3
:100CD00000F084FD5AE124B90121F74801F097FAA8
:100CE00003E00121F44801F090FA0B22F3A1002067
:100CF00000F074FD4AE124B90221EF4801F087FABF
:100D000003E00221EC4801F080FA0B22EEA1002062
:100D100000F064FD3AE124B90421E74801F077FAD4
:100D200003E00421E44801F070FA0B22E9A100205D
:100D300000F054FD2AE124B90821DF4801F067FAE8
:100D400003E00821DC4801F060FA0B22E4A1002056
:100D500000F044FD1AE124B91021D74801F057FAF8
:100D600003E01021D44801F050FA0B22DFA100204B
:100D700000F034FD0AE124B92021CF4801F047FA00
:100D800003E02021CC4801F040FA0B22DAA1002038
:100D900000F024FDFAE024B94021C74801F037FAF9
:100DA00003E04021C44801F030FA0B22D5A1002015
:100DB00000F014FDEAE024B98021BF4801F027FAD1
:100DC00003E08021BC4801F020FA0B22D0A10020D2
:100DD00000F004FDDAE02CB94FF48071B64801F060
:100DE00016FA04E04FF48071B34801F00EFA0B22BA
:100DF000CAA1002000F0F2FCC8E02CB94FF4007149
:100E0000AD4801F004FA04E04FF40071AA4801F083
:100E1000FCF90B22C4A1002000F0E0FCB6E024B9EC
:100E20000121C44801F0F3F903E00121C14801F0B8
:100E3000ECF90B22C0A1002000F0D0FCA6E024B900
:100E40000221BC4801F0E3F903E00221B94801F0B6
:100E5000DCF90B22BBA1002000F0C0FC96E024B915
:100E60000421B44801F0D3F903E00421B14801F0B2
:100E7000CCF90B22B6A1002000F0B0FC86E024B92A
:100E80000821AC4801F0C3F903E00821A94801F0AA
:100E9000BCF90B22B1A1002000F0A0FC76E024B93F
:100EA0001021A44801F0B3F903E01021A14801F09A
:100EB000ACF90B22ACA1002000F090FC66E024B954
:100EC00020219C4801F0A3F903E02021994801F07A
:100ED0009CF90B22A7A1002000F080FC56E024B969
:100EE0004021944801F093F903E04021914801F03A
:100EF0008CF90B22A2A1002000F070FC46E024B97E
:100F000080218C4801F083F903E08021894801F0B9
:100F10007CF90B229DA1002000F060FC36E02CB98A
:100F20004FF48071834801F072F904E04FF480714E
:100F3000804801F06AF90B2297A1002000F04EFCD6
:100F400024E02CB94FF400717A4801F060F904E014
:100F50004FF40071774801F058F90B2291A100205D
:100F600000F03CFC12E02CB94FF48061714801F0B4
:100F70004EF904E04FF480616E4801F046F90B220F
:100F80008BA1002000F02AFC00E000BF00BF70BD74
:100F90002DE9F0410546002700240026284602F0EE
:100FA000A7FF87B200BF11E0285D30280ADB285D6B
:100FB000392807DC285D06EB860100EB410030385C
:100FC00086B201E0FF2603E0601C84B2BC42EBDB8A
:100FD00000BF3046BDE8F0812DE9FE4F05460020F8
:100FE000009001900290002406E1285D28281BD182
:100FF000601CC4B2002606E0285D0DF80600601CE7
:10100000C4B2701CC6B2285D2C28F5D16846FFF723
:10101000BFFF00F0FF08002604E000200DF80600E6
:10102000701CC6B20A2EF8DB0027E0E0285D2C28F1
:1010300032D1601CC4B200260CE0285D302807DBEA
:10104000285D392804DC285D0DF80600701CC6B246
:10105000601CC4B2285D3D28EFD16846FFF798FFB9
:101060008246002604E000200DF80600701CC6B27F
:101070000A2EF8DB00260CE0285D302807DB285D0F
:10108000392804DC285D0DF80600701CC6B2601C0F
:10109000C4B2285D2C2891E0A7E0000000140140B4
:1010A0007365745F696F5F3132373B007365745FDE
:1010B000696F5F3132383B00000C01407365745F2B
:1010C000696F5F3132393B007365745F696F5F31FF
:1010D00033303B007365745F696F5F3133313B00C0
:1010E0007365745F696F5F3133323B007365745FA2
:1010F000696F5F3133333B007365745F696F5F31D4
:1011000033343B007365745F696F5F3133353B0087
:101110007365745F696F5F3133363B007365745F6D
:10112000696F5F3133373B007365745F696F5F319F
:1011300033383B00001801407365745F696F5F319D
:1011400033393B007365745F696F5F3134303B0046
:101150007365745F696F5F3134313B007365745F31
:10116000696F5F3134323B007365745F696F5F3163
:1011700034333B007365745F696F5F3134343B0017
:101180007365745F696F5F3134353B007365745FFD
:10119000696F5F3134363B007365745F696F5F312F
:1011A00034373B007365745F696F5F3134383B00DF
:1011B0007365745F696F5F3134393B0003D0285D1C
:1011C00029287FF459AF6846FFF7E2FE00F0FF09D7
:1011D000002604E000200DF80600701CC6B20A2E9E
:1011E000F8DB49465046FFF79AFA781CC7B24745E4
:1011F000FFF61CAF601CC4B2285D00287FF4F5AE7A
:10120000BDE8FE8F00B5062236493748FFF73AFAA7
:1012100008B1012000BD33493448FFF748FA08B14E
:10122000FE20F7E72F493248FFF741FA08B1FF20C7
:10123000F0E70020EEE72DE9F04106460027002404
:101240002C49304600F033FA05462A4629492548FC
:1012500002F06DFE0A2000F098FDFFF7D3FF07466D
:10126000012F04D0FE2F0BD0FF2F29D11DE01D48E8
:10127000FFF7B2FE0A222049304600F0AFFA25E01F
:1012800006221A49304600F0A9FA092218493046C8
:1012900000F0A4FA21221449304600F09FFA0A22F5
:1012A0001549304600F09AFA10E0102213A130469A
:1012B00000F094FA0A221049304600F08FFA05E057
:1012C0002F221349304600F089FA00BF00BF0024E6
:1012D00003E0002003490855641CAC42F9D3BDE883
:1012E000F0810000CC0000201C0000203E00002007
:1012F00045000020CB0100207F000020636F646563
:101300005F763030345F303632360D0A0000000030
:101310004F0000200EB50420ADF8080001208DF824
:101320000A0010208DF80B0002A9FA4800F0C0FE58
:101330000421F84800F06BFF0820ADF808000320F6
:101340008DF80A0048208DF80B0002A9F14800F042
:10135000AFFE0321002000F0C1FF08200090002014
:101360008DF804000C208DF8050001208DF8060092
:10137000684602F0D9F80EBD08B509208DF80000C6
:1013800000208DF8010001208DF802008DF8030087
:10139000684600F0C4FD08BD10B5082002F02AF927
:1013A00028B1082002F037F90120DB49087010BD90
:1013B00000B587B0012141F2050001F035F9E020C8
:1013C000ADF8180003208DF81A0018208DF81B00C6
:1013D00006A9D04800F06CFEE021CE4800F015FFD1
:1013E0001020ADF8180003208DF81A0010208DF899
:1013F0001B0006A9C74800F05BFE1021C54800F09D
:1014000004FF0020ADF804004FF48270ADF8060030
:101410000020ADF80800ADF80A00ADF80C004FF45C
:101420000070ADF80E000020ADF81000ADF812000D
:101430000720ADF8140001A9B84802F01BF90121FA
:10144000B64802F0BCF907B000BD10B5044621460D
:10145000B24802F0E5F900BF0221B04802F033FAC9
:101460000028F9D010BD70B504462546E11704EBFD
:101470001161C1F30720FFF7E8FFE0B2FFF7E5FFD6
:1014800070BD70B505460C461021A24800F0BFFEA5
:101490002846FFF7E8FF0520FFF7D7FF2046FFF7B4
:1014A000D4FF10219B4800F0B0FE70BD70B505461A
:1014B0000C461021974800F0AAFE2846FFF7D3FFFC
:1014C0000620FFF7C2FF2046FFF7CDFF102191480D
:1014D00000F09BFE70BD2DE9F04107460C46154615
:1014E00010218C4800F093FE3846FFF7BCFF042023
:1014F000FFF7ABFF002605E014F8010BFFF7A5FF8F
:10150000701C86B2AE42F7DB1021824800F07DFEEF
:10151000BDE8F08170B504460D46164610217D48A1
:1015200000F075FE2846FFF79EFF082101EB4411ED
:10153000C9B241F00500FFF788FF3046FFF785FF8D
:101540001021744800F061FE70BD70B504460D4670
:10155000164610216F4800F05AFE2846FFF783FF19
:10156000082101EB4411C9B241F00600FFF76DFFFD
:101570003046FFF778FF1021664800F046FE70BD48
:1015800070B505460E4614461021624800F03FFE35
:101590003046FFF768FF082101EB4511C9B241F061
:1015A0000700FFF752FF14F8010BFFF74EFF14F886
:1015B000010BFFF74AFF14F8010BFFF746FF14F881
:1015C000010BFFF742FF1021524800F01EFE70BDD4
:1015D00070B5044610214F4800F019FE2046FFF771
:1015E00042FF0120FFF731FF4C4802F01BF9C5B262
:1015F0000020FFF72AFF494802F014F9C5B2102174
:10160000444800F002FE284670BD70B504460D4601
:101610001021404800F0FBFD2846FFF724FF082179
:1016200001EB4411C9B241F00100FFF70EFF3B4846
:1016300002F0F8F8C6B20020FFF707FF374802F0C3
:10164000F1F8C6B21021334800F0DFFD304670BD1E
:1016500070B505460E4610212E4800F0D8FD3046E4
:10166000FFF701FF082101EB4511C9B241F002006B
:10167000FFF7EBFE294802F0D5F804460020FFF7FB
:10168000E4FE264802F0CEF804460020FFF7DDFE17
:101690004FF6FF7000EA0424204802F0C3F820440B
:1016A00084B210211B4800F0B0FD204670BD2DE92A
:1016B000F04780460D4626214046FFF7C9FF064603
:1016C00016B90020BDE8F08740F2B450864200DD34
:1016D000064628214046FFF7BBFF0746B946C7F339
:1016E0000A0710210B4800F092FD3846FFF7BBFEB9
:1016F000182101EB4811C8B2FFF7A7FE074802F016
:1017000091F800F0FF0AB819B0F5006F18DA00245C
:1017100013E0000000080140AD000020003001404F
:101720000020FFF792FEFA4802F07CF800F0FF0A72
:1017300085F800A06D1C601C84B2B442F0DB39E077
:10174000C7F5006087B200240CE00020FFF77DFEA3
:10175000EF4802F067F800F0FF0A85F800A06D1C62
:10176000601C84B2BC42F0DB1021EA4800F04DFD61
:101770001021E84800F04BFD0020FFF774FE18210F
:1017800001EB4811C8B2FFF760FEE14802F04AF8E9
:1017900000F0FF0A0CE00020FFF757FEDC4802F0E3
:1017A00041F800F0FF0A85F800A06D1C601C84B2AF
:1017B000B442F0DB1021D74800F027FD09EB06000A
:1017C0001FFA80F94A4628214046FFF7BEFE402214
:1017D00001214046FFF79EFE304673E72DE9F047B2
:1017E00007460D46904600213846FFF70EFF00F0F1
:1017F0000F0022280ED0C84A0C213846FFF7C0FE41
:10180000C6484178007801EB002082B210213846AA
:10181000FFF79BFE24213846FFF71AFF0646B14624
:10182000C6F30A061021BB4800F0F1FC3046FFF772
:101830001AFE102101EB4711C9B241F00400FFF775
:1018400004FE06EB0800B0F5006F0ADA002405E09C
:1018500015F8010BFFF7F9FD601C84B24445F7DB76
:1018600028E0C6F5006086B2002405E015F8010BFB
:10187000FFF7EBFD601C84B2B442F7DB1021A548F2
:1018800000F0C3FC1021A34800F0C1FC0020FFF7CA
:10189000EAFD102101EB4711C9B241F00400FFF746
:1018A000D4FD05E015F8010BFFF7CFFD601C84B2F5
:1018B0004445F7DB1021974800F0A7FC09EB08002E
:1018C0001FFA80F94A4624213846FFF73EFE2022BF
:1018D00001213846FFF71EFEBDE8F08710B5042150
:1018E0008C4800F094FC3220FEF7AFFD04218948BB
:1018F00000F08BFCC820FEF7A8FD10BD10B5002439
:1019000080210020FFF7BDFD0A20FEF79EFD042286
:1019100083490120FFF7DFFD042282490520FFF7FC
:10192000DAFD062280490920FFF7D5FD04227F4910
:101930000F20FFF7D0FD00BF0BE002221E21204642
:10194000FFF7E8FD02221F212046FFF7E3FD601CA0
:10195000C4B2082CF1DB4FF4FA611920FFF7A6FDA1
:1019600008211B20FFF78DFDC0211620FFF789FD00
:1019700001211820FFF785FD1F222C210020FFF7F1
:10198000C9FD10BD38B569480078401CC0B28DF85B
:10199000000066484078401CC0B28DF801006348E2
:1019A0008078401CC0B28DF802006048C078401CAE
:1019B000C0B28DF803006A460C210020FFF7E0FD5D
:1019C000012200210846FFF7A5FD01221146002053
:1019D000FFF7A0FD0520FEF738FD03210020FFF7EB
:1019E00014FE132806D0102201210020FFF792FDDB
:1019F000002038BD042201210020FFF78BFD00BF2D
:101A0000002402210020FFF700FE044624B12246F4
:101A100002210020FFF77EFD0520FEF716FD04F0F1
:101A20000800082801D10020E3E706210020FFF785
:101A3000ECFDFF2806D0102201210020FFF76AFDEF
:101A4000FF20D6E7DCE710B5044640F2B45212217D
:101A50000020FFF77AFD082C17D2DFE804F0040F0E
:101A600010111213141532484178007801EB002050
:101A700082B204210020FFF768FD07E006E005E0E0
:101A800004E003E002E001E000E000BF00BF10BDA1
:101A900010B50446012200212046FFF73BFD01223C
:101AA00011462046FFF736FD0520FEF7CEFC032148
:101AB0002046FFF7AAFD132806D010220121204658
:101AC000FFF728FD002010BD042201212046FFF76A
:101AD00021FDFF20F7E710B5044601220021204632
:101AE000FFF718FD012211462046FFF713FD0520E0
:101AF000FEF7ABFC03212046FFF787FD132819D022
:101B0000102201212046FFF705FD002010BD000036
:101B10000030014000080140A4000020A80000207F
:101B20008A0000208E0000209200002098000020F3
:101B30009C000020022201212046FFF7EBFC05203B
:101B4000FEF783FC03212046FFF75FFD142806D033
:101B5000102201212046FFF7DDFC0020D6E7FF2000
:101B6000D4E710B50446022200212046FFF7D2FC3C
:101B7000012211462046FFF7CDFC0520FEF765FC4B
:101B800003212046FFF741FD222806D01022012123
:101B90002046FFF7BFFC002010BDFF20FCE770B51A
:101BA00000BF00202B4908701520FFF711FD0546E6
:101BB00005F0F0011520FFF764FC1720FFF708FD82
:101BC000054605F0010000283DD002210020FFF766
:101BD0001CFD0446224602210020FFF79BFC04F076
:101BE000010028B11C48007840F002001A49087032
:101BF00004F0020050B1102201210020FFF78AFCFE
:101C00000020FFF720FF00201349087004F01000A7
:101C100028B11248007840F002001049087004F022
:101C2000040028B10D48007840F001000B4908700D
:101C300004F0080038B1102201210020FFF76AFCEF
:101C40000020054908701720FFF7C2FC00B1A8E783
:101C500070BD0000AD000020AB000020AC000020F3
:101C60007FB505460C460121022000F0EAFCADF8E4
:101C70000850ADF804400020ADF80A00ADF80600A9
:101C800001A9204800F008FE012211461D4801F07C
:101C90007AF91D208DF8000002208DF801008DF8E2
:101CA000020001208DF80300684600F038F9012198
:101CB000144801F04DF97FBD10B50121114801F024
:101CC00010FCF0B101210F4801F01CFC0E48006827
:101CD000401C0D490860084600680A2805D100220A
:101CE0004FF48041094800F094FA0748006814282E
:101CF00007D101229103054800F08BFA0020024928
:101D0000086010BD00040040B0000020000C01403D
:101D100010B56FF0040000F04CF92E4800682E4911
:101D2000B0FBF1F02D4908700846007800EB400147
:101D3000C1EBC0104FF6FF7101EAC00028490880CE
:101D400010BD0146254A12784A434FF0E0235A61FC
:101D500000229A611A46126942F001021A6100BF1C
:101D60004FF0E022106900F001021AB100F4803255
:101D7000002AF5D04FF0E022126922F001024FF064
:101D8000E0231A6100229A6170470146144A1288C2
:101D90004A434FF0E0235A6100229A611A461269C1
:101DA00042F001021A6100BF4FF0E022106900F01A
:101DB00001021AB100F48032002AF5D04FF0E0227F
:101DC000126922F001024FF0E0231A6100229A61A9
:101DD000704700000800002000127A00B4000020C4
:101DE000B600002008B50121782000F01DFC01217B
:101DF000092000F019FC0121314800F02AFA4FF4C3
:101E00006040ADF8000010208DF8030003208DF82D
:101E1000020069462B4800F04BF94FF46041294815
:101E200000F0F3F940F2FF30ADF8000010208DF81B
:101E3000030003208DF802006946224800F038F9BB
:101E400040F2FF311F4800F0E2F941F6FF70ADF8B3
:101E5000000010208DF8030003208DF80200694671
:101E6000194800F025F941F6FF71174800F0CFF945
:101E70004FF6FF70ADF8000010208DF8030003202E
:101E80008DF802006946114800F012F94FF6FF7113
:101E90000E4800F0BCF940F2FF70ADF800001020D1
:101EA0008DF8030003208DF802006946084800F011
:101EB000FFF840F2FF71064800F0A9F908BD0000E4
:101EC00000043000000C01400010014000140140EB
:101ED000001801400948804709480047FEE7FEE72F
:101EE000FEE7FEE7FEE7FEE7FEE7FEE7FEE7FEE7CA
:101EF00004480549054A064B704700008305000861
:101F00003101000830120020301800203014002069
:101F10003014002031490143314A1160704770B5D7
:101F2000002100230F22C47804B32D4C246804F44C
:101F3000E064C4F5E064210AC1F10403CA404478B6
:101F400004FA03F18478144021430901254C0678F2
:101F5000A155047804F01F050124AC4005786D11EB
:101F6000AD0005F1E025C5F8004109E0047804F072
:101F70001F050124AC401C4D0678761145F826401B
:101F800070BD1A4A0A400243154B1B1F1A60704766
:101F900039B1134A121D12680243114B1B1D1A60FE
:101FA00006E00F4A121D126882430D4B1B1D1A607A
:101FB0007047042808D14FF0E021096941F004017D
:101FC0004FF0E022116107E04FF0E021096921F0B4
:101FD00004014FF0E0221161704700000000FA0593
:101FE0000CED00E000E400E080E100E080FFFF1F76
:101FF00010B50446CC48844208D10121042000F0E9
:102000002DFB0021042000F029FB46E0C748844254
:1020100008D10121082000F021FB0021082000F058
:102020001DFB3AE0C248844208D10121102000F093
:1020300015FB0021102000F011FB2EE0BD4884426A
:1020400008D10121202000F009FB0021202000F010
:1020500005FB22E0B848844208D10121402000F06D
:10206000FDFA0021402000F0F9FA16E0B34884425E
:1020700008D10121802000F0F1FA0021802000F039
:10208000EDFA0AE0AE48844207D10121801500F044
:10209000E5FA0021A01500F0E1FA10BD10B501210C
:1020A000084600F0DBFA0021012000F0D7FA10BD4D
:1020B0002DE9F041024600250026002000230024DF
:1020C000002791F803C00CF00F0591F803C00CF045
:1020D000100CBCF1000F03D091F802C04CEA0505CA
:1020E00091F800C0BCF1000F31D0146800202BE043
:1020F0004FF0010C0CFA00F3B1F800C00CEA030633
:102100009E4220D183004FF00F0C0CFA03F7BC4322
:1021100005FA03FC4CEA040491F803C0BCF1280F53
:1021200006D14FF0010C0CFA00FCC2F814C00AE012
:1021300091F803C0BCF1480F05D14FF0010C0CFA27
:1021400000FCC2F810C0401C0828D1D31460B1F8BC
:1021500000C0BCF1FF0F34DD546800202EE000F118
:10216000080C4FF0010808FA0CF3B1F800C00CEAB3
:1021700003069E4221D183004FF00F0C0CFA03F7A7
:10218000BC4305FA03FC4CEA040491F803C0BCF11B
:10219000280F05D100F1080C08FA0CF8C2F81480D9
:1021A00091F803C0BCF1480F07D100F1080C4FF0C3
:1021B000010808FA0CF8C2F81080401C0828CED399
:1021C0005460BDE8F0814FF6FF71018002218170FB
:1021D0000421C17070470246002093680B400BB188
:1021E000012000E0002070470146886880B27047F7
:1021F00002460020D3680B400BB1012000E0002014
:1022000070470146C86880B27047016170474161FC
:1022100070470AB1016100E041617047C1607047D9
:102220004FF480320A4382618161826182698269EE
:10223000704702460020434B18684FF680731840E1
:1022400040EA021008433F4B186070473E49C8619E
:102250007047F0B50A46002300240021002500F055
:102260000046B6F1004F02D1364EF16901E0354E1D
:102270007168C0F3034583B200F44016B6F5401F01
:1022800008D121F070612F4E766826F070662D4FD0
:102290007E6012E000F48016B6F5801F06D103269A
:1022A00006FA05F4A14341F0706106E0460D3601DF
:1022B00003FA06F6B14341F0706122B1460D3601D2
:1022C00003FA06F6314300F00046B6F1004F02D1A2
:1022D0001C4EF16101E01B4E7160F0BD30B5002273
:1022E0008B071C0F0F2303FA04F2164B08338C10D4
:1022F00053F824309343134C08348D1044F82530A0
:1023000023468C1053F824308C07240F00FA04F471
:1023100023430C4C08348D1044F8253030BD0A4955
:10232000DC3108607047000000080140000C0140EB
:10233000001001400014014000180140001C014041
:10234000002001400000014000002042DF480068FA
:1023500040F00100DD49086008464068DC4908405B
:10236000DA49486008460068DA490840D7490860F9
:102370000846006820F4802008600846406820F481
:10238000FE0048604FF41F0088607047CF4909681D
:1023900021F48031CD4A11601146096821F4802171
:1023A0001160B0F5803F03D0B0F5802F0ED106E06C
:1023B000C649096841F48031C44A116007E0C34945
:1023C000096841F4A021C14A116000E000BF00BFCC
:1023D000704710B501460022002300204A11012A4F
:1023E00002D1BA4C236806E0022A02D1B74C236A14
:1023F00001E0B64C636A01F01F02012494401C40C6
:102400000CB1012000E0002010BD38B50020009084
:102410000024002500BF3120FFF7DBFF05460098B0
:10242000401C00900098B0F5A06F01D0002DF2D0B4
:102430003120FFF7CEFF08B1012400E00024204640
:1024400038BD01460020A14A106820F0F80040EA9B
:10245000C10010607047A049086070470246002024
:102460009A4B586820F47C1042EA01031843974BBA
:102470005860704798490866704701460020934AA3
:10248000506820F003000843506070478F48406850
:1024900000F00C007047014600208C4A506820F084
:1024A000F00008435060704701460020874A50689A
:1024B00020F4E06008435060704701460020834AE2
:1024C000506820F4605040EAC1005060704729B164
:1024D0007E4A527A02437D4B5A7204E07B4A527A1A
:1024E00082437A4B5A7270477B49D83108607047F3
:1024F00001460020754A506820F44040084350606F
:1025000070470021714A20321170704A82F8201001
:10251000012802D004280AD104E001216B4A2032AC
:10252000117005E00521694A2032117000E000BFFA
:1025300000BF70476949086070476449096A0143F0
:10254000624A11627047654944390860704730B586
:1025500000210022002400235C4D6D6805F00C0171
:1025600021B1042905D0082923D105E05C4D05607F
:1025700022E05B4D05601FE0544D6D6805F470125C
:10258000524D6D6805F48034022505EB92421CB96A
:10259000544D554305600BE04C4D6D6805F4003516
:1025A0001DB1504D5543056002E04D4D554305604A
:1025B00002E04B4D056000BF00BF444D6D6805F063
:1025C000F0010909484D6B5C0568DD4045603F4DF1
:1025D0006D6805F4E061090A434D6B5C4568DD40B8
:1025E00085603A4D6D6805F46051C90A3E4D6B5CDB
:1025F0004568DD40C560354D6D6805F44041890B87
:102600003A4D6B5CC568B5FBF3F5056130BD29B18A
:102610002E4A526902432D4B5A6104E02B4A5269FB
:1026200082432A4B5A61704729B1284A9269024372
:10263000264B9A6104E0254A92698243234B9A61B2
:10264000704729B1214AD2690243204BDA6104E084
:102650001E4AD26982431D4BDA61704729B11B4A79
:10266000D2680243194BDA6004E0184AD268824308
:10267000164BDA60704729B1144A12690243134BB2
:102680001A6104E0114A12698243104B1A617047C3
:1026900012494039086070470F49C86470470B49B8
:1026A000C87170470948406A40F080700749486225
:1026B000704701460020054A92680A400AB101208D
:1026C00000E0002070470149887270470010024006
:1026D0000000FFF8FFFFF6FE000042428004424285
:1026E00000127A0000093D00B8000020C800002058
:1026F00010B50446FE48844208D10121C014FFF7FA
:10270000ADFF0021E014FFF7A9FFC4E0B4F1804F52
:1027100008D101210846FFF7AEFF00210120FFF795
:10272000AAFFB8E0F348844208D101210220FFF754
:10273000A2FF00210220FFF79EFFACE0EE4884429A
:1027400008D101210420FFF796FF00210420FFF7A4
:1027500092FFA0E0E948844208D101210820FFF758
:102760008AFF00210820FFF786FF94E0E4488442B6
:1027700008D101211020FFF77EFF00211020FFF774
:102780007AFF88E0DF48844208D101212020FFF74A
:1027900072FF00212020FFF76EFF7CE0DA488442C0
:1027A00008D101214014FFF759FF00216014FFF701
:1027B00055FF70E0D548844209D10121C804FFF7D4
:1027C0004DFF00214FF40020FFF748FF63E0D048A1
:1027D000844209D101210805FFF740FF00214FF491
:1027E0008010FFF73BFF56E0CA48844209D101211F
:1027F0004805FFF733FF00214FF40010FFF72EFFCD
:1028000049E0C548844208D101214020FFF733FF49
:1028100000214020FFF72FFF3DE0C048844208D14F
:1028200001218020FFF727FF00218020FFF723FFF1
:1028300031E0BB48844208D101218015FFF71BFF1E
:102840000021A015FFF717FF25E0B648844209D103
:1028500001210804FFF702FF00214FF48030FFF749
:10286000FDFE18E0B048844209D101214804FFF779
:10287000F5FE00214FF40030FFF7F0FE0BE0AB480F
:10288000844208D101218804FFF7E8FE00214FF4BB
:102890008020FFF7E3FE10BD00220288944B98428F
:1028A0000ED0994B98420BD0B0F1804F08D0914B8D
:1028B000984205D0904B984202D0904B984204D158
:1028C0004FF68F731A404B881A438D4B984207D0AE
:1028D0008C4B984204D04FF6FF431A40CB881A43E2
:1028E00002808B8883850B880385814B98420BD0AF
:1028F000854B984208D08B4B984205D08A4B984222
:1029000002D08A4B984201D10B7A0386012383823D
:10291000704770B5002400220023058C4FF6FE7628
:1029200035400584028C8388048B4FF68F752C40CC
:10293000B51E2C400D882C43751E2A400D892A4354
:102940004D882A436A4DA8420BD06F4DA84208D04B
:10295000744DA84205D0744DA84202D0734DA842D0
:1029600013D14FF6F7752A404D892A434FF6FB7570
:102970002A408D882A434FF6FF652B404FF6FF55BE
:102980002B408D892B43CD892B4383800483CD88B5
:102990008586028470BD70B5002400220023058C5A
:1029A0004FF6EF7635400584028C8388048B48F619
:1029B000FF752C404FF6FF452C400D884FF6FF76F3
:1029C00006EA05252C434FF6DF752A400D8906EAF5
:1029D00005152A434D8806EA05152A43444DA842A9
:1029E00002D0494DA8421DD14FF67F752A404D892E
:1029F0004FF6FF7606EA05152A434FF6BF752A40C3
:102A00008D8806EA05152A434FF6FF352B404FF215
:102A1000FF752B408D8906EA85052B43CD8906EA93
:102A200085052B4383800483CD880587028470BD90
:102A300070B5002400220023058C4FF6FF66354058
:102A40000584028C8388848B4FF68F752C404FF65B
:102A5000FC752C400D882C434FF6FF552A400D89FC
:102A60004FF6FF7606EA05252A434D8806EA052536
:102A70002A431F4DA84202D0234DA8421DD14FF238
:102A8000FF752A404D894FF6FF7606EA05252A4351
:102A90004FF6FF352A408D8806EA05252A434EF673
:102AA000FF752B404DF6FF752B408D8906EA051505
:102AB0002B43CD8906EA05152B4383808483CD887B
:102AC0008587028470BD70B5002200230024058C28
:102AD0004EF6FF7635400584038C8488828B48F659
:102AE000FF752A404FF6FF452A400D8820E0000080
:102AF000002C01400004004000080040000C004091
:102B0000001000400014004000340140004C01401F
:102B1000005001400054014000180040001C0040DB
:102B200000200040004001400044014000480140B6
:102B30004FF6FF7606EA05252A434DF6FF752B4032
:102B40000D8906EA05352B434D8806EA05352B43EA
:102B5000FA4DA84202D0FA4DA84208D14BF6FF75B3
:102B60002C408D894FF6FF7606EA85152C4384802C
:102B70008283CD88A0F84050038470BD828B4FF2D1
:102B8000FF331A408283828B4FF6FF7303EA0123DF
:102B90001A4382837047F0B50C4615460022002187
:102BA0000026078C4EF6FF7C07EA0C070784828B11
:102BB000018C4FF6FF7707EA043640F6FF473A40AC
:102BC0004FF6FF7707EA05273A434FF6FF7707EA04
:102BD00003373A43D94FB8420ED0D94FB8420BD041
:102BE000B0F1804F08D0D74FB84205D0D64FB84289
:102BF00002D0D64FB84206D14DF6FF77394046F4A1
:102C00008057394305E047F6FF57394044F4805771
:102C1000394382830184F0BD828B4FF6F3731A40EF
:102C20008283828B0A4382837047F0B50C46154637
:102C3000002200210026078C4FF6FF6C07EA0C07E4
:102C40000784828B018C4FF6FF7707EA04264FF644
:102C50000C773A404FF6FF7707EA03172F433A43C2
:102C6000B64FB8420ED0B64FB8420BD0B0F1804F3D
:102C700008D0B44FB84205D0B34FB84202D0B34FDA
:102C8000B84206D14FF6FF57394046F480773943B2
:102C900005E04FF2FF57394044F48077394382838F
:102CA0000184F0BD028B4FF2FF331A400283028B86
:102CB0004FF6FF7303EA01231A4302837047F0B50E
:102CC0000C461546002200210026078C4FF6EF7CAB
:102CD00007EA0C070784028B018C4FF6FF7707EA9F
:102CE000041640F6FF473A404FF6FF7707EA0337EE
:102CF0003A434FF6FF7707EA05273A438F4FB8422A
:102D00000ED08F4FB8420BD0B0F1804F08D08D4F0E
:102D1000B84205D08C4FB84202D08C4FB84206D191
:102D20004FF6DF77394046F01007394305E04FF69C
:102D30005F77394044F01007394302830184F0BDC6
:102D4000028B4FF6F3731A400283028B0A4302830D
:102D50007047F0B50C46154600220021068C4FF650
:102D6000FE773E400684028B018C4FF60C76324093
:102D70007E1C06EA03162E433243704EB0420ED03C
:102D80006F4EB0420BD0B0F1804F08D06D4EB042C4
:102D900005D06D4EB04202D06C4EB04206D14FF617
:102DA000FD76314044F00106314305E04FF6F576FB
:102DB000314044F00106314302830184F0BD70B517
:102DC00005460C465D4885420ED05D4885420BD0D5
:102DD000B5F1804F08D05B48854205D05A488542FE
:102DE00002D05A48854200D100E000BF208850B987
:102DF0002389A28861882846FFF7ABFFE18828462F
:102E0000FFF79EFF25E0208804280AD12389A288A5
:102E100061882846FFF753FFE1882846FFF742FF05
:102E200017E0208808280AD12389A28861882846CB
:102E3000FFF7FBFEE1882846FFF7EEFE09E0238955
:102E4000A28861882846FFF7A6FEE1882846FFF79A
:102E500095FE70BD2DE9F04105460C460026012780
:102E6000608808B9022600E00026A088012801D168
:102E7000022700E001272088A0B92389A288618861
:102E80002846FFF766FFE1882846FFF759FF2389A8
:102E90003A4631462846FFF712FFE1882846FFF7F9
:102EA00001FF13E02389A28861882846FFF707FF06
:102EB000E1882846FFF7F6FE23893A463146284640
:102EC000FFF747FFE1882846FFF73AFFBDE8F081AA
:102ED0000A884B881A438B881A43CB881A430B897C
:102EE0001A434B891A438B891A43A0F84420704730
:102EF0004FF6FF71818000210180C1804180017205
:102F000070470021018041808180C1800181418121
:102F10008181C18170470021018041800121818030
:102F20000021C180018170470021018041808180A2
:102F3000C18001814181818170470000002C0140E6
:102F4000003401400004004000080040000C004034
:102F500021B1028842F00102028004E002884FF6AB
:102F6000FE731A400280704731B1B0F8442042F439
:102F70000042A0F8442005E0B0F84420C2F30E025D
:102F8000A0F8442070471AB183890B43838102E083
:102F900083898B43838170478182704741EA0203B2
:102FA000A0F8483070471AB183890B43838102E04F
:102FB00083898B438381704701894FF6F8721140F2
:102FC000018170470A46002101894FF68F7319402D
:102FD00011430181704730B504460D46294620460D
:102FE000FFF7F0FF208940F00700208130BD2DE978
:102FF000F04104460D4616461F46602D06D13B465D
:10300000012231462046FFF75AFE05E03B460122E9
:1030100031462046FFF79DFE29462046FFF7D2FFA6
:10302000208940F007002081BDE8F08130B50C46D2
:1030300000210189C9B24FF6FF7505EA0325154342
:1030400025432943018130BD2DE9F04105460E4657
:1030500017469846002443463A4631462846FFF72D
:10306000E5FF2C894FF6F870044044F007044FF652
:103070008F70044044F070042C81BDE8F081F0B5FD
:1030800004460D4616461F463B4632462946204614
:10309000FFF7CCFF208940F480402081F0BD0185FE
:1030A000828270470A46002101884FF68F731940CB
:1030B000114301807047F0B50C4615461E460021AD
:1030C000002200230189028B038C4FF6F8773940E8
:1030D00021434FF6FC473A4040F201173A434FF67E
:1030E000DD773B404FF6FF7707EA06172F433B4358
:1030F000018102830384F0BD0A460021018B4FF653
:103100008F7319401143018370470A460021018BD8
:1031100048F6FF7319404FF6FF7303EA0223194381
:10312000018370470A460021818B4FF68F73194047
:103130001143818370470A460021818B48F6FF7353
:1031400019404FF6FF7303EA022319438183704746
:1031500021B1028842F08002028004E002884FF62A
:103160007F731A400280704721B1828842F00402C6
:10317000828004E082884FF6FB731A408280704799
:1031800021B1828842F00802828004E082884FF6F2
:10319000F7731A408280704721B1828842F00102A1
:1031A000828004E082884FF6FE731A408280704766
:1031B0000A460021018B4FF6F77319401143018332
:1031C00070470A460021018B4FF2FF7319404FF6FA
:1031D000FF7303EA02231943018370470A46002163
:1031E000818B4FF6F77319401143818370470A466C
:1031F0000021818B4FF2FF7319404FF6FF7303EAF2
:1032000002231943818370470A460021018B4FF640
:10321000FB7319401143018370470A460021018B5B
:103220004FF6FF3319404FF6FF7303EA02231943A9
:10323000018370470A460021818B4FF6FB731940CA
:103240001143818370470A460021818B4FF6FF337B
:1032500019404FF6FF7303EA022319438183704735
:103260000A460021018B4FF67F73194011430183F9
:1032700070470A460021018BC1F30E014FF6FF7320
:1032800003EA02231943018370470A460021818B18
:103290004FF67F7319401143818370470A4600211E
:1032A000818BC1F30E014FF6FF7303EA022319432A
:1032B000818370470A460021018C4FF6FD73194047
:1032C0001143018470470A460021018C4FF6F773C1
:1032D00019401143018470470A460021018C4FF6C2
:1032E000DF7319404FF6FF7303EA02131943018499
:1032F00070470A460021018C4FF67F7319404FF644
:10330000FF7303EA02131943018470470A46002140
:10331000018C4FF6FF5319404FF6FF7303EA022367
:103320001943018470470A460021018C4FF2FF7354
:1033300019404FF6FF7303EA0223194301847047D3
:103340000A460021018C4DF6FF7319404FF6FF73BA
:1033500003EA023319430184704730B50023012486
:103360008C40A3B2048C9C430484048C02FA01F5C3
:10337000ADB22C43048430BD30B5002304248C400E
:10338000A3B2048C9C430484048C02FA01F5ADB210
:103390002C43048430BD70B5034600200024184639
:1033A000183001258D40ACB21D8CA5431D8409B198
:1033B000082909D100EB6100056825F0700505605A
:1033C0000568154305600EE00D1FC5F34E05284442
:1033D000056825F4E045056005684FF6FF7606EAC6
:1033E00002263543056070BD21B1028842F0020219
:1033F000028004E002884FF6FD731A400280704795
:1034000021B1028842F00402028004E002884FF6F3
:10341000FB731A400280704721B1828842F080021B
:10342000828004E082884FF67F731A408280704762
:1034300002884FF6F7731A40028002880A4302801E
:10344000704782884FF68F731A40828082880A43C1
:103450008280704702894FF6F8731A400281028910
:103460000A430281704702894FF67F731A40028136
:1034700002890A43028170478184704781857047C1
:10348000818670470187704781877047A0F8401098
:10349000704702884FF6FF431A40028002880A43B1
:1034A000028070470146888E70470146088F70473A
:1034B0000146888F70470146B1F8400070470146C9
:1034C000888C70470146088D704702460020138A99
:1034D0000B400BB1012000E000207047CA4302827C
:1034E000704730B50246002000230024158A05EA03
:1034F0000103958905EA010413B10CB1012000E034
:10350000002030BDCA4302827047000000204449B9
:103510000860091D0860091D0860091D0860414810
:103520003F4914310860704700213D498279002AE3
:103530003AD00A46126803689A430B461A600A1D7D
:10354000126803689A430B1D1A60027911440A68D5
:1035500003681A430A60324A0832126803689A43C1
:103560002F4B08331A601A1D126803689A432C4BBC
:103570000C331A604279102A0ED11A1F12680368A0
:103580001A43274B08331A601A1D126803681A433E
:10359000234B0C331A600DE02149427911440A682B
:1035A00003681A430A6005E0027911440A68036857
:1035B0009A430A6070470021016001710C2141713A
:1035C0000021817170471649103109680143144A7E
:1035D00010321160704701460020114A14321268FF
:1035E0000A400AB1012000E0002070470C49143164
:1035F00008607047014600200022094B1B6803EA5F
:103600000102074B14331B680B4013B10AB10120B0
:1036100000E0002070470249143108607047000044
:1036200000040140FFFF0F0010B50446BE4884426D
:1036300008D101218014FFF711F80021A014FFF731
:103640000DF816E0B948844208D101210014FFF7B3
:1036500012F800212014FFF70EF80AE0B448844263
:1036600007D10121C013FFF706F80021E013FFF78F
:1036700002F810BD10B50022028802F441520B88F6
:103680004C8823438C882343CC8823430C892343D1
:103690004C8923438C892343CC8923431A430280DA
:1036A000838B4FF2FF74234083830B8A038210BD08
:1036B0002DE9F04F85B005460C464FF00009022772
:1036C0004FF000084FF0010B0026B246A88B4FF2D6
:1036D00040010840A88302202884B5F81C90A06807
:1036E000022801D100BF38E0A08810B94FF0010BCB
:1036F00001E04FF0020B8D48854200D100E000BF91
:103700006846FEF724FFDDF800A0E088B0F5007FF2
:103710000AD14FEA1A2000EB80004000A168B0FBFC
:10372000F1F0401D86B20BE04FEA4B10BAFBF0F00F
:1037300000EB80004000A168B0FBF1F0401D86B2B4
:103740000A20B6FBF0F606F00108A6EB0800C0F36D
:103750004F074FF6FF7000EA0828022F01DBFF2F0A
:1037600002DD02274FF00008E08840EA08003843F5
:103770002884A088A18908436188084321880843D8
:1037800040F4006040EA0909A5F81C9005B0BDE8C6
:10379000F08F0021018041808180C18001814181C1
:1037A0008181C18107210182704700210180418010
:1037B0008180C1800221816000218181704721B117
:1037C000028842F04002028004E002884FF6BF7394
:1037D0001A400280704721B1828B42F4806282835A
:1037E00004E0828B4FF6FF331A408283704730B576
:1037F000002400230C110125A540ABB21AB1858825
:103800001D43858002E085889D43858030BD1AB1C7
:1038100083880B43838002E083888B4383807047D7
:10382000818170470146888970474FF6FF62914257
:1038300004D0028842F48072028004E002884FF6CD
:10384000FF631A400280704721B1828842F004026F
:10385000828004E082884FF6FB731A4082807047B2
:1038600002884FF2FF731A40028002880A430280E6
:103870007047018841F480510180704721B102886E
:1038800042F40052028004E002884DF6FF731A40B1
:103890000280704702460020012901D0108B00E011
:1038A000908A70470146088A7047B1F5804F04D16D
:1038B000028842F48042028004E002884BF6FF73E3
:1038C0001A40028070470246002013890B400BB15A
:1038D000012000E000207047CA4302817047F0B524
:1038E0000246002000240023002501F00F070126D6
:1038F000BE40B4B20B1101269E40B3B2968806EAD0
:1039000003051689264016B10DB1012000E0002004
:10391000F0BD10B5002201F00F040123A3409AB2BC
:10392000D343038110BD0000003001400038004047
:10393000003C004001460020FE4A106800F03800BC
:10394000084310607047FB49096821F00801F94AF3
:10395000116011460968014311607047F549096813
:1039600021F01001F34A116011460968014311600A
:103970007047F148EF494860F04848607047EE48AA
:10398000EC494860ED4848607047EA48006940F0FB
:103990008000E84908617047E648006940F080000F
:1039A000E449086170470420E249C96801F0010157
:1039B00009B101200EE0DF49C96801F0040109B135
:1039C000022007E0DB49C96801F0100109B10320BA
:1039D00000E00420704700B502460423FFF7E3FF30
:1039E000034603E0FFF7DFFF0346521E012B01D120
:1039F000002AF7D102B90523184600BD30B50446A8
:103A000004254FF43020FFF7E6FF0546042D17D1BB
:103A1000C848006940F00200C64908610846446190
:103A2000006940F0400008614FF43020FFF7D3FFF9
:103A30000546C048006941F6FD710840BD4908616E
:103A4000284630BD10B504244FF43020FFF7C3FFE3
:103A50000446042C16D1B748006940F00400B5496B
:103A600008610846006940F0400008614FF43020CA
:103A7000FFF7B1FF0446AF48006941F6FB7108400B
:103A8000AC490861204610BD00B502460423FFF78B
:103A90008AFF034603E0FFF786FF0346521E012B11
:103AA00001D1002AF7D102B90523184600BD10B58F
:103AB00004244FF43020FFF7E7FF0446042C16D10E
:103AC0009C48006940F004009A4908610846006972
:103AD00040F0400008614FF43020FFF7D5FF044666
:103AE0009448006941F6FB710840924908612046FC
:103AF00010BD00208F49C96901F0020109B1012000
:103B000000E00020704730B5A5250424FFF7F1FF41
:103B100000B100254FF43020FFF75DFF0446042C70
:103B20003AD185488349886084488860084600699E
:103B300040F0200008610846006940F0400008613C
:103B40004FF43020FFF747FF0446042C1BD179487F
:103B5000006941F6DF71084076490861084600694E
:103B600040F01000086176480580E002FFF733FF5F
:103B70000446052C10D06F48006941F6EF710840EB
:103B80006C49086108E0052C06D06A48006941F6D6
:103B9000EF71084067490861204630BD78B5064698
:103BA0000C46042500200090E802FFF714FF0546AC
:103BB000042D24D15F48006940F001005D4908618F
:103BC0003480E802FFF707FF0546042D10D1B01C32
:103BD0000090200C00990880E802FFF7FCFE0546E3
:103BE0005448006941F6FE7108405249086106E0F8
:103BF0005048006941F6FE7108404E490861284668
:103C000078BD70B504460D460426F002FFF7E3FECA
:103C10000646042E11D14748006940F0010045498D
:103C200008612580F002FFF7D6FE0646414800698C
:103C300041F6FE7108403F490861304670BD70B5DD
:103C400005460E460424E002FFF7C5FE0446042C98
:103C500017D1394837498860384888600846006974
:103C600040F0100008612E80E002FFF7B4FE044629
:103C7000052C06D02F48006941F6EF7108402D4908
:103C80000861204670BD2DE9F04304464FF6FF76EB
:103C90003746B046B1460425E443E6B2C4F30727ED
:103CA000C4F307484FEA1469E802FFF794FE05469B
:103CB000042D49D120481F49886020488860084663
:103CC000006940F010000861FF2E06D01C48083043
:103CD0000680E802FFF77FFE0546042D08D1FF2F7E
:103CE00006D017480A300780E802FFF774FE054641
:103CF000042D0AD1B8F1FF0F07D011480C30A0F8FD
:103D00000080E802FFF767FE0546042D0AD1B9F1ED
:103D1000FF0F07D00A480E30A0F80090E802FFF726
:103D20005AFE0546052D0FD00248006941F6EF7195
:103D3000084007E00020024023016745AB89EFCD32
:103D400000F8FF1F664908612846BDE8F08330B5DA
:103D5000054604244FF43020FFF73DFE0446042CB2
:103D600041D160485E4988605F48886008460069C4
:103D700040F0200008610846006940F040000861FA
:103D80004FF43020FFF727FE0446042C22D154487C
:103D9000006941F6DF710840514908610846006931
:103DA00040F0100008611DB100205049088002E079
:103DB000A5204E4908804FF43020FFF70CFE044642
:103DC000052C10D04648006941F6EF71084044497F
:103DD000086108E0052C06D04148006941F6DF7112
:103DE00008403F490861204630BDF0B505460E4603
:103DF000174604243B483A4988603B488860E00203
:103E0000FFF7E9FD0446042C19D13548006940F05C
:103E100010003349086147F0F80030432843334924
:103E2000891C0880E002FFF7D6FD0446052C06D069
:103E30002B48006941F6EF71084029490861204686
:103E4000F0BD2748C069800870472548006A704760
:103E500000202349096801F0200109B1012000E098
:103E60000020704729B11E4A126902431C4B1A6197
:103E700004E01B4A12698243194B1A6170470146DC
:103E80000020012908D1164AD26902F001020AB1C4
:103E9000012008E0002006E0114AD2680A400AB179
:103EA000012000E0002070470D49C86070470420E1
:103EB0000B49C96801F0010109B101200EE0084970
:103EC000C96801F0040109B1022007E00449C9688A
:103ED00001F0100109B1032000E004207047000048
:103EE0000020024023016745AB89EFCD00F8FF1F9A
:103EF00010B5431C02E010F8011B71B18107FAD123
:103F00004FF0013202C88C1A8C4314EAC211F9D066
:103F1000C01A0A0603D0C01E10BDC01A10BD0A0484
:103F200001D0801E10BD0902FCD0401E10BD032A26
:103F300040F2308010F0030C00F0158011F8013BC6
:103F4000BCF1020F624498BF11F801CB00F8013BAD
:103F500038BF11F8013BA2F1040298BF00F801CB71
:103F600038BF00F8013B11F0030300F02880083A45
:103F7000C0F0088051F8043B083A51F804CBA0E89F
:103F80000810F5E7121D5CBF51F8043B40F8043BF4
:103F9000AFF30080D20724BF11F8013B11F801CB29
:103FA00048BF11F8012B24BF00F8013B00F801CBFA
:103FB00048BF00F8012B704770477047704710B535
:103FC000203AC0F00B80B1E81850203AA0E8185011
:103FD000B1E81850A0E81850BFF4F5AF5FEA027CD2
:103FE00024BFB1E81850A0E8185044BF18C918C041
:103FF000BDE810405FEA827C24BF51F8043B40F8E2
:10400000043B08BF7047D20728BF31F8023B48BFC6
:1040100011F8012B28BF20F8023B48BF00F8012B04
:104020007047754600F02CF8AE46050069465346C9
:1040300020F00700854618B020B5FDF759FFBDE810
:1040400020404FF000064FF000074FF000084FF0FF
:10405000000B21F00701AC46ACE8C009ACE8C00990
:10406000ACE8C009ACE8C0098D46704710B50446FD
:10407000AFF300802046BDE81040FCF7A0B8000078
:1040800000487047CC11002001491820ABBEFEE764
:104090002600020070470000B84000080000002021
:1040A000CC0000006C01000884410008CC00002016
:1040B00064170000880100080000000000000000F4
:1040C00000A24A04000000000000000001020304F6
:1040D00006070809696F2073657428332C626974B8
:1040E000313D302C626974373D302C626974333055
:1040F0003D30290D0A0068656C700D0A0076657206
:1041000073696F6E0D0A005468697320636F6D6D7B
:10411000616E6420697320696C6C6567616C2C70DA
:104120006C6561736520636865636B2069742061E9
:104130006761696E0D0A00444F4E453B405F400D7C
:104140000A00000000000000000000000000000065
:10415000000000000000000000000000000000005F
:10416000000003000000000000000000000000004C
:10417000000000000102030401020304060708090D
:044180000204060827
:0400000508000131BD
:00000001FF
